:100000000C94D20F0C94FC0F0C94FC0F0C94FC0F6E
:100010000C94FC0F0C94FC0F0C94FC0F0C94FC0F34
:100020000C94FC0F0C94FC0F0C9425A30C94A2A32D
:100030000C94FC0F0C94FC0F0C94FC0F0C94FC0F14
:100040000C94FC0F0C9438800C94FC0F0C94FC0F57
:100050000C94FC0F0C94FC0F0C9499960C9484A2B5
:100060000C94FC0F0C94FC0F0C94FC0F0C94FC0FE4
:100070000C94FC0F0C94FC0F0C94FC0F0C94FC0FD4
:100080000C94FC0F0C94FC0F0C94FC0F0C94FC0FC4
:100090000C94FC0F0C94FC0F13A03FA061A061A076
:1000A00061A061A061A061A061A061A061A061A048
:1000B00061A061A057A04FA047A061A061A061A06E
:1000C00061A061A061A061A039A01FA027A031A0FC
:1000D0004E414E494E495459494E46CDCCCC3D0A2D
:1000E000D7233C17B7D13877CC2B329595E6241F10
:1000F000B14F0A000020410000C84200401C4620C9
:10010000BCBE4CCA1B0E5AAEC59D742020506C61FB
:100110006E6E657242756666657242797465733A91
:1001200020002046726565204D656D6F72793A201A
:1001300000436F6D70696C65643A204D61792031C0
:100140003020323032300A00207C20417574686FD4
:10015000723A20286A6E6F656C2C20323032302D56
:1001600030352D3130290A00323031382D30382DDC
:10017000303100204C617374205570646174656483
:100180003A2000312E312E390A004D61726C696EB1
:100190000020536F667477617265205265736574D1
:1001A0000A00205761746368646F67205265736545
:1001B000740A002042726F776E206F75742052654A
:1001C0007365740A002045787465726E616C205204
:1001D000657365740A00506F77657255700A007315
:1001E000746172740A005072696E7465722068617D
:1001F0006C7465642E206B696C6C28292063616CBB
:100200006C6564210A004B494C4C45442E20004B40
:10021000494C4C2063617573656420627920746F6A
:100220006F206D75636820696E61637469766520FF
:1002300074696D65202D2063757272656E7420631C
:100240006F6D6D616E643A200020746F6F206C6F6B
:100250006E6720657874727573696F6E2070726551
:1002600076656E7465640A0020636F6C642065783F
:1002700074727573696F6E2070726576656E7465E1
:10028000640A002042002050006F6B0052657365C5
:100290006E643A20003A004361703A0000011C1D70
:1002A000132FFFFFFFFF1E1F12FF14FFFFFF202170
:1002B0001124FFFFFFFFFFFFFF0E10FFFFFF2223B0
:1002C0000DFFFFFF0E260FFF2742696C696E656107
:1002D00072204C6576656C696E6720477269643A76
:1002E0000A004163746976652045787472756465A7
:1002F000723A200020453A00205A3A0020593A002C
:10030000583A002C20002C2000627573793A207036
:10031000617573656420666F7220696E7075740A0A
:1003200000627573793A2070617573656420666F39
:100330007220757365720A00627573793A20707263
:100340006F63657373696E670A0050726F62696EDE
:1003500067206661696C65640A00205A3A200020B3
:10036000593A200042656420583A2000206669729C
:1003700073740A005A0059005800486F6D652000D8
:1003800020496E76616C6964206578747275646565
:10039000722000656E7175657565696E6720220053
:1003A000496E76616C6964206578747275646572F3
:1003B0000A004E6F2063617365206C696768740A78
:1003C00000416476616E6365204B3D003F4B2076B3
:1003D000616C7565206F7574206F662072616E6741
:1003E000652028302D3130292E0A003A2000507225
:1003F0006F6265205A204F6666736574003F5A200D
:100400006F7574206F662072616E676520282D32CB
:1004100020746F203230290A00454550524F4D203C
:100420004F4B0A00546F6F206661722066726F6DC9
:10043000207265666572656E636520706F696E74A3
:100440000A004D65736820706F696E742063616E79
:100450006E6F74206265207265736F6C7665640AD6
:10046000004D34323120696E636F7272656374209F
:10047000706172616D657465722075736167650A7C
:10048000004F66660A0046616465204865696768D2
:10049000742000426564204C6576656C696E672047
:1004A000004661696C656420746F20656E61626CE2
:1004B0006520426564204C6576656C696E670A004C
:1004C00043290A0061626C656420286D696E20749E
:1004D000656D702000436F6C64206578747275647C
:1004E000657320617265200020643A0020693A003B
:1004F00020703A00496E76616C6964206578747288
:10050000756465720A0020643A0020693A00207020
:100510003A0020466C6F773A2000205A002059009C
:10052000580020204D61783A2000205A00205900C0
:10053000580020204D696E3A20004F6666004F6ECD
:100540002000536F667420656E6473746F70733A25
:1005500020005741524E494E4721204C6F77205A78
:10056000204A65726B206D6179206C65616420742E
:100570006F20756E77616E74656420706175736548
:10058000732E0A00205400205200416363656C659D
:10059000726174696F6E3A2050002F2F200054480A
:1005A00045524D414C5F50524F54454354494F4E74
:1005B000004155544F5245504F52545F53445F537E
:1005C000544154555300454D455247454E43595F9C
:1005D00050415253455200434153455F4C494748AF
:1005E000545F4252494748544E45535300544F4775
:1005F000474C455F4C494748545300534F46545766
:100600004152455F504F574552004255494C445F57
:1006100050455243454E54004C4556454C494E4773
:100620005F44415441005A5F50524F42450041558A
:10063000544F4C4556454C005052494E545F4A4F1A
:10064000420050524F4752455353004155544F5268
:1006500045504F52545F54454D5000564F4C554DE8
:10066000455452494300454550524F4D0053455261
:1006700049414C5F584F4E5F584F464600464952DD
:100680004D574152455F4E414D453A4D61726C693F
:100690006E20312E312E3920284769746875622901
:1006A00020534F555243455F434F44455F55524C8D
:1006B0003A68747470733A2F2F6769746875622E84
:1006C000636F6D2F4D61726C696E4669726D7761F3
:1006D00072652F4D61726C696E2050524F544F43BA
:1006E0004F4C5F56455253494F4E3A312E30204DB4
:1006F000414348494E455F545950453A5072696EDE
:100700007472626F742053696D706C65204D6574EE
:10071000616C205265762E4420455854525544450C
:10072000525F434F554E543A3120555549443A6330
:10073000656465326132662D343161322D3437346F
:10074000382D396231322D633535633632663336B2
:100750003766660A004D3131332053006F666600FC
:1007600044454255473A0092078D0786077F077137
:1007700007434F4D4D554E49434154494F4E004458
:10078000525952554E004552524F525300494E460F
:100790004F004543484F0020573A0020573A004B3E
:1007A000494C4C45442E20006F6B0050726F7465AD
:1007B000637465642050696E0A005072696E74201B
:1007C00074696D653A20004D65736820706F696EBD
:1007D000742063616E6E6F74206265207265736F42
:1007E0006C7665640A00205A3A200020593A2000AD
:1007F00042656420583A20004731205A3130204663
:100800003730303000202844525952554E29004785
:100810003239204175746F20426564204C657665DD
:100820006C696E67003F20284C2C522C462C4229C4
:10083000206F7574206F6620626F756E64732E0A68
:10084000003F2856296572626F7365206C65766576
:100850006C20697320696D706C61757369626C6579
:100860002028302D34292E0A00426164205A207637
:10087000616C75650A004E6F2062696C696E656116
:100880007220677269640A00486F6D6520585920AC
:1008900066697273740A005761726E696E673A20F6
:1008A000486F6D696E672042756D70204469766986
:1008B000736F72203C20310A000202044B494C4CF9
:1008C00045442E20005072696E7465722073746FF7
:1008D000707065642064756520746F206572726F36
:1008E00072732E2046697820746865206572726F75
:1008F0007220616E6420757365204D39393920741A
:100900006F20726573746172742E202854656D7047
:1009100065726174757265206973207265736574A0
:100920002E2053657420697420616674657220728C
:10093000657374617274696E67290A004E6F204393
:100940006865636B73756D2077697468206C696E78
:1009500065206E756D6265722C204C617374204C3D
:10096000696E653A2000636865636B73756D206D11
:1009700069736D617463682C204C617374204C69D9
:100980006E653A20004C696E65204E756D62657229
:10099000206973206E6F74204C617374204C696EF3
:1009A00065204E756D6265722B312C204C6173741D
:1009B000204C696E653A20004D31313000FF01FF57
:1009C0000000A0400000A0400000004000001843CC
:1009D00000001A4300001843000000000000184304
:1009E00000000000000018430000184300001843F6
:1009F00000000000000000C00000000000004842AD
:100A0000000048420000804000000000256973009B
:100A100025696D20256973002569682025696D2089
:100A200025697300256964202569682025696D2082
:100A30002569730025697920256964202569682066
:100A400025696D202569730020204D393030204BF9
:100A5000004C696E65617220416476616E63653A2F
:100A60000A0020204D383531205A005A2D50726F1F
:100A70006265204F6666736574002044002049005B
:100A800020204D33303420500020440020490020E5
:100A9000204D333031205000504944207365747428
:100AA000696E67733A0A00205A00204A00202047E6
:100AB00032392057204900205A0020204D3432304E
:100AC0002053004175746F20426564204C65766543
:100AD0006C696E673A0A00205A0020590020204DA8
:100AE000323036205800486F6D65206F666673653A
:100AF000743A0A00204500205A002059002058006E
:100B000020540020530020204D3230352051002049
:100B1000453C6D61785F655F6A65726B3E00205889
:100B20003C6D61785F785F6A65726B3E20593C6D01
:100B300061785F795F6A65726B3E205A3C6D6178BF
:100B40005F7A5F6A65726B3E00416476616E6365D1
:100B5000643A20513C6D696E5F7365676D656E74B4
:100B60005F74696D655F75733E20533C6D696E5FA0
:100B700066656564726174653E20543C6D696E5FA4
:100B800074726176656C5F66656564726174653EFA
:100B90000020540020520020204D323034205000DC
:100BA000416363656C65726174696F6E2028756E50
:100BB0006974732F7332293A20503C7072696E74D5
:100BC0005F616363656C3E20523C72657472616361
:100BD000745F616363656C3E20543C74726176653A
:100BE0006C5F616363656C3E0A00204500205A001B
:100BF00020590020204D3230312058004D61786955
:100C00006D756D20416363656C65726174696F6EAB
:100C10002028756E6974732F7332293A0A002045B3
:100C200000205A0020590020204D32303320580037
:100C30004D6178696D756D20666565647261746576
:100C4000732028756E6974732F73293A0A00204542
:100C500000205A0020590020204D393220580053DE
:100C6000746570732070657220756E69743A0A003D
:100C700020204D3230302044300A0020204D3230C8
:100C8000302044002044697361626C65640A004648
:100C9000696C616D656E742073657474696E6773D9
:100CA0003A002020473231202020203B004861724A
:100CB00064636F6465642044656661756C74205379
:100CC000657474696E6773204C6F616465640A00B3
:100CD000D0070000D00700001E0000001027000011
:100CE0000000FA420000FA420000E04000006041CB
:100CF0000000A0420000A0420080FC440000BD4271
:100D0000290A002062797465733B206372632000B6
:100D10002073746F7265642073657474696E677391
:100D200020726574726965766564202800202863E6
:100D3000616C63756C6174656429210A0020213D32
:100D40002000454550524F4D20435243206D69735A
:100D50006D61746368202D202873746F7265642937
:100D600020002053697A653A2000496E6465783A1C
:100D70002000204D61726C696E3D563536290A009F
:100D800028454550524F4D3D00454550524F4D204E
:100D900076657273696F6E206D69736D61746368D7
:100DA0002000290A002062797465733B2063726316
:100DB000200053657474696E67732053746F726595
:100DC00064202800454550524F4D20646174617382
:100DD000697A65206572726F722E0A004572726FB1
:100DE000722077726974696E6720746F2045455070
:100DF000524F4D210A003A0A0020286D6D29006FDC
:100E000070656E00545249474745524544003A20A8
:100E1000007A5F6D696E00795F6D617800785F6D53
:100E2000696E005265706F7274696E6720656E64DA
:100E300073746F70207374617475730A00205A3A6A
:100E40000020593A0020583A00656E6473746F7040
:100E500073206869743A2000486F6D696E67206678
:100E600061696C656400556E6B6E6F776E20636FA1
:100E70006D6D616E643A20220020746F6F206C6F7C
:100E80006E6720657874727573696F6E2070726515
:100E900076656E7465640A0020636F6C6420657803
:100EA00074727573696F6E2070726576656E7465A5
:100EB000640A00FFFDFCFAF8F6F4F2F0EEECEAE961
:100EC000E7E5E3E1E0DEDCDAD9D7D5D4D2D0CFCD87
:100ED000CBCAC8C7C5C3C2C0BFBDBCBAB9B7B6B418
:100EE000B3B2B0AFADACAAA9A8A6A5A4A2A1A09E7A
:100EF0009D9C9A99989795949392908F8E8D8B8ABA
:100F00008988878684838281807F7E7D7B7A7978D9
:100F100077767574737271706F6E6D6C6B6A6968D9
:100F200067666564636261605F5E5D5C5B5A5958C9
:100F3000585756555453525150504F4E4D4C4B4AA2
:100F40004A4948474646454443424241403F3E3E67
:100F50003D3C3B3B3A39383837363535343332321D
:100F60003130302F2E2E2D2C2B2B2A2929282727C4
:100F700026252524232322212120201F1E1E1D1C5F
:100F80001C1B1B1A191918181716161515141313EC
:100F900012121111100F0F0E0E0D0D0C0C0B0A0A70
:100FA00009090808070706060505040403030202E9
:100FB0000100000000000100000001000080005559
:100FC0005555000000400033333300AAAA2A0049D7
:100FD00092240000002000C7711C0099991900D1CB
:100FE000451700555515003BB11300244912001157
:100FF000111100000010000F0F0F00E3380E004326
:10100000790D00CCCC0C00C3300C00E8A20B0064BE
:10101000210B00AAAA0A00703D0A009DD8090042CF
:101020007B090092240900DCD3080088880800109E
:1010300042080000000800F0C1070087870700751C
:10104000500700711C07003EEB0600A1BC060069BA
:1010500090060066660600703E06006118060017DE
:10106000F4050074D105005BB00500B29005006284
:101070007205005555050078390500B81E050005B4
:101080000505004EEC040087D40400A1BD040090C7
:10109000A7040049920400C17D0400EE690400C762
:1010A000560400444404005C32040008210400415A
:1010B000100400000004003FF00300F8E0030026E5
:1010C000D20300C3C30300CCB503003AA803000A4F
:1010D0009B0300388E0300C08103009F750300D07E
:1010E000690300505E03001D530300344803009160
:1010F0003D03003333030016290300381F03009714
:10110000150300300C0300030303000BFA0200492F
:10111000F10200BAE802005CE002002DD802002DC6
:10112000D0020059C80200B0C0020031B90200DA92
:10113000B10200AAAA0200A0A30200BC9C0200FA0D
:101140009502005C8F0200DF880200828202004567
:101150007C02002776020027700200436A02007CAE
:10116000640200D05E02003F590200C853020065CD
:1011700063686F3A004572726F723A00205A3A0003
:1011800020593A0020436F756E7420583A00232C82
:101190000000B8220000561800003A0F0000B808FE
:1011A0000000B1040000710200003E01000024F4C0
:1011B000D43050C38E20C2A24017828B7011127A95
:1011C000910D816CD90AA861E108C7586607615181
:1011D00043061E4B5D05C145A7041A411104093D94
:1011E0009803713931034036DB0265339102D43004
:1011F0005402802E1D02632CEE01752AC501B02811
:10120000A001102781018F2564012B244B01E022CE
:101210003401AC211F018D200D01801FFC00841EB4
:10122000ED00971DDF00B81CD200E61BC600201B96
:10123000BC00641AB200B219A8000A19A0006A180A
:101240009900D117910040178B00B5168400311614
:101250007E00B31579003A157300C7146F00581457
:101260006A00EE1366008813630025135E00C71240
:101270005B006C12570015125400C111510070111F
:101280004F0021114B00D61049008D104700461029
:10129000440002104200C00F4000800F3E00420F89
:1012A0003C00060F3B00CB0E3800930E37005C0E5F
:1012B0003500270E3400F30D3200C10D3100900DC2
:1012C0003000600D2E00320D2D00050D2C00D90CC4
:1012D0002B00AE0C2900850C29005C0C2700350C76
:1012E00027000E0C2600E80B2400C40B2400A00BE2
:1012F00023007D0B23005A0B2100390B2100180B12
:101300002000F80A1F00D90A1E00BB0A1E009D0A11
:101310001D00800A1D00630A1C00470A1B002C0ADE
:101320001B00110A1A00F7091A00DD091900C40987
:101330001900AB091900920917007B09180063090D
:1013400017004C09160036091600200916000A0974
:101350001500F5081500E0081400CC081400B808C2
:101360001400A4081400900813007D0812006B08F4
:101370001300580812004608120034081100230810
:1013800011001208110001081100F0071000E00719
:101390001000D0071000C0071000B0070F00A10711
:1013A000100091070E0083070F0074070F006507F8
:1013B0000E0057070E0049070E003B070D002E07D1
:1013C0000E0020070D0013070D0006070D00F9069B
:1013D0000C00ED060D00E0060C00D4060C00C8065B
:1013E0000C00BC060C00B0060C00A4060B0099060D
:1013F0000C008D060B0082060B0077060B006C06B6
:101400000B0061060A0057060B004C060A00420654
:101410000A0038060A002E060A0024060A001A06E8
:101420000A001006090007060A00FD050900F40578
:101430000900EB050900E2050900D9050900D005FE
:101440000900C7050900BE050900B5050800AD057E
:101450000800A50509009C050800940508008C05F6
:101460000800840508007C050800740508006C0568
:101470000700650508005D050700560508004E05D4
:10148000070047050700400508003805070031053B
:1014900007002A050700230507001C05060016059E
:1014A00007000F0507000805060002050700FB04FA
:1014B0000600F5040700EE040600E8040600E20456
:1014C0000700DB040600D5040600CF040600C904AB
:1014D0000600C3040600BD040600B7040600B104FC
:1014E0000500AC040600A6040600A00405009B0449
:1014F000060095040500900406008A040500850492
:101500000500800406007A040500750405007004D7
:1015100005006B04050066040500610405005C0419
:10152000050057040500520405004D040500480459
:101530000500430405003E0404003A040500350498
:101540000500300404002C040500270404002304D3
:1015500005001E0404001A0404001604050011040A
:1015600004000D0404000904050004040400000440
:101570000400FC030400F8030400F4030400F00377
:101580000400EC030400E8030400E4030400E003A7
:101590000400DC030400D8030400D4030400D003D7
:1015A0000400CC030400C8030300C503030024F4B3
:1015B00004D9201BC40C5C0E9804C4095F026507A3
:1015C0007101F405F900FB04B30048048700C1036E
:1015D00069005803550003034500BE023A00840227
:1015E000310053022A002902250004022000E401F0
:1015F0001C00C8011900AF011700980114008401F4
:101600001300710110006101100051010E0043012F
:101610000D0036010B002B010B0020010B00150102
:1016200009000C01090003010800FB000800F30099
:101630000800EB000700E4000600DE000600D8000A
:101640000600D2000600CC000500C7000500C2005D
:101650000500BD000400B9000400B5000400B1009D
:101660000400AD000400A9000400A5000300A200CE
:1016700003009F0004009B000300980003009500F6
:10168000020093000300900003008D0002008B0015
:10169000030088000200860002008400030081002D
:1016A00002007F0002007D0002007B000200790042
:1016B0000200770001007600020074000200720050
:1016C0000100710002006F0002006D0001006C005B
:1016D00002006A0001006900020067000100660064
:1016E0000100650001006400020062000100610069
:1016F0000100600001005F0002005D0001005C006D
:1017000001005B0001005A0001005900010058006F
:10171000010057000100560001005500010054006F
:10172000010053000000530001005200010051006D
:101730000100500001004F0001004E0000004E006B
:1017400001004D0001004C0001004B0000004B0067
:1017500001004A0001004900010048000000480063
:10176000010047000100460000004600010045005E
:101770000000450001004400010043000000430058
:101780000100420000004200010041000000410051
:101790000100400001003F0000003F0001003E004A
:1017A00000003E0001003D0000003D0001003C0043
:1017B00000003C0000003C0001003B0000003B003A
:1017C00001003A0000003A00010039000000390031
:1017D0000100380000003800000038000100370028
:1017E000000037000100360000003600000036001F
:1017F0000100350000003500000035000100340014
:101800000000340000003400010033000000330009
:1018100000003300010032000000320000003200FE
:1018200001003100000031000000310001003000F3
:10183000000030000000300001002F0000002F00E9
:1018400000002F0000002F0001002E0000002E00DD
:1018500000002E0001002D0000002D0000002D00D2
:1018600000002D0001002C0000002C0000002C00C6
:1018700000002C0001002B0000002B0000002B00BA
:1018800000002B0001002A0000002A0000002A00AE
:1018900000002A00010029000000290000002900A2
:1018A0000000290000002900010028000000280095
:1018B0000000280000002800000028000100270088
:1018C000000027000000270000002700000027007C
:1018D000010026000000260000002600000026006F
:1018E0000000260001002500000025000000250062
:1018F0000000250000002500000025000100240054
:101900000000240000002400000024000000240047
:10191000010023000000230000002300000023003A
:10192000000023000000230000002300010022002B
:10193000000022000000220000002200000022001F
:101940000000220001002100000021000000210011
:101950000000210000002100000021000000210003
:1019600001002000000020000000200000002000F6
:1019700000002000000020000000200000002000E7
:1019800001001F0000001F0000001F0000001F00DA
:1019900000001F0000001F0000001F0001001E00CB
:1019A00000001E0000001E0000001E00000020427B
:1019B000403A0020403A00202F00546865726D6163
:1019C0006C2052756E61776179004531205448452D
:1019D000524D414C2052554E4157415900424544C9
:1019E00020544845524D414C2052554E4157415983
:1019F000004B494C4C45442E2000202D20496E764A
:101A0000616C6964206578747275646572206E75A6
:101A10006D62657220210A0048656174696E6720F5
:101A20006661696C6564004265642068656174691B
:101A30006E67206661696C65640048656174696EF3
:101A400067206661696C6564004531204865617492
:101A5000696E67206661696C6564004D494E544546
:101A60004D50207472696767657265640045312066
:101A70004572723A204D494E54454D5000457272A0
:101A80003A204D494E54454D5020424544004D4169
:101A90005854454D502074726967676572656400DB
:101AA0004531204572723A204D415854454D500001
:101AB0004572723A204D415854454D50204245449C
:101AC000006265640A002C2073797374656D20735D
:101AD000746F7070656421204865617465725F4938
:101AE000443A20004B64200023646566696E6520DB
:101AF00044454641554C545F004B692000236465C2
:101B000066696E652044454641554C545F004B70F4
:101B1000200023646566696E652044454641554C46
:101B2000545F00504944204175746F74756E652090
:101B300066696E69736865642120507574207468E5
:101B400065206C617374204B702C204B6920616E92
:101B500064204B6420636F6E7374616E74732066CF
:101B6000726F6D2062656C6F7720696E746F2043B1
:101B70006F6E66696775726174696F6E2E680A00B0
:101B8000504944204175746F74756E6520666169B3
:101B90006C6564212074696D656F75740A00546802
:101BA00065726D616C2052756E61776179004531A7
:101BB00020544845524D414C2052554E41574159B1
:101BC0000042454420544845524D414C2052554E08
:101BD000415741590048656174696E6720666169C3
:101BE0006C65640045312048656174696E672066E4
:101BF00061696C6564004265642068656174696E42
:101C000067206661696C65640050494420417574C1
:101C10006F74756E65206661696C6564212054651A
:101C20006D706572617475726520746F6F2068697C
:101C300067680A00204B643A2000204B693A200074
:101C4000204B703A20000A20436C61737369632053
:101C5000504944200A002054753A2000204B753A20
:101C60002000206D61783A2000206D696E3A2000D6
:101C700020643A200020626961733A200050494490
:101C8000204175746F74756E652073746172740A87
:101C900000504944204175746F74756E652066610B
:101CA000696C6564212054656D706572617475722C
:101CB0006520746F6F20686967680A005049442086
:101CC0004175746F74756E65206661696C65642119
:101CD00020426164206578747275646572206E7547
:101CE0006D6265720A001000C90210012C014001EA
:101CF000220170011801B0010E01F001040150022F
:101D0000FA00B002F0003003E600D003DC009004DB
:101D1000D2007005C800A006BE000008B400B009DB
:101D2000AA00D00BA000600E960060118C00001578
:101D3000820020197800C01D6E00A0226400B02728
:101D40005A00902C500000314600E0343C0010381E
:101D50003200903A2800603C1E00A03D1400803EF6
:101D60000A00203F000070012C0190012701B00102
:101D70002201C0011D01F0011801100213013002FF
:101D80000E016002090190020401C002FF0000037D
:101D9000FA004003F5008003F000D003EB002004BC
:101DA000E6007004E100E004DC004005D700C00557
:101DB000D2004006CD00D006C8008007C30030081E
:101DC000BE00F008B900C009B400B00AAF00B00B03
:101DD000AA00D00CA500000EA000500F9B00C01060
:101DE00096005012910000148C00C0158700B017A7
:101DF0008200B0197D00D01B7800001E73004020C7
:101E00006E0090226900F024640040275F00902952
:101E10005A00E02B5500102E500020304B0010329D
:101E20004600E033410090353C00103737007038F1
:101E30003200A0392D00B03A2800A03B2300603CBE
:101E40001E00103D1900903D1400103E0F00703E22
:101E50000A00C03E0500003F0000403FFBFF803FFE
:101E6000F6FFC03FF1FF01290229042908291029A2
:101E7000202940298029012C022C01260226042633
:101E800008261026202640268026402C802C012360
:101E9000022304230823102320234023802301202E
:101EA0000220042008201020202040208020102C18
:101EB000202C012F022F042F082F102F202F402F0E
:101EC000802F7EFE7EFD7EFB7EF77EEF7EDF7EBF77
:101ED0007E7F00010000831F1200020000401F43AC
:101EE000000300003C1F0401030904221F18020321
:101EF00009040A1F1603030904FC1E0C0C0331001D
:101F00003200330034003500000016035500530042
:101F100042002000530065007200690061006C00FF
:101F2000000018035400650065006E00730079001E
:101F30006400750069006E006F000000040309046E
:101F400009024300020100C032090400000102023C
:101F500001000524001001052401000104240206EB
:101F6000052406000107058203080040090401005A
:101F7000020A000000070503024000000705840272
:101F80004000001201000202000020C0168304720B
:101F900002010203010001C1020180360181360005
:101FA0009679EFA611241FBECFEFD0E2DEBFCDBFE2
:101FB00012E0A0E0B1E0E8E1F3E601E00BBF02C00F
:101FC00007900D92A233B107D9F728E1A2E3B2E05E
:101FD00001C01D92AC3EB207E1F71FE0C2EDDFE0A9
:101FE00004C02197FE010E9464A7C03DD107C9F734
:101FF0000E94989F0C948AB10C94000090E0FC0120
:10200000EE0FFF1FE80FF91FE60FF11DEE0FFF1F88
:10201000EE0FFF1FEC51FD4F608171818281938132
:1020200008954F925F926F927F928F929F92AF929C
:10203000BF92CF92DF92EF92FF92CF936B017C0120
:1020400049015A0120E030E040EE51E40E9486A7A9
:102050002B013C012FE632E143E85AEB0E94A0A994
:1020600087FD3CC022E430E048E153E4C301B20103
:102070000E94FEA7181694F122E630E140E050ECF1
:10208000C501B4010E94A0A987FD28C022E430E068
:1020900048E153E4C501B4010E94FEA71816F4F00C
:1020A00024EF3DEF4FED51E4C701B6010E94A0A916
:1020B00087FD14C022E430E048E153E4C701B601D3
:1020C0000E94FEA7181654F0C1E02FE632E143E863
:1020D0005AEBC501B4010E94A0A987FDC0E08C2F76
:1020E000CF91FF90EF90DF90CF90BF90AF909F90F7
:1020F0008F907F906F905F904F900895AB01770F16
:10210000660B770B0C94E49ECF93DF931F92CDB7B1
:10211000DEB76983DC01ED91FC910280F381E02D53
:1021200041E050E0BE016F5F7F4F09950F90DF9156
:10213000CF9108952F923F924F925F926F927F922C
:102140008F929F92AF92BF92CF92DF92EF92FF92C7
:102150000F931F93CF93DF93CDB7DEB72E970FB6B4
:10216000F894DEBF0FBECDBF182FF62E042FA22E7F
:10217000282F30E03A872987862F90E09C878B872D
:10218000220F331FE985FA852E0F3F1F3E872D87CB
:10219000FC01E20FF31FEE0FFF1FEE0FFF1FEC51CC
:1021A000FD4F60817181828193819B01AC010E940E
:1021B00079AA882309F43EC16AE080EE98E1A4DFA1
:1021C000100F6F2D6A0D812F90E0DC01AA0FBB1F4D
:1021D000A80FB91FEB85FC85EA0FFB1FEE0FFF1F51
:1021E000EE0FFF1FEC51FD4FB080C180D280E38025
:1021F000100F812F90E0AC01440F551F480F591F5D
:10220000EB85FC85E40FF51FEE0FFF1FEE0FFF1FA0
:10221000EC51FD4FF080018112819380862F90E078
:10222000ED85FE85E80FF91FEE0FFF1FEE0FFF1F74
:10223000EC51FD4F80807180628053806A0D70E0A8
:102240002D853E85260F371F220F331F220F331F88
:102250002C513D4F3E872D87F90140803180A2806F
:102260002380A80FB91FAA0FBB1FAA0FBB1FAC5119
:10227000BD4FFC91F98311962C9111972A831296E8
:102280003C9112973B8313968C918C83FA01E60F55
:10229000F71FEE0FFF1FEE0FFF1FEC51FD4F908158
:1022A0009D8321812E8332813F83838188872F2DD7
:1022B000302F412F592D6F2D702F812F992D0E9476
:1022C00079AA882321F0F12C00E010E0912C2B2D2D
:1022D0003C2D4D2D5E2D6B2D7C2D8D2D9E2D0E9428
:1022E00079AA882319F0BF2C6801E92C242D332DFD
:1022F0004A2D522D642D732D8A2D922D0E9479AA7C
:10230000882321F0412C312CA12C212C282D372D74
:10231000462D552D682D772D862D952D0E9479AA55
:10232000882321F0842C732C6A2C522C2D813E8121
:102330004F8158856D817E818F8198850E9479AA11
:10234000882321F01D821E821F82188629813A81EE
:102350004B815C8169817A818B819C810E9479AA01
:10236000882341F09D819983EE81EA83FF81FB837D
:1023700028852C8389859A85880F991FE985FA8598
:102380008E0F9F1F2B853C85820F931F880F991FEF
:10239000880F991F8C519D4F9A8789872B2D3C2D33
:1023A0004D2D5E2D6B2D7C2D8D2D9E2D0E9487A792
:1023B0002F2D302F412F592D0E9486A76B017C01B4
:1023C000282D372D462D552D682D772D862D952DB1
:1023D0000E9487A7242D332D4A2D522D0E9486A7B7
:1023E0009B01AC01C701B6010E9487A76B017C016C
:1023F00029813A814B815C8169817A818B819C81C1
:102400000E9487A72D813E814F8158850E9486A713
:102410009B01AC01C701B6010E9487A720E030E014
:1024200040E450E40E9402A8E985FA856083718344
:10243000828393832E960FB6F894DEBF0FBECDBF76
:10244000DF91CF911F910F91FF90EF90DF90CF9090
:10245000BF90AF909F908F907F906F905F904F90C4
:102460003F902F900895FF920F931F93CF93DF9388
:10247000F82E092F162FE7E9F2E06491EF0121967B
:10248000662329F080EE98E13FDEFE01F6CFEF2DC6
:10249000F02F6491EF012196662329F080EE98E1F8
:1024A00033DEFE01F6CFE5E9F2E06491EF0121961B
:1024B000662329F080EE98E127DEFE01F6CF612F3A
:1024C00070E080EE98E11ADE6AE080EE98E1DF913C
:1024D000CF911F910F91FF9017CE0FB6F894809176
:1024E000D5189091D618A091D718B091D8180FBED2
:1024F0008093210390932203A0932303B09324039A
:10250000089580E1E5E8F9E0A5E7B9E001900D92D2
:102510008A95E1F708952F923F924F925F926F92C2
:102520007F928F929F92AF92BF92CF92DF92EF9263
:10253000FF920F931F93CF93DF93EB01FC018080F9
:102540009180A280B380C501B40120E831E541E06B
:1025500050E00E9426A7C9016DE671E00E9412A713
:102560006B017C01C501B40120E13EE040E050E098
:102570000E9426A7CA01B90128E130E040E050E0FE
:102580000E9426A7362E272E062F172F8CE3482EC3
:10259000512C612C712CC501B401A30192010E9440
:1025A00026A7B62EA72ECA01B901A30192010E9447
:1025B00026A7CB01C114D104D9F0AF92BF927F936B
:1025C0006F932F923F92FF92EF92DF92CF9284E32C
:1025D0009AE09F938F93DF93CF930E9496AE8DB72F
:1025E0009EB70E960FB6F8949EBF0FBE8DBF5CC00F
:1025F000E114F104C9F0AF92BF927F936F932F92D1
:102600003F92FF92EF9284E29AE09F938F93DF9341
:10261000CF930E9496AEEDB7FEB73C960FB6F894F6
:10262000FEBF0FBEEDBF40C0012BB9F0AF92BF920D
:102630007F936F932F923F9288E19AE09F938F93BD
:10264000DF93CF930E9496AE8DB79EB70A960FB6D2
:10265000F8949EBF0FBE8DBF27C0892BA9F0AF9203
:10266000BF927F936F9380E19AE09F938F93DF9364
:10267000CF930E9496AEEDB7FEB738960FB6F8949A
:10268000FEBF0FBEEDBF10C0AF92BF928CE09AE0CC
:102690009F938F93DF93CF930E9496AE0F900F90EE
:1026A0000F900F900F900F90DF91CF911F910F918E
:1026B000FF90EF90DF90CF90BF90AF909F908F9062
:1026C0007F906F905F904F903F902F90089581542E
:1026D0008A3108F041C0E82FF0E04091BD095091E7
:1026E000BE096091BF097091C00904C076956795D5
:1026F000579547958A95D2F7842F817040FF33C054
:10270000ED55F64F9081992301F1E091C809F091C0
:10271000C909E90FF11D908120ED290F2A3080F0C1
:102720009E3229F4918190539A3078F409C09D32F9
:1027300011F09B3251F4918120ED290F2A3018F4C9
:102740002E2F9F2F04C09E3249F020E090E020936E
:10275000C4099093C509089580E00895928190532B
:102760009A3098F7EDCF0895B2DF882341F081E0E9
:102770002091C4093091C509232B09F480E0089504
:102780000F931F93CF938091C4099091C50900972F
:1027900011F1FC018F01C1912C2F2F7DA9F0C534BF
:1027A00011F0C536B9F7F801108260E070E0809151
:1027B000C4099091C5090E9484AAF801C083562FCC
:1027C000472F382F292F0BC060E070E0CF911F9169
:1027D0000F910C9484AA50E040E030E020E0652F97
:1027E000742F832F922FCF911F910F910895809175
:1027F000C4099091C509009731F04AE050E060E0CB
:1028000070E00C94D7AB60E070E0CB01089580914C
:10281000C4099091C509009731F04AE050E060E0AA
:1028200070E00C9402AD60E070E0CB010895DFDF52
:1028300097FD0AC0DCDF6F3F71058105910509F046
:102840002CF4D5DF862F089580E008958FEF08954A
:102850008091C4099091C509892B31F0E8DF91E09E
:10286000811103C090E001C091E0892F08950F937A
:102870001F93CF93DF93CDB7DEB72C970FB6F894A5
:10288000DEBF0FBECDBFE5E8F9E080859185A2856A
:10289000B3854481558166817781008111812281D0
:1028A000338109871A872B873C874D835E836F832B
:1028B000788789839A83AB83BC83AE014F5F5F4F78
:1028C000BE016B5F7F4FCE0109960E94636921E9CB
:1028D00039E0AE014F5F5F4FBE016B5F7F4FCE01AE
:1028E00009960E9456772C960FB6F894DEBF0FBE5D
:1028F000CDBFDF91CF911F910F9108952F923F92FD
:102900004F925F926F927F929F92AF92BF92CF92BF
:10291000DF92EF92FF920F931F93CF93DF93CDB788
:10292000DEB764970FB6F894DEBF0FBECDBF1A01B5
:102930002B01922EF32EC82ED12CF601E354F64F24
:10294000E491AA24A3941E160CF4A12CBB24B394E6
:1029500020E030E0A901C201B1010E94A0A918162F
:102960000CF0B12CCC0CDD1CCC0CDD1CC6018B5743
:10297000964F3C01FC01108211821282138277DF94
:10298000F3012082318242825382E090290320E0C9
:1029900030E0A901B801892D9F2D0E94FEA7811169
:1029A0000AC0F601E450F64F85919591A591B49136
:1029B0008C019A2EFB2EC801A92DBF2D898B9A8BD5
:1029C000AB8BBC8B80918D0990918E09A0918F0962
:1029D000B09190094091890950918A0960918B09C1
:1029E00070918C09009185091091860920918709C1
:1029F000309188090D871E872F87388B49875A8722
:102A00006B877C878D839E83AF83B88719821A82F8
:102A10001B821C82AE014B5F5F4FBE01675F7F4F21
:102A2000CE010D960E946369CE0101966C018E0164
:102A30000F5E1F4F21E939E0AE014B5F5F4FBE01D2
:102A4000675F7F4F0C960E9473760E94766AAB1088
:102A50000E94935D64960FB6F894DEBF0FBECDBFA3
:102A6000DF91CF911F910F91FF90EF90DF90CF906A
:102A7000BF90AF909F907F906F905F904F903F90EE
:102A80002F90089561E979E083E00C947C78CF93EE
:102A9000DF9300D0CDB7DEB72091D2183091D31894
:102AA000CE0101962115310529F48C5E98419A8357
:102AB000898304C0821B930B9A83898389819A81BD
:102AC0000F900F90DF91CF910895FF920F931F9376
:102AD000CF93DF93FC0120812B3319F1D0916A0948
:102AE000D031F8F4F62EBC01C09168090C2F10E02B
:102AF000F0E6CF9FC001112488599C4F0E9476AE0A
:102B0000F801E853FD4FF082CF5FC03118F4C09355
:102B1000680902C010926809DF5FD0936A0981E0FA
:102B200001C080E0DF91CF911F910F91FF90089538
:102B3000EF92FF921F93CF93DF937C0160E0C5DF9C
:102B4000182F8823C9F0EFE6F1E16491EF01219697
:102B5000662329F080EE98E1D7DAFE01F6CFB701BF
:102B600083E993E00E945C7F62E280EE98E1CCDA38
:102B70006AE080EE98E1C8DA812FDF91CF911F9152
:102B8000FF90EF900895DF92EF92FF920F931F93C3
:102B9000CF93DF93CDB7DEB76E970FB6F894DEBF55
:102BA0000FBECDBF6091660370916703611571051B
:102BB00041F14DE150E0CE0101967C010E942CAE26
:102BC0001E8EF7018F010E191F09D190DD2019F01B
:102BD0009AE0D912F7CFF701E00FF11F1082C70179
:102BE000A7DF882371F0DD20A9F00F5F1F4F8091D0
:102BF000660390916703080F191F109367030093F2
:102C0000660381E02091660330916703232B29F44A
:102C100080E003C000E010E0F0CF6E960FB6F894AD
:102C2000DEBF0FBECDBFDF91CF911F910F91FF90FF
:102C3000EF90DF900895EF92FF920F931F93CF9341
:102C4000DF937C0184E590DDD82F882369F1EFDDE7
:102C5000C82F18162CF5EFE6F1E164918F010F5F94
:102C60001F4F662329F080EE98E14EDAF801F5CF88
:102C70006DE480EE98E148DAA70160E070E020E0C2
:102C800080EE98E10E94789E6C2FCC0F770B80E845
:102C900093E00E94DD7E6AE080EE98E135DA08C0BC
:102CA00080931C03D0E004C08091290380931C030F
:102CB0008D2FDF91CF911F910F91FF90EF9008958D
:102CC0000F931F93CF93DF9394E0899FE00111242A
:102CD0008E01085C1C4FFE01EC5BFC4FDE01A05B2B
:102CE000BC4F2D913D914D915C91608171818281AC
:102CF00093810E9487A7F801608371838283938305
:102D0000FE01E051F64F85919591A591B491FE0198
:102D1000E45DFC4F80839183A283B383FE01EC5179
:102D2000F64F85919591A591B491CB5EDE4F888346
:102D30009983AA83BB83DF91CF911F910F9108954F
:102D4000CF92DF92EF920F931F93CF93DF93CDB784
:102D5000DEB760970FB6F894DEBF0FBECDBFE09030
:102D60002903E5E8F9E080859185A285B385448152
:102D700055816681778100811181228133810D87A0
:102D80001E872F87388B49875A876B877C878D836F
:102D90009E83AF83B88719821A821B821C82AE0180
:102DA0004B5F5F4FBE01675F7F4FCE010D960E9464
:102DB0006369CE0101966C0103E211E021E939E07B
:102DC000AE014B5F5F4FBE01675F7F4F0C960E9465
:102DD000737660960FB6F894DEBF0FBECDBFDF915D
:102DE000CF911F910F91EF90DF90CF9008958F9228
:102DF0009F92AF92BF92CF92DF92EF920F931F9369
:102E0000CF93DF93CDB7DEB760970FB6F894DEBFF0
:102E10000FBECDBF8C01E0902903E5E7F9E0808586
:102E20009185A285B38544815581668177818080B3
:102E30009180A280B3808D869E86AF86B88A4987AE
:102E40005A876B877C878D839E83AF83B88719826F
:102E50001A821B821C82AE014B5F5F4FBE01675F0F
:102E60007F4FCE010D960E946369CE0101966C01E1
:102E700021E839E0AE014B5F5F4FBE01675F7F4FD6
:102E80000C960E94737660960FB6F894DEBF0FBE64
:102E9000CDBFDF91CF911F910F91EF90DF90CF9039
:102EA000BF90AF909F908F9008953F924F925F9206
:102EB0006F927F928F929F92AF92BF92CF92DF924A
:102EC000EF92FF920F931F93CF93DF93CDB7DEB7AF
:102ED0002A970FB6F894DEBF0FBECDBF2B013C0181
:102EE0002D833E834F83588747015801DA86C98670
:102EF0008091230190912401A0912501B091260198
:102F000089839A83AB83BC83D601EC901196FC90A5
:102F1000119712960C91129713961C9120E030E0B5
:102F2000A901B701C8010E94FEA7811108C0E4E011
:102F3000FAE085919591A591B4917C018D01A5014F
:102F4000940160918D0970918E0980918F09909103
:102F500090090E94FEA787FF13C0C701D801809384
:102F6000230190932401A0932501B0932601809220
:102F70008D0990928E09A0928F09B0929009E0DE9F
:102F8000E985FA85D080C1803280F381F98720E01D
:102F900030E0A9016D2D7C2D832D9F2F0E94FEA76F
:102FA000811109C0D0900B01C0900C0130900D012F
:102FB00080910E0189878D2D9C2DA32DB98580933D
:102FC000230190932401A0932501B0932601409200
:102FD00085095092860960928709709288098D81CF
:102FE0009E81AF81B8858093890990938A09A093C7
:102FF0008B09B0938C09A4DE20918D0930918E0944
:1030000040918F0950919009C501B4010E94FEA71B
:1030100087FF13C0C701D801809323019093240137
:10302000A0932501B093260180928D0990928E097C
:10303000A0928F09B092900983DE0E94766A8981FE
:103040009A81AB81BC818093230190932401A0934A
:103050002501B09326012A960FB6F894DEBF0FBE65
:10306000CDBFDF91CF911F910F91FF90EF90DF9037
:10307000CF90BF90AF909F908F907F906F905F9018
:103080004F903F900895CF92DF92EF92FF920F936F
:103090001F936B01FC01E080F18002811381E5E860
:1030A000F9E0248135814681578160817181828177
:1030B0009381FBDE1F910F91FF90EF90DF90CF90F7
:1030C0000895CF92DF92EF92FF920F931F936A01C0
:1030D000E0908D09F0908E0900918F091091900970
:1030E000FB012081318142815381FC01608171812A
:1030F00082819381DADE1F910F91FF90EF90DF9034
:10310000CF9008958091230190912401A0912501F1
:10311000B09126018093620390936303A0936403AC
:10312000B0936503809121019091220190936103F6
:103130008093600384E690E09093220180932101C4
:1031400008958091620390916303A0916403B0910C
:1031500065038093230190932401A0932501B093EC
:1031600026018091600390916103909322018093E6
:1031700021010895FF920F931F93CF93DF9388232C
:1031800029F0D0917409D095D17001C0D0E06623A8
:1031900041F0809174098695817091E0F82EF926AE
:1031A00001C0F12C442341F0C0917409C2FB88276F
:1031B00080F9C1E0C82701C0C0E0D11102C0FF20E2
:1031C00019F0EFE6F1E108C0C111FBCF58C080EE65
:1031D00098E10E948410F80164918F010F5F1F4FE6
:1031E0006111F5CFEAE7F3E064918F010F5F1F4FA4
:1031F000662331F080EE98E10E948410F801F4CF4C
:10320000DD2371F0E8E7F3E064918F010F5F1F4F5A
:10321000662331F080EE98E10E948410F801F4CF2B
:10322000FF2071F0E6E7F3E064918F010F5F1F4F1D
:10323000662331F080EE98E10E948410F801F4CF0B
:10324000CC2319F0E4E7F3E003C0ECE6F3E00BC0B5
:103250006491EF0121966623C1F380EE98E10E940C
:103260008410FE01F5CF6491EF012196662331F0C1
:1032700080EE98E10E948410FE01F5CFC1E08C2F12
:10328000DF91CF911F910F91FF900895BF92CF9240
:10329000DF92EF92FF920F931F93CF93DF93CDB7FF
:1032A000DEB728970FB6F894DEBF0FBECDBF909162
:1032B0009D09981709F47AC0B82E882309F453C0E1
:1032C00080E090E0A0E8B0E48D839E83AF83B88770
:1032D000C0901803D0901903E0901A03F0901B03DC
:1032E00020E030E0A901C701B6010E94FEA787FFD8
:1032F0000CC0A701960160E070E080E890E40E94B5
:1033000086A76D837E838F83988720E030E048E135
:1033100053E46D817E818F8198850E94A0A9181643
:1033200044F480E090E0A8E1B3E48D839E83AF8312
:10333000B8872D813E814F81588560918D097091AC
:103340008E0980918F09909190090E94FEA787FFB6
:103350000AC019821A821B821C82BE016F5F7F4FD6
:10336000CE01059690DE6091850970918609809165
:103370008709909188092091890930918A094091A3
:103380008B0950918C0919821A821B821C82E09051
:103390008D09F0908E0900918F0910919009FE011E
:1033A00031966F0182DD8B2D0E949E5D80E0289614
:1033B0000FB6F894DEBF0FBECDBFDF91CF911F9146
:1033C0000F91FF90EF90DF90CF90BF9008954F92B4
:1033D0005F926F927F928F929F92AF92BF92CF92A5
:1033E000DF92EF92FF920F931F93CF93C82FE82E97
:1033F000F12CF701E354F64FB490823021F481E0D0
:1034000045DF811110C16701CC0CDD1CCC0CDD1C2B
:10341000F601E453F64F45905590659074906B2DEE
:10342000BB0C770B880B990B0E949DA84B015C018C
:1034300020E030E040EC5FE3C301B2010E94D4A978
:10344000A50194010E94D4A9AB01BC0100E010E0E9
:1034500098018C2F53DAC23061F0F601E054F64F38
:1034600085919591A591B491E82F792F6A2F8B2F93
:1034700004C0E0E070E060E480E42E2F372F462F98
:10348000582FC501B4010E94D4A94B015C0120E072
:1034900030E0A9010E94FEA7882309F45DC0C23074
:1034A00021F000E010E0980104C000E010E020E806
:1034B00030E4B501A40170588C2F20DAC23009F431
:1034C0003AC0F701E754F74F649161111FC0EFE66E
:1034D000F1E164917F018FEFE81AF80A662331F079
:1034E00080EE98E10E948410F701F3CFE7E9F8E05D
:1034F00064917F018FEFE81AF80A662331F080EEBD
:1035000098E10E948410F701F3CF6AE0F601E450DD
:10351000F64F459055906590749070E080E090E093
:103520000E949DA89B01AC01C301B2010E9402A8A8
:103530002B013C0105C0412C512C612C90E4792ECB
:10354000A5019401C501B4010E9487A7AB01BC018C
:10355000930182018C2FD2D981E090E00C2E01C022
:10356000880F0A94EAF790917309982B9093730946
:1035700090917409892B80937409F601E05BFC4FEC
:1035800010821182128213828C2F9ADBF601E8528C
:10359000F64F85919591A591B491F601EB57F64FB1
:1035A00080839183A283B383C230D1F42091180326
:1035B0003091190340911A0350911B0360918D09BA
:1035C00070918E0980918F09909190090E9486A731
:1035D00060938D0970938E0980938F099093900961
:1035E00046D9F601EB58F64FD601AB57B64F8D9141
:1035F0009D910D90BC91A02D80839183A283B38374
:10360000C23089F480E0CF911F910F91FF90EF902D
:10361000DF90CF90BF90AF909F908F907F906F90F2
:103620005F904F9033CECF911F910F91FF90EF900D
:10363000DF90CF90BF90AF909F908F907F906F90D2
:103640005F904F90089581E020911403309115030D
:10365000232B09F480E008953F924F925F926F927E
:103660007F928F929F92AF92BF92CF92DF92EF9212
:10367000FF920F931F93CF93DF93882EE62E942E05
:103680006901A82EB12CC0E0D0E0042F10E00E5F3D
:103690001F4FCA15DB05E1F0F12C2F2D30E081E042
:1036A00090E0CA3010F080E090E0800F911F281762
:1036B00039073CF460E280EE98E10E948410F394B4
:1036C000ECCFBE0180EE98E10E947E102196E1CF02
:1036D0006AE080EE98E10E948410F12CC0E0D0E016
:1036E000A92CB12C82E0A80EB11C3C2ECE15DF0512
:1036F00009F452C0E9E0EC1728F060E280EE98E1AE
:103700000E948410BE0180EE98E10E947E1010E0BD
:103710001815D9F160E280EE98E10E948410632DC3
:10372000812FF60109952B013C019B01AC010E9400
:1037300079AA882311F000E01EC020E030E0A90142
:10374000C301B2010E94A0A987FD05C06BE280EE13
:1037500098E10E948410292DB301A20180EE98E126
:103760000E94F19E10C001110CC060E280EE98E151
:103770000E9484100F5F802F90E0A816B9069CF776
:1037800002C06DE3F3CF1F5FC3CF6AE080EE98E124
:103790000E9484102196A9CF6AE080EE98E1DF9123
:1037A000CF911F910F91FF90EF90DF90CF90BF903E
:1037B000AF909F908F907F906F905F904F903F90D1
:1037C0000C948410CF93DF93E9ECF2E06491EF0165
:1037D0002196662331F080EE98E10E948410FE016C
:1037E000F5CF2EEF3FE043E063E083E0DF91CF9140
:1037F00033CFCF92DF92EF92FF92609114037091DA
:103800001503072E000C880B990B0E949DA86B01D5
:103810007C012DEB37E346E855EB0E94A0A987FD1C
:103820000AC02DEB37E346E855E3C701B6010E9415
:10383000FEA718164CF4A701960160E070E080E83E
:103840009FE30E9402A803C060E070E0CB01609398
:1038500008037093090380930A0390930B0360910C
:10386000160370911703072E000C880B990B0E940A
:103870009DA86B017C012DEB37E346E855EB0E94D8
:10388000A0A987FD0AC02DEB37E346E855E3C70141
:10389000B6010E94FEA718164CF4A701960160E03D
:1038A00070E080E89FE30E9402A803C060E070E03F
:1038B000CB0160930C0370930D0380930E039093E0
:1038C0000F03FF90EF90DF90CF9008959F92AF92FB
:1038D000BF92CF92DF92EF92FF920F931F93CF93FD
:1038E000DF938FE0A82E82E0B82E05E719E0C5E847
:1038F000D9E098E3C92E93E0D92E2CE5E22E23E0FF
:10390000F22E912CF50181915F010E9467138823AB
:1039100009F10E94C013F7012081211104C02091F8
:103920002803222339F0288139814A815B810E9452
:1039300087A70AC0F3E09F1639F0F6012081318194
:10394000428153810E9486A7F8016083718382833C
:10395000938309C088819981AA81BB81F801808302
:103960009183A283B38393940C5F1F4F2496F4E05A
:10397000CF0ED11C2FEFE21AF20A84E09812C2CFC8
:1039800086E40E94B4138823C9F00E94C01320E08B
:1039900030E0A9010E94A0A9181684F40E94C01367
:1039A00020E030E040E752E40E9402A86093230147
:1039B000709324018093250190932601DF91CF918C
:1039C0001F910F91FF90EF90DF90CF90BF90AF903D
:1039D0009F900895CF92DF92EF92FF920F931F93E3
:1039E000CF93DF930FB6F894C090D518D090D61827
:1039F000E090D718F090D8180FBE8091270381115E
:103A000074C080910A01882309F46FC08091C702B5
:103A1000882309F46AC04091C3025091C4026091A6
:103A2000C5027091C60297018601041B150B260B77
:103A3000370B37FD6DC0833031F134F481300CF435
:103A400054C0EFE6F1E106C0843009F04EC0EFE665
:103A5000F1E133C06491EF012196662331F080EEED
:103A600098E10E948410FE01F5CFE8E3F3E0649151
:103A7000EF012196662309F438C080EE98E10E9498
:103A80008410FE01F4CFEFE6F1E16491EF0121969D
:103A9000662331F080EE98E10E948410FE01F5CF9C
:103AA000E1E2F3E06491EF0121966623F1F080EE0C
:103AB00098E10E948410FE01F5CF6491EF012196F8
:103AC000662331F080EE98E10E948410FE01F5CF6C
:103AD000E9E0F3E06491EF012196662331F080EE96
:103AE00098E10E948410FE01F5CF20910A0130E098
:103AF000A8EEB3E00E946DA7C60ED71EE81EF91E01
:103B0000C092C302D092C402E092C502F092C602F3
:103B1000DF91CF911F910F91FF90EF90DF90CF90A9
:103B200008950F931F93CF93DF9300D000D0CDB7AC
:103B3000DEB78091730983708330E9F0EFE6F1E13D
:103B400064918F010F5F1F4F662331F080EE98E183
:103B50000E948410F801F4CFE8E8F8E064918F0146
:103B60000F5F1F4F662309F43EC080EE98E10E946C
:103B70008410F801F3CF0E94371480E090E0A8E9A8
:103B8000B2E48093790990937A09A0937B09B0936A
:103B90007C0980918D0990918E09A0918F09B09137
:103BA000900980937D0990937E09A0937F09B0933B
:103BB000800980E090E0A0E4B2E4809375099093DE
:103BC0007609A0937709B093780919821A821B822B
:103BD0001C82AE014F5F5F4F69E779E085E799E0AE
:103BE00070DA82E0F4DB0F900F900F900F90DF916E
:103BF000CF911F910F9108950F931F93CF93DF9350
:103C0000CDB7DEB769970FB6F894DEBF0FBECDBF54
:103C10000E945B8D6E8B7F8B888F998FBE016F5F4B
:103C20007F4FCE0146960E948B12EFE6F1E1649140
:103C30008F010F5F1F4F662331F080EE98E10E94E5
:103C40008410F801F4CFBE016F5F7F4F8AEB97E0DD
:103C50000E945C7F6AE080EE98E10E948410699681
:103C60000FB6F894DEBF0FBECDBFDF91CF911F918D
:103C70000F910895CF93DF93E5E7F1E16491EF01B0
:103C80002196662331F080EE98E10E948410FE01B7
:103C9000F5CFEBEAF7E06491EF012196662331F06E
:103CA00080EE98E10E948410FE01F5CFDF91CF9164
:103CB00008950F931F93CF9383E50E94B413882335
:103CC00009F440C00E941714082F80E50E94B41325
:103CD0008823C1F10E941714C82F87FD33C089E4DF
:103CE0000E94B413882339F00E942814811112C055
:103CF000ECE9F2E00BC089E40E94671381110AC06D
:103D0000F7CF319682E0E93CF80721F08491C8139F
:103D1000F8CF14C08C2F0E94F29FEC2FF0E0002E01
:103D20000E9497A010E0B8018C2F0E9403A0C03120
:103D300049F410932B0300932A0304C0CF911F91E1
:103D40000F9198CFCF911F910F910895CF93DF934B
:103D500088E690E00E941B1681112EC08091950983
:103D600083FD2AC083E50E94B413882309F10E94D1
:103D7000C013C0915201D09153012F970E946AA89D
:103D80009E016C177D070CF49B013093CA18209399
:103D9000C91880E00E948D920E94C01320E030E09C
:103DA0004AEA52E40E94FEA7181614F00E94048DFD
:103DB000DF91CF910C946679DF91CF910895CF92E6
:103DC000DF92EF92FF9283E50E94B413882321F1E2
:103DD0000E9417148D3308F08CE3809345180FB6BA
:103DE000F894C090D518D090D618E090D718F090DD
:103DF000D8180FBE282F30E0A8EEB3E00E946DA7C0
:103E0000C60ED71EE81EF91EC0924118D092421865
:103E1000E0924318F0924418FF90EF90DF90CF901B
:103E2000089580E50E94B413811106C083E50E94C5
:103E3000B413882359F005C00E94171481110CC0D7
:103E4000F5CF0E94F7136F3F710510F06FEF70E030
:103E500070932B0360932A030895DF92EF92FF92F1
:103E60000F931F93CF93DF9383E50E9467138823FB
:103E700059F083E50E94B413882319F00E941714A7
:103E800001C080E080939509EFE6F1E16491EF01D4
:103E90002196662331F080EE98E10E948410FE01A5
:103EA000F5CFE0E6F7E06491EF012196662331F06B
:103EB00080EE98E10E948410FE01F5CF8091950973
:103EC0008823A9F187E6E82E87E0F82E00E010E0CD
:103ED00020E08091950990E0002E02C0959587958D
:103EE0000A94E2F780FF1AC0DD24D394D20E222375
:103EF00029F06CE280EE98E10E948410F701859130
:103F00009491FC016491EF012196662331F080EEDB
:103F100098E10E948410FE01F5CF2D2D0F5F1F4FF9
:103F200082E0E80EF11C0530110599F60DC0ECE5B4
:103F3000F7E06491EF012196662331F080EE98E17D
:103F40000E948410FE01F5CF6AE080EE98E1DF91D7
:103F5000CF911F910F91FF90EF90DF900C94841000
:103F6000CF93DF9383E50E94B413882351F00E941E
:103F700017148D3308F08CE380930A01DF91CF9101
:103F80000895EFE6F1E16491EF012196662331F0A7
:103F900080EE98E10E948410FE01F5CF40910A0165
:103FA00050E060E070E085E597E00E943B7F6AE0CA
:103FB00080EE98E1DF91CF910C9484104F925F9244
:103FC0006F927F92AF92BF92CF92DF92EF92FF9269
:103FD0000F931F93CF938FE0A82E82E0B82E0AE5AF
:103FE0001AE0C0E0F50181915F010E946713882308
:103FF00009F46DC0C33009F063C00E94C0136B01A7
:104000007C0120E030E040EA51E40E94FEA787FFF7
:104010004EC0A70196016091660A7091670A80916F
:10402000680A9091690A0E9402A82B013C019B0139
:10403000AC016091320A7091330A8091340A9091F8
:10404000350A0E94D4A96093320A7093330A809390
:10405000340A9093350AA30192016091760A709117
:10406000770A8091780A9091790A0E94D4A9609386
:10407000760A7093770A8093780A9093790A609110
:104080008A0A70918B0A80918C0A90918D0A0E9405
:104090009BA8A30192010E94D4A90E946FA86093DB
:1040A0008A0A70938B0A80938C0A90938D0AC0922F
:1040B000660AD092670AE092680AF092690A07C01D
:1040C0000E94C013F8016083718382839383CF5F62
:1040D0000C5F1F4FC43009F085CFCF911F910F9116
:1040E000FF90EF90DF90CF90BF90AF907F906F9058
:1040F0005F904F900C9442790F931F93CF93DF936F
:10410000C5E8D9E008E313E0F8012081318142815C
:104110005381688179818A819B810E9487A7AB0145
:10412000BC0180E093E00E941A7FF8012481358170
:10413000468157816C817D818E819F810E9487A7F6
:10414000AB01BC018CEF92E00E941A7FF801208540
:10415000318542855385688579858A859B850E944E
:1041600087A7AB01BC0188EF92E00E941A7F4C85C3
:104170005D856E857F8584EF92E00E941A7FDF91D6
:10418000CF911F910F910C94638C2F923F924F927D
:104190005F926F927F928F929F92AF92BF92CF92D7
:1041A000DF92EF92FF920F931F93CF93DF938FE0F5
:1041B000882E82E0982EC0E5D3E095E8A92E99E0FC
:1041C000B92E08E313E0312C212CF40181914F0129
:1041D0000E94B413882309F44AC00E94C0136B01E3
:1041E0007C01F3E03F1649F0F801208131814281E2
:1041F00053810E9486A76B017C01F50120813181EA
:1042000042815381C701B6010E9486A72B013C0160
:104210002DEB37E346E855EB0E94A0A987FD0AC0C5
:104220002DEB37E346E855E3C301B2010E94FEA738
:104230001816ECF4F3E03F120BC0C0929109D09233
:104240009209E0929309F0929409222423940FC0DA
:10425000A3019201688179818A819B810E9487A74D
:10426000688379838A839B83832D0E9460163394AD
:10427000249684E0A80EB11C0C5F1F4FE4E03E12B0
:10428000A4CF21100E944215DF91CF911F910F9171
:10429000FF90EF90DF90CF90BF90AF909F908F9066
:1042A0007F906F905F904F903F902F9025CFCF934E
:1042B000DF93EDE7F6E06491EF012196662331F09C
:1042C00080EE98E10E948410FE01F5CF60E08DE65B
:1042D00096E00E94331261E086E696E00E94331277
:1042E00061E08BE596E00E94331261E08BE496E09A
:1042F0000E94331260E082E496E00E94331261E093
:1043000088E396E00E94331261E08EE296E00E941C
:10431000331261E086E296E00E94331261E088E1A8
:1043200096E00E94331260E08AE096E00E94331229
:1043300060E08BEF95E00E94331260E08DEE95E037
:104340000E94331260E087ED95E00E94331260E036
:1043500086EC95E00E94331260E081EB95E00E94CC
:10436000331261E08EE995E0DF91CF910C94331226
:10437000CF92DF92EF92FF92CF9388EC90E00E9471
:104380001B1681114EC084E40E946713882309F430
:1043900041C00E94C0136B017C01C1E020E030E00D
:1043A000A9010E94FEA7811101C0C0E0C093CA0903
:1043B00020E030E0A901C701B6010E94FEA78823D2
:1043C00049F10E94C013E0911C0324E0E29FF00138
:1043D0001124EE5DF54F608371838283938320E027
:1043E00030E0A9016091220A7091230A8091240A89
:1043F0009091250A0E94FEA781110CC080E090E0F8
:10440000A0EEBFE38093220A9093230AA093240A8C
:10441000B093250ACF91FF90EF90DF90CF900C944E
:10442000FE68CF91FF90EF90DF90CF900895CF93EB
:1044300083E50E94B4138823A1F00E94C013609307
:10444000420A7093430A8093440A9093450A60930A
:104450003A0A70933B0A80933C0A90933D0AC0E06D
:1044600001C0C1E080E50E94B413882359F00E9486
:10447000C0136093420A7093430A8093440A909356
:10448000450AC0E082E50E94B413882359F00E94D7
:10449000C01360933E0A70933F0A8093400A909342
:1044A000410AC0E084E50E94B413882359F00E94B9
:1044B000C01360933A0A70933B0A80933C0A90932E
:1044C0003D0A2CC0CC2351F14091420A5091430A3D
:1044D0006091440A7091450A8AE895E00E941A7F2B
:1044E00040913E0A50913F0A6091400A7091410A02
:1044F00087E895E00E941A7F40913A0A50913B0A62
:1045000060913C0A70913D0A84E895E00E941A7F10
:104510006AE080EE98E1CF910C948410CF910895D9
:10452000CF93DF9381E50E946713882351F00E94A7
:10453000071460937A0A70937B0A80937C0A9093A5
:104540007D0A83E50E946713882351F00E94C013FF
:104550006093460A7093470A8093480A9093490AE9
:1045600084E50E946713882351F00E94C013609372
:10457000360A7093370A8093380A9093390A88E58F
:104580000E946713882351F00E94C0136093260A8B
:104590007093270A8093280A9093290A89E50E943C
:1045A0006713882351F00E94C01360932A0A709306
:1045B0002B0A80932C0A90932D0A8AE50E94671398
:1045C0008823F9F00E94C01360932E0A70932F0A7B
:1045D0008093300A9093310A2DEC3CEC4CEC5DE377
:1045E0000E94FEA718166CF0E2E5F5E06491EF0179
:1045F0002196662331F080EE98E10E948410FE013E
:10460000F5CF85E40E946713882351F00E94C01300
:104610006093320A7093330A8093340A9093350A78
:10462000DF91CF910895CF93DF93EFE6F1E16491AD
:10463000EF012196662331F080EE98E10E9484100C
:10464000FE01F5CF83E50E946713882321F00E94C5
:10465000281480931401E2E4F5E06491EF012196BF
:10466000662331F080EE98E10E948410FE01F5CFC0
:1046700080911401811103C0EAE3F5E002C0EEE38A
:10468000F5E06491EF012196662331F080EE98E128
:104690000E948410FE01F5CFE2E3F5E06491EF01A2
:1046A0002196662331F080EE98E10E948410FE018D
:1046B000F5CF209138033091390340913A0350915E
:1046C0003B0360912C0370912D0380912E039091F8
:1046D0002F030E9487A7AB01BC0180E395E00E94F5
:1046E0001A7F20913C0330913D0340913E0350914D
:1046F0003F036091300370913103809132039091B8
:1047000033030E9487A7AB01BC018DE295E00E94B4
:104710001A7F209140033091410340914203509110
:104720004303609134037091350380913603909177
:1047300037030E9487A7AB01BC018AE295E00E9483
:104740001A7FE2E2F5E06491EF012196662331F0F1
:1047500080EE98E10E948410FE01F5CF209138038D
:104760003091390340913A0350913B036091150118
:104770007091160180911701909118010E9487A7EE
:10478000AB01BC0180E295E00E941A7F20913C03BE
:1047900030913D0340913E0350913F0360911901D8
:1047A00070911A0180911B0190911C010E9487A7B2
:1047B000AB01BC018DE195E00E941A7F209140037E
:1047C00030914103409142035091430360911D0198
:1047D00070911E0180911F01909120010E9487A776
:1047E000AB01BC018AE195E00E941A7F6AE080EE8D
:1047F00098E1DF91CF910C9484100F931F93CF9386
:10480000DF938DED90E00E941B16811170C083E54F
:104810000E94B4138823B9F1C0911C03D0E00E9418
:10482000F713CC0FDD1FC45CDE4F79836883809162
:104830001C0390E0EC01CC0FDD1FCC0FDD1F8E01BF
:10484000085C1E4F880F991FFC01E45CFE4F6081DD
:104850007181072E000C880B990B0E949DA82AE0FD
:1048600037ED43E25CE30E94D4A9C25ED54F2881B4
:1048700039814A815B810E94D4A9F80160837183E8
:104880008283938334C0EFE6F1E16491EF012196D6
:10489000662331F080EE98E10E948410FE01F5CF8E
:1048A00065E480EE98E10E94841060911C03605DD5
:1048B00080EE98E10E948410E0911C03F0E0EE0F7E
:1048C000FF1FE45CFE4F6081718182E195E00E94F0
:1048D000DD7E65E280EE98E10E9484106AE080EE61
:1048E00098E1DF91CF911F910F910C948410DF918B
:1048F000CF911F910F910895CF93DF938AE50E9486
:10490000B413811105C083E50E94B4138823D1F14B
:104910000E94C01320E030E040E050EC0E94FEA76F
:1049200087FD12C00E94C01320E030E040E050E458
:104930000E94A0A918161CF00E94C01309C060E0D4
:1049400070E080E090E404C060E070E080E090EC13
:104950002091730922FF16C0C0918418D091851848
:104960002091620A3091630A4091640A5091650A6D
:104970000E94D4A90E946AA86C0F7D1F70938518AD
:1049800060938418DF91CF910895CF93DF9385E4EE
:104990000E94B413811110C080E50E946713882320
:1049A00091F00E94C01360938E1870938F188093BB
:1049B00090189093911807C00E941714882361F3F0
:1049C000E5E7F1E172C089E40E946713882381F072
:1049D0000E94C0132CEA35EC47E25EE30E94D4A9A2
:1049E00060938A1870938B1880938C1890938D180D
:1049F00084E40E946713882381F00E94C0132CEA8C
:104A000035EC47E25EE30E9402A86093861870933B
:104A100087188093881890938918EFE6F1E16491E4
:104A2000EF012196662331F080EE98E10E94841018
:104A3000FE01F5CF40918E1850918F18609190181B
:104A4000709191188EE095E00E941A7F2CEA35EC67
:104A500047E25EE360918A1870918B1880918C1800
:104A600090918D180E9402A8AB01BC018AE095E0EC
:104A70000E941A7F2CEA35EC47E25EE360918618CB
:104A80007091871880918818909189180E94D4A9F4
:104A9000AB01BC0186E095E00E941A7F6AE080EEDF
:104AA00098E1DF91CF910C9484106491EF012196ED
:104AB000662331F080EE98E10E948410FE01F5CF6C
:104AC000E4EFF4E06491EF012196662331F080EE8B
:104AD00098E10E948410FE01F5CFDF91CF910895F7
:104AE000CF93DF9380E50E946713882351F00E94E3
:104AF000C0136093B4187093B5188093B618909350
:104B0000B71889E40E946713882381F00E94C013BC
:104B10002CEA35EC47E25EE30E94D4A96093B0181A
:104B20007093B1188093B2189093B31884E40E94E4
:104B30006713882381F00E94C0132CEA35EC47E20A
:104B40005EE30E9402A86093AC187093AD18809346
:104B5000AE189093AF18EFE6F1E16491EF01219662
:104B6000662331F080EE98E10E948410FE01F5CFBB
:104B70004091B4185091B5186091B6187091B7185B
:104B800080EF94E00E941A7F2CEA35EC47E25EE366
:104B90006091B0187091B1188091B2189091B318CB
:104BA0000E9402A8AB01BC018CEE94E00E941A7F27
:104BB0002CEA35EC47E25EE36091AC187091AD18D9
:104BC0008091AE189091AF180E94D4A9AB01BC019E
:104BD00088EE94E00E941A7F6AE080EE98E1DF910F
:104BE000CF910C948410CF93DF9383E50E946713D9
:104BF000C82F882371F00E94C0130E946AA8709386
:104C000057016093560121E0672B09F020E02093C3
:104C1000791880E50E946713882359F02091560186
:104C200030915701232B11F00E942814809379189A
:104C300031C0C1112FC0EFE6F1E16491EF0121967F
:104C4000662331F080EE98E10E948410FE01F5CFDA
:104C500080917918811103C064EF71E002C061EFA7
:104C600071E085ED94E00E945C7F60915601709147
:104C7000570184EC94E00E94DD7EE0ECF4E0649166
:104C8000EF012196662331F080EE98E10E948410B6
:104C9000FE01F5CFDF91CF9108958F929F92AF9251
:104CA000BF92EF92FF920F931F93CF93DF9300D0A9
:104CB00000D0CDB7DEB785E40E94B413882321F07D
:104CC0000E94F7138B0102C000E010E083E40E9411
:104CD000B413882321F00E94F713F62E02C025E0BA
:104CE000F22E85E50E94B413882321F00E94281437
:104CF000E82E04C085E50E946713E82E17FD07C063
:104D0000812C912C96E1A92E93E4B92E06C0812C1A
:104D1000912C8CE8A82E82E4B82E83E50E94B4136F
:104D2000882321F00E94C0134B015C01C501B4012E
:104D30000E946AA80115110511F410921C03072E98
:104D4000000C880B990B0E949DA869837A838B8342
:104D50009C832E2D4F2D602FCE0101960E946E98C0
:104D60000F900F900F900F90DF91CF911F910F91A7
:104D7000FF90EF90BF90AF909F908F900895FF921B
:104D80000F931F93CF93DF9389E40E94B41388237A
:104D900021F00E94F713062F01C00FEF8AE40E9452
:104DA000B413882321F00E94F713C62F01C0CFEF60
:104DB0008AE50E946713D82F811105C081E50E9402
:104DC0006713F82E01C0F12C07FD02C0C7FF03C016
:104DD000E5E7F1E10AC0D1111BC0F11019C0F8CF0D
:104DE00080EE98E10E948410FE016491EF0121960B
:104DF0006111F6CFE1E6F4E06491EF0121966623BC
:104E000009F456C080EE98E10E948410FE01F4CFB0
:104E1000033010F4C330D0F0E5E7F1E16491EF0125
:104E2000219661110DC0E2E4F4E06491EF01219656
:104E30006623F1F180EE98E10E948410FE01F5CF27
:104E400080EE98E10E948410FE01E8CF002E000C55
:104E5000110B0C2E000CDD0B0E94C0139B01AC014A
:104E6000D801AA0FBB1FFF2081F0FD01E00FF11F49
:104E7000EC0FFD1FEE0FFF1FEE0FFF1FEC51FD4F5C
:104E8000608171818281938103C060E070E0CB0119
:104E90000A0F1B1FC00FD11FCC0FDD1FCC0FDD1F52
:104EA000CC51DD4F0E9487A7688379838A839B83D7
:104EB000DF91CF911F910F91FF9008952F923F9214
:104EC0004F925F926F927F928F929F92AF92BF921A
:104ED000CF92DF92EF92FF920F931F93CF93DF93C6
:104EE000CDB7DEB72E970FB6F894DEBF0FBECDBF9D
:104EF00041E061E081E00E94BA188111B9C008ED7B
:104F000019E085E899E09E878D87FE0131965F0163
:104F10009DEB892E99E0992E1F01F80165917591FD
:104F200085919491ED85FE85C190D190E190F190AD
:104F3000FE87ED87A70196010E9486A72B013C0101
:104F4000F101608371838283938320E030E040EA43
:104F500051EC0E94A0A987FD0AC020E030E040EAA1
:104F600051E4C301B2010E94FEA718162CF4F4010B
:104F7000849118160CF472C0F101C190D190E190A7
:104F8000F1901F0120E030E040EA51ECC701B6018A
:104F90000E94A0A987FD0AC020E030E040EA51E469
:104FA000C701B6010E94FEA71816F4F4E5E7F1E187
:104FB00064918F010F5F1F4F611103C0E4E2F4E0C1
:104FC00006C080EE98E10E948410F801F1CF649150
:104FD0008F010F5F1F4F662309F44AC080EE98E1EE
:104FE0000E948410F801F3CF0C5F1F4FFFEF8F1A60
:104FF0009F0A89E0043E180709F08FCF84E4E82E69
:1050000083E0F82E10E0F50181919191A191B19189
:105010005F01F70181939193A193B1937F01812F58
:105020000E9460161F5F133071F72E960FB6F8942A
:10503000DEBF0FBECDBFDF91CF911F910F91FF90CB
:10504000EF90DF90CF90BF90AF909F908F907F9028
:105050006F905F904F903F902F904EC8F7FAF0946A
:10506000F7F8F094F101C082D182E282F38284CF1A
:105070002E960FB6F894DEBF0FBECDBFDF91CF9155
:105080001F910F91FF90EF90DF90CF90BF90AF9066
:105090009F908F907F906F905F904F903F902F9058
:1050A0000895CF93DF930E94325D8823D1F0EFE61D
:1050B000F1E16491EF012196662331F080EE98E1F1
:1050C0000E948410FE01F5CFE9E1F4E06491EF0164
:1050D0002196662331F080EE98E10E948410FE0153
:1050E000F5CFDF91CF910895CF92DF92EF92FF92AB
:1050F000CF93DF938AE50E94B413811103C0EFE6DA
:10510000F1E13EC00E94C0136B017C0120E030E061
:1051100040E050EC0E94A0A987FD0AC020E030E0EA
:1051200040EA51E4C701B6010E94FEA718161CF41C
:10513000E5E7F1E10EC0C0921803D0921903E092A6
:105140001A03F0921B0345C080EE98E10E94841080
:10515000FE016491EF0121966111F6CFEDEFF3E0CE
:105160006491EF0121966623A1F180EE98E10E94FF
:105170008410FE01F5CF80EE98E10E948410FE01BC
:105180006491EF0121966111F6CFEEEEF3E06491A8
:10519000EF012196662331F080EE98E10E948410A1
:1051A000FE01F5CF409118035091190360911A0345
:1051B00070911B038BEE93E00E941A7F6AE080EEF1
:1051C00098E1DF91CF91FF90EF90DF90CF900C941A
:1051D0008410DF91CF91FF90EF90DF90CF900895F2
:1051E000CF92DF92EF92FF92CF93DF938BE40E94F6
:1051F000B413811103C0EFE6F1E136C08BE40E94E5
:10520000B4138823C1F00E94C0136B017C0120E01D
:1052100030E0A9010E94A0A987FD0AC020E030E08B
:1052200040E251E4C701B6010E94FEA7181634F40B
:10523000ECECF3E00EC0C12CD12C76010E94766A12
:10524000C092E309D092E409E092E509F092E60900
:105250002DC06491EF012196662341F180EE98E123
:105260000E948410FE01F5CF6491EF012196662320
:1052700031F080EE98E10E948410FE01F5CF40915C
:10528000E3095091E4096091E5097091E60981EC28
:1052900093E00E941A7F6AE080EE98E1DF91CF915F
:1052A000FF90EF90DF90CF900C948410DF91CF911E
:1052B000FF90EF90DF90CF9008951F93CF93DF93EF
:1052C000182FEFE6F1E16491EF012196662331F0AA
:1052D00080EE98E10E948410FE01F5CF64E580EE37
:1052E00098E10E948410412F50E060E070E020E0DF
:1052F00080EE98E10E94789E60E280EE98E10E9444
:105300008410E0EAF3E06491EF012196662331F026
:1053100080EE98E10E948410FE01F5CFDF91CF91DD
:105320001F910895CF93DF93E0916909F0E0E8536E
:10533000FD4F8081882309F466C0E9E8F2E06491BA
:10534000EF012196662331F080EE98E10E948410EF
:10535000FE01F5CFC091690980E6C89FE0011124E4
:10536000C859DC4F88818E3419F0E6E8F2E014C0A9
:1053700060E280EE98E10E948410699180EE98E1ED
:105380000E948410699180ED860F8A30B8F36D32E7
:10539000A9F36B3299F3E9CF6491EF01219666236B
:1053A00031F080EE98E10E948410FE01F5CF8091EB
:1053B000A40A9091A10A891B8F716FE170E0681BAC
:1053C000710980EE98E10E947E10E3E8F2E06491BA
:1053D000EF012196662331F080EE98E10E9484105F
:1053E000FE01F5CF80916A0960E170E0681B7109E8
:1053F00080EE98E10E947E106AE080EE98E1DF91F5
:10540000CF910C948410DF91CF910895CF92DF92C9
:10541000EF92FF92CF93DF9320911401222309F49E
:1054200085C0EC01C0902C03D0902D03E0902E039A
:10543000F0902F03A7019601688179818A819B8171
:105440000E94FEA787FF04C0C882D982EA82FB823D
:10545000C0903003D0903103E0903203F0903303DA
:10546000A70196016C817D818E819F810E94FEA79C
:1054700087FF04C0CC82DD82EE82FF82C0901501DE
:10548000D0901601E0901701F0901801A701960145
:10549000688179818A819B810E94A0A9181624F4D1
:1054A000C882D982EA82FB82C0901901D0901A0189
:1054B000E0901B01F0901C01A70196016C817D8199
:1054C0008E819F810E94A0A9181624F4CC82DD82CF
:1054D000EE82FF82C0903403D0903503E090360313
:1054E000F0903703A7019601688579858A859B85A9
:1054F0000E94FEA787FF04C0C886D986EA86FB867D
:10550000C0901D01D0901E01E0901F01F09020017D
:10551000A7019601688579858A859B850E94A0A947
:10552000181624F4C886D986EA86FB86DF91CF91C7
:10553000FF90EF90DF90CF9008958F929F92AF925F
:10554000BF92CF92DF92EF92FF920F931F93CF9370
:10555000DF93EC016091100370911103072E000C92
:10556000880B990B0E949DA89B01AC0168817981F1
:105570008A819B810E9486A74B015C016091120386
:1055800070911303072E000C880B990B0E949DA8A5
:105590009B01AC016C817D818E819F810E9486A7D9
:1055A0006B017C01209106013091070140910801B7
:1055B00050910901C501B4010E94FEA7882309F496
:1055C00069C08092060190920701A0920801B092F2
:1055D0000901209108033091090340910A03509179
:1055E0000B03C501B4010E94D4A94B015C010E94C8
:1055F000D8A88B01D82FC92F20E030E0A9010E9444
:10560000FEA787FD10C020E030E040E050E4B80184
:105610008D2F9C2F0E94A0A918164CF400E010E0DA
:10562000D0E0C0E404C000E010E0D0E0C0E09801A9
:105630004D2F5C2FC501B4010E9486A74B015C0170
:1056400020E030E0A9010E94FEA787FD09C08092FA
:10565000520290925302A0925402B092550208C096
:10566000109252021092530210925402109255025C
:10567000B8018D2F9C2F0E946AA860935102062EBC
:10568000000C770B6F5F7F4F623071050CF062E0AA
:105690006093500220910201309103014091040176
:1056A00050910501C701B6010E94FEA7D0910101EA
:1056B000C0915102811103C0DC1366C02CC1C0929D
:1056C0000201D0920301E0920401F09205012091C1
:1056D0000C0330910D0340910E0350910F03C7014D
:1056E000B6010E94D4A96B017C010E94D8A85B017D
:1056F0008C0120E030E0A9010E94FEA787FD0FC0C9
:1057000020E030E040E050E4B501C8010E94A0A9CB
:1057100018164CF4A12CB12C00E010E404C0A12C0C
:10572000B12C00E010E09501A801C701B6010E946C
:1057300086A76B017C0120E030E0A9010E94FEA752
:1057400087FD09C0C0924C02D0924D02E0924E02F9
:10575000F0924F0208C010924C0210924D0210922B
:105760004E0210924F02B501C8010E946AA86093D0
:105770004B02062E000C770B6F5F7F4F6230710576
:105780000CF062E060934A0220914B02DC1305C0EA
:1057900080910001821709F474C0C0930101209325
:1057A00000018C2FCC0F990BC22F220FDD0B9C0117
:1057B000220F331F820F931FFC01EC0FFD1FEE0F12
:1057C000FF1FEE0FFF1FEC51FD4F20813181428101
:1057D00053812093460230934702409348025093EE
:1057E000490200914A02002E000C110BFC01E00F4F
:1057F000F11FEE0FFF1FEE0FFF1FEC51FD4F6081F9
:105800007181828193810E9486A760934202709386
:1058100043028093440290934502E09150020E2E81
:10582000000CFF0BCF01880F991FE80FF91FCE0F57
:10583000DF1FCC0FDD1FCC0FDD1FCC51DD4F2881CA
:1058400039814A815B8120933E0230933F0240932D
:10585000400250934102E00FF11FEE0FFF1FEE0FC9
:10586000FF1FEC51FD4F60817181828193810E9405
:1058700086A760933A0270933B0280933C02909318
:105880003D0280904C0290904D02A0904E02B0904C
:105890004F022091420230914302409144025091C4
:1058A0004502C501B4010E94D4A92091460230915D
:1058B000470240914802509149020E9487A76B011C
:1058C0007C01609336027093370280933802909384
:1058D000390220913A0230913B0240913C025091B2
:1058E0003D02C501B4010E94D4A920913E0230912D
:1058F0003F0240914002509141020E9487A7A701B8
:1059000096010E9486A760933202709333028093BF
:10591000340290933502209132023091330240914B
:10592000340250913502609152027091530280917D
:105930005402909155020E94D4A9209136023091D0
:10594000370240913802509139020E9487A7DF91B7
:10595000CF911F910F91FF90EF90DF90CF90BF906C
:10596000AF909F908F900895CF93DF9380E00E9437
:10597000606AC8EDD2E0688379838A839B8381E083
:105980000E94606A6C837D838E839F8382E00E9485
:10599000606A688779878A879B87DF91CF910895AE
:1059A000CF93DF93E1DF6BE580EE98E10E948410F6
:1059B000C8EDD2E0488159816A817B8122E080EE86
:1059C00098E10E94F19E4C815D816E817F8186E02D
:1059D00093E00E941A7F488559856A857B8583E01C
:1059E00093E00E941A7F6DE580EE98E10E9484109A
:1059F0006AE080EE98E1DF91CF910C948410CF9310
:105A0000C82FB2DF88ED92E00E94D969CE3F51F4F1
:105A10008CE0E8EDF2E0A5E8B9E001900D928A95FE
:105A2000E1F713C024E0C29FC0011124FC01EB5731
:105A3000F64FDC01A852BD4F8D919D910D90BC9108
:105A4000A02D80839183A283B383CF9108951F9368
:105A5000CF93DF93CDB7DEB72C970FB6F894DEBFA8
:105A60000FBECDBF882331F0209114033091150370
:105A7000232B01F190911D0A8917E1F0182F0E9444
:105A8000766A8CE0E1E6F1E0DE01119601900D927C
:105A90008A95E1F7CE01019650DD10931D0A111190
:105AA00003C082E0ACDF04C085E899E00E94D969B8
:105AB0000E9437142C960FB6F894DEBF0FBECDBFF0
:105AC000DF91CF911F910895CF92DF92EF92FF92D5
:105AD0000F931F93CF93DF93CDB7DEB72C970FB6FD
