:100000000C94D70F0C9401100C9401100C94011057
:100010000C9401100C9401100C9401100C9401101C
:100020000C9401100C9401100C94BAA50C9437A6F2
:100030000C9401100C9401100C9401100C940110FC
:100040000C9401100C94C6840C9401100C940110B3
:100050000C9401100C9401100C940F9A0C9419A597
:100060000C9401100C9401100C9401100C940110CC
:100070000C9401100C9401100C9401100C940110BC
:100080000C9401100C9401100C9401100C940110AC
:100090000C9401100C940110A8A2D4A2F6A2F6A20E
:1000A000F6A2F6A2F6A2F6A2F6A2F6A2F6A2F6A290
:1000B000F6A2F6A2ECA2E4A2DCA2F6A2F6A2F6A2B6
:1000C000F6A2F6A2F6A2F6A2CEA2B4A2BCA2C6A244
:1000D000084AD73B3BCE016E84BCBFFDC12F3D6CAF
:1000E00074319ABD56833DDA3D00C77F11BED9E415
:1000F000BB4C3E916BAAAABE000000803F05A84CF5
:10010000CDB2D44EB93836A9020C50B991868808C0
:100110003CA6AAAA2ABE000000803F004E414E49DC
:100120004E495459494E46CDCCCC3D0AD7233C17B5
:10013000B7D13877CC2B329595E6241FB14F0A0002
:100140000020410000C84200401C4620BCBE4CCAF2
:100150001B0E5AAEC59D742020506C616E6E657288
:1001600042756666657242797465733A200020466E
:10017000726565204D656D6F72793A2000436F6D31
:1001800070696C65643A20417072203233203230DD
:1001900032300A00207C20417574686F723A202842
:1001A0006A6E6F656C2C20323032302D30342D3237
:1001B00033290A00323031382D30382D30310020CB
:1001C0004C61737420557064617465643A20003129
:1001D0002E312E390A004D61726C696E0020536F0A
:1001E0006674776172652052657365740A002057E2
:1001F00061746368646F672052657365740A0020D8
:1002000042726F776E206F75742052657365740A41
:10021000002045787465726E616C20526573657458
:100220000A00506F77657255700A007374617274BA
:100230000A005072696E7465722068616C7465643E
:100240002E206B696C6C28292063616C6C656421BD
:100250000A004B494C4C45442E20004B494C4C2045
:1002600063617573656420627920746F6F206D75AA
:10027000636820696E6163746976652074696D6571
:10028000202D2063757272656E7420636F6D6D61D1
:100290006E643A200020746F6F206C6F6E6720656B
:1002A0007874727573696F6E2070726576656E749E
:1002B00065640A0020636F6C6420657874727573DE
:1002C000696F6E2070726576656E7465640A006F82
:1002D0006B00526573656E643A20003A00436170AA
:1002E0003A0000011C1D132FFFFFFFFF1E1F12FF0E
:1002F00014FFFFFF20211124FFFFFFFFFFFFFF0E70
:1003000010FFFFFF22230DFFFFFF0E260FFF2742E6
:10031000696C696E656172204C6576656C696E67A3
:1003200020477269643A0A00416374697665204522
:10033000787472756465723A200020453A00205A3C
:100340003A0020593A00583A002C20002C20006234
:100350007573793A2070617573656420666F7220D9
:10036000696E7075740A00627573793A20706175F0
:1003700073656420666F7220757365720A0062751A
:1003800073793A2070726F63657373696E670A00E0
:1003900050726F62696E67206661696C65640A00FD
:1003A000205A3A200020593A200042656420583AE9
:1003B00020002066697273740A005A0059005800C0
:1003C000486F6D65200020496E76616C6964206518
:1003D000787472756465722000656E7175657565F7
:1003E000696E67202200496E76616C6964206578C9
:1003F0007472756465720A004E6F206361736520C4
:100400006C696768740A00416476616E6365204BAD
:100410003D003F4B2076616C7565206F7574206FD1
:10042000662072616E67652028302D3130292E0AD2
:10043000003A200050726F6265205A204F66667342
:100440006574003F5A206F7574206F662072616E6C
:10045000676520282D3220746F203230290A00452C
:100460004550524F4D204F4B0A00546F6F2066612C
:10047000722066726F6D207265666572656E636567
:1004800020706F696E740A004D65736820706F6923
:100490006E742063616E6E6F742062652072657386
:1004A0006F6C7665640A004D34323120696E636F7B
:1004B000727265637420706172616D65746572201B
:1004C00075736167650A004F66660A004661646578
:1004D000204865696768742000426564204C657631
:1004E000656C696E6720004661696C656420746F95
:1004F00020656E61626C6520426564204C6576659E
:100500006C696E670A0043290A0061626C656420A9
:10051000286D696E2074656D702000436F6C6420D7
:100520006578747275646573206172652000496E28
:1005300076616C69642065787472756465720A000E
:1005400020643A0020693A0020703A0020466C6F1F
:10055000773A2000205A00205900580020204D6191
:10056000783A2000205A00205900580020204D6978
:100570006E3A20004F6666004F6E2000536F66741F
:1005800020656E6473746F70733A20005741524E49
:10059000494E4721204C6F77205A204A65726B20C4
:1005A0006D6179206C65616420746F20756E776170
:1005B0006E746564207061757365732E0A00205433
:1005C00000205200416363656C65726174696F6EEF
:1005D0003A2050002F2F2000544845524D414C5F87
:1005E00050524F54454354494F4E004155544F5279
:1005F00045504F52545F53445F5354415455530038
:10060000454D455247454E43595F5041525345521F
:1006100000434153455F4C494748545F4252494764
:1006200048544E45535300544F47474C455F4C493F
:100630004748545300534F4654574152455F504F1B
:10064000574552004255494C445F50455243454E30
:1006500054004C4556454C494E475F444154410077
:100660005A5F50524F4245004155544F4C455645F4
:100670004C005052494E545F4A4F420050524F472F
:1006800052455353004155544F5245504F52545FB9
:1006900054454D5000564F4C554D4554524943001A
:1006A000454550524F4D0053455249414C5F584FBC
:1006B0004E5F584F4646004649524D574152455F9E
:1006C0004E414D453A4D61726C696E20312E312E8E
:1006D0003920284769746875622920534F55524361
:1006E000455F434F44455F55524C3A68747470738C
:1006F0003A2F2F6769746875622E636F6D2F4D6195
:10070000726C696E4669726D776172652F4D6172A8
:100710006C696E2050524F544F434F4C5F564552B8
:1007200053494F4E3A312E30204D414348494E45B2
:100730005F545950453A5072696E7472626F7420FA
:1007400053696D706C65204D6574616C20526576DF
:100750002E442045585452554445525F434F554E00
:10076000543A3120555549443A63656465326132E3
:10077000662D343161322D343734382D39623132BF
:100780002D6335356336326633363766660A004D7B
:100790003131332053006F66660044454255473A75
:1007A00000CC07C707C007B907AB07434F4D4D55EE
:1007B0004E49434154494F4E0044525952554E0000
:1007C0004552524F525300494E464F004543484F01
:1007D0000020573A0020573A004B494C4C45442ED4
:1007E00020006F6B0050726F7465637465642050F5
:1007F000696E0A005072696E742074696D653A20E2
:10080000004D65736820706F696E742063616E6E51
:100810006F74206265207265736F6C7665640A0080
:10082000205A3A200020593A200042656420583A64
:100830002000202844525952554E29004732392071
:100840004175746F20426564204C6576656C696EF5
:1008500067003F20284C2C522C462C4229206F75D3
:1008600074206F6620626F756E64732E0A003F28D5
:1008700056296572626F7365206C6576656C2069B8
:100880007320696D706C61757369626C65202830C6
:100890002D34292E0A00426164205A2076616C753D
:1008A000650A004E6F2062696C696E65617220672F
:1008B0007269640A00486F6D652058592066697234
:1008C00073740A0047322F473320626164207061DD
:1008D00072616D65746572730A005761726E696E3C
:1008E000673A20486F6D696E672042756D702044CD
:1008F000697669736F72203C20310A000202044B52
:10090000494C4C45442E20005072696E746572202B
:1009100073746F707065642064756520746F2065F2
:1009200072726F72732E2046697820746865206534
:1009300072726F7220616E6420757365204D393953
:100940003920746F20726573746172742E2028547C
:10095000656D70657261747572652069732072656A
:100960007365742E20536574206974206166746504
:10097000722072657374617274696E67290A004E21
:100980006F20436865636B73756D207769746820A9
:100990006C696E65206E756D6265722C204C61739A
:1009A00074204C696E653A2000636865636B7375EB
:1009B0006D206D69736D617463682C204C61737474
:1009C000204C696E653A20004C696E65204E756D4D
:1009D000626572206973206E6F74204C617374209D
:1009E0004C696E65204E756D6265722B312C204C02
:1009F000617374204C696E653A20004D31313000CE
:100A0000FF01FF0000A0400000A0400000004000E7
:100A100000184300001A43000018430000000000C3
:100A200000184300000000000018430000184300B5
:100A300000184300000000000000C000000000009B
:100A400000484200004842000080400000000025AD
:100A500069730025696D2025697300256968202563
:100A6000696D202569730025696420256968202542
:100A7000696D202569730025697920256964202521
:100A800069682025696D202569730020204D393063
:100A900030204B004C696E65617220416476616E56
:100AA00063653A0A0020204D383531205A005A2D0E
:100AB00050726F6265204F66667365740020440053
:100AC00020490020204D333031205000504944202F
:100AD00073657474696E67733A0A00205A00204A7D
:100AE0000020204732392057204900205A0020207A
:100AF0004D3432302053004175746F2042656420BC
:100B00004C6576656C696E673A0A00205A00205978
:100B10000020204D323036205800486F6D65206F20
:100B200066667365743A0A00204500205A00205911
:100B30000020580020540020530020204D32303532
:100B400020510020453C6D61785F655F6A65726B7E
:100B50003E0020583C6D61785F785F6A65726B3E3D
:100B600020593C6D61785F795F6A65726B3E205AEF
:100B70003C6D61785F7A5F6A65726B3E00416476B6
:100B8000616E6365643A20513C6D696E5F736567A1
:100B90006D656E745F74696D655F75733E20533C5F
:100BA0006D696E5F66656564726174653E20543C74
:100BB0006D696E5F74726176656C5F66656564729F
:100BC0006174653E0020540020520020204D3230D8
:100BD00034205000416363656C65726174696F6EA7
:100BE0002028756E6974732F7332293A20503C7037
:100BF00072696E745F616363656C3E20523C72651E
:100C000074726163745F616363656C3E20543C740D
:100C1000726176656C5F616363656C3E0A002045B6
:100C200000205A0020590020204D32303120580039
:100C30004D6178696D756D20416363656C657261A6
:100C400074696F6E2028756E6974732F7332293A38
:100C50000A00204500205A0020590020204D323043
:100C6000332058004D6178696D756D206665656447
:100C700072617465732028756E6974732F73293AD5
:100C80000A00204500205A0020590020204D39320A
:100C900020580053746570732070657220756E69FA
:100CA000743A0A0020204D3230302044300A0020AF
:100CB000204D3230302044002044697361626C65FD
:100CC000640A0046696C616D656E742073657474A6
:100CD000696E67733A002020473231202020203B84
:100CE0000048617264636F64656420446566617581
:100CF0006C742053657474696E6773204C6F616403
:100D000065640A00D0070000D00700001E00000044
:100D1000102700000000FA420000FA420000E04004
:100D2000000060410000A0420000A0420080FC449E
:100D30000000BD42290A002062797465733B20637C
:100D4000726320002073746F72656420736574741D
:100D5000696E6773207265747269657665642028B0
:100D600000202863616C63756C6174656429210AD5
:100D70000020213D2000454550524F4D2043524315
:100D8000206D69736D61746368202D202873746F02
:100D90007265642920002053697A653A2000496E03
:100DA0006465783A2000204D61726C696E3D56355D
:100DB00036290A0028454550524F4D3D00454550C3
:100DC000524F4D2076657273696F6E206D69736D39
:100DD000617463682000290A002062797465733B9E
:100DE00020637263200053657474696E67732053C7
:100DF000746F726564202800454550524F4D206441
:100E000061746173697A65206572726F722E0A006F
:100E10004572726F722077726974696E6720746FA1
:100E200020454550524F4D210A003A0A0020286DB6
:100E30006D29006F70656E00545249474745524511
:100E400044003A20007A5F6D696E00795F6D6178C9
:100E500000785F6D696E005265706F7274696E67BD
:100E600020656E6473746F70207374617475730A97
:100E700000205A3A0020593A0020583A00656E6422
:100E800073746F7073206869743A2000486F6D69DD
:100E90006E67206661696C656400556E6B6E6F7776
:100EA0006E20636F6D6D616E643A20220020746F56
:100EB0006F206C6F6E6720657874727573696F6EE2
:100EC0002070726576656E7465640A0020636F6CCD
:100ED0006420657874727573696F6E2070726576C0
:100EE000656E7465640A00FFFDFCFAF8F6F4F2F032
:100EF000EEECEAE9E7E5E3E1E0DEDCDAD9D7D5D4E8
:100F0000D2D0CFCDCBCAC8C7C5C3C2C0BFBDBCBA83
:100F1000B9B7B6B4B3B2B0AFADACAAA9A8A6A5A4F0
:100F2000A2A1A09E9D9C9A99989795949392908F38
:100F30008E8D8B8A8988878684838281807F7E7D5F
:100F40007B7A797877767574737271706F6E6D6C69
:100F50006B6A696867666564636261605F5E5D5C59
:100F60005B5A5958585756555453525150504F4E3A
:100F70004D4C4B4A4A494847464645444342424104
:100F8000403F3E3E3D3C3B3B3A39383837363535BD
:100F9000343332323130302F2E2E2D2C2B2B2A2968
:100FA0002928272726252524232322212120201F05
:100FB0001E1E1D1C1C1B1B1A191918181716161596
:100FC0001514131312121111100F0F0E0E0D0D0C1C
:100FD0000C0B0A0A09090808070706060505040498
:100FE00003030202010000000000010000000100F4
:100FF000008000555555000000400033333300AAEF
:10100000AA2A004992240000002000C7711C009900
:10101000991900D1451700555515003BB11300240F
:1010200049120011111100000010000F0F0F00E312
:10103000380E0043790D00CCCC0C00C3300C00E816
:10104000A20B0064210B00AAAA0A00703D0A009DB1
:10105000D80900427B090092240900DCD3080088EB
:101060008808001042080000000800F0C10700874F
:1010700087070075500700711C07003EEB0600A1B2
:10108000BC06006990060066660600703E060061B8
:1010900018060017F4050074D105005BB00500B216
:1010A000900500627205005555050078390500B8B5
:1010B0001E0500050505004EEC040087D40400A1C0
:1010C000BD040090A7040049920400C17D0400EE15
:1010D000690400C7560400444404005C320400085C
:1010E00021040041100400000004003FF00300F858
:1010F000E0030026D20300C3C30300CCB503003ACB
:10110000A803000A9B0300388E0300C08103009FE0
:10111000750300D0690300505E03001D53030034C3
:10112000480300913D0300333303001629030038C0
:101130001F030097150300300C0300030303000B8B
:10114000FA020049F10200BAE802005CE002002D58
:10115000D802002DD0020059C80200B0C0020031F0
:10116000B90200DAB10200AAAA0200A0A30200BCE0
:101170009C0200FA9502005C8F0200DF8802008268
:10118000820200457C02002776020027700200439D
:101190006A02007C640200D05E02003F590200C86F
:1011A0005302006563686F3A004572726F723A00CD
:1011B000205A3A0020593A0020436F756E74205827
:1011C0003A00232C0000B8220000561800003A0F05
:1011D0000000B8080000B1040000710200003E01E8
:1011E000000024F4D43050C38E20C2A24017828B5A
:1011F0007011127A910D816CD90AA861E108C75863
:101200006607615143061E4B5D05C145A7041A419F
:101210001104093D9803713931034036DB0265330F
:101220009102D4305402802E1D02632CEE01752AE7
:10123000C501B028A001102781018F2564012B244E
:101240004B01E0223401AC211F018D200D01801FD4
:10125000FC00841EED00971DDF00B81CD200E61BC9
:10126000C600201BBC00641AB200B219A8000A19FB
:10127000A0006A189900D117910040178B00B5168D
:10128000840031167E00B31579003A157300C71437
:101290006F0058146A00EE1366008813630025136C
:1012A0005E00C7125B006C12570015125400C1118A
:1012B000510070114F0021114B00D61049008D10C4
:1012C00047004610440002104200C00F4000800F4B
:1012D0003E00420F3C00060F3B00CB0E3800930E41
:1012E00037005C0E3500270E3400F30D3200C10DBF
:1012F0003100900D3000600D2E00320D2D00050DD7
:101300002C00D90C2B00AE0C2900850C29005C0C9C
:101310002700350C27000E0C2600E80B2400C40B18
:101320002400A00B23007D0B23005A0B2100390B56
:101330002100180B2000F80A1F00D90A1E00BB0A62
:101340001E009D0A1D00800A1D00630A1C00470A3A
:101350001B002C0A1B00110A1A00F7091A00DD09EC
:101360001900C4091900AB091900920917007B097B
:101370001800630917004C091600360916002009E9
:1013800016000A091500F5081500E0081400CC083D
:101390001400B8081400A4081400900813007D0875
:1013A00012006B0813005808120046081200340897
:1013B0001100230811001208110001081100F007A4
:1013C0001000E0071000D0071000C0071000B007A1
:1013D0000F00A107100091070E0083070F0074078C
:1013E0000F0065070E0057070E0049070E003B0768
:1013F0000D002E070E0020070D0013070D00060735
:101400000D00F9060C00ED060D00E0060C00D406F8
:101410000C00C8060C00BC060C00B0060C00A406AC
:101420000B0099060C008D060B0082060B00770658
:101430000B006C060B0061060A0057060B004C06F9
:101440000A0042060A0038060A002E060A00240690
:101450000A001A060A001006090007060A00FD0520
:101460000900F4050900EB050900E2050900D905AA
:101470000900D0050900C7050900BE050900B5052A
:101480000800AD050800A50509009C0508009405A5
:1014900008008C050800840508007C050800740518
:1014A00008006C050700650508005D050700560586
:1014B00008004E05070047050700400508003805ED
:1014C0000700310507002A050700230507001C0552
:1014D0000600160507000F050700080506000205AF
:1014E0000700FB040600F5040700EE040600E8040C
:1014F0000600E2040700DB040600D5040600CF0462
:101500000600C9040600C3040600BD040600B704B3
:101510000600B1040500AC040600A6040600A00401
:1015200005009B04060095040500900406008A044B
:10153000050085040500800406007A040500750492
:101540000500700405006B040500660405006104D5
:1015500005005C04050057040500520405004D0415
:10156000050048040500430405003E0404003A0455
:10157000050035040500300404002C040500270490
:101580000400230405001E0404001A0404001604C9
:101590000500110404000D040400090405000404FE
:1015A000040000040400FC030400F8030400F40336
:1015B0000400F0030400EC030400E8030400E40367
:1015C0000400E0030400DC030400D8030400D40397
:1015D0000400D0030400CC030400C8030300C503C7
:1015E000030024F404D9201BC40C5C0E9804C40925
:1015F0005F0265077101F405F900FB04B3004804BC
:101600008700C10369005803550003034500BE026B
:101610003A008402310053022A0029022500040204
:101620002000E4011C00C8011900AF011700980157
:1016300014008401130071011000610110005101B8
:101640000E0043010D0036010B002B010B002001A1
:101650000B00150109000C01090003010800FB0043
:101660000800F3000800EB000700E4000600DE00BD
:101670000600D8000600D2000600CC000500C70016
:101680000500C2000500BD000400B9000400B5005B
:101690000400B1000400AD000400A9000400A5008E
:1016A0000300A20003009F0004009B0003009800B9
:1016B00003009500020093000300900003008D00DA
:1016C00002008B00030088000200860002008400F4
:1016D0000300810002007F0002007D0002007B0009
:1016E0000200790002007700010076000200740019
:1016F000020072000100710002006F0002006D0024
:1017000001006C0002006A0001006900020067002D
:101710000100660001006500010064000200620033
:10172000010061000100600001005F0002005D0037
:1017300001005C0001005B0001005A00010059003B
:10174000010058000100570001005600010055003B
:10175000010054000100530000005300010052003A
:10176000010051000100500001004F0001004E0037
:1017700000004E0001004D0001004C0001004B0034
:1017800000004B0001004A00010049000100480030
:10179000000048000100470001004600000046002C
:1017A0000100450000004500010044000100430025
:1017B000000043000100420000004200010041001F
:1017C000000041000100400001003F0000003F0018
:1017D00001003E0000003E0001003D0000003D0011
:1017E00001003C0000003C0000003C0001003B0008
:1017F00000003B0001003A0000003A0001003900FF
:1018000000003900010038000000380000003800F6
:1018100001003700000037000100360000003600EC
:1018200000003600010035000000350000003500E2
:1018300001003400000034000000340001003300D7
:1018400000003300000033000100320000003200CD
:1018500000003200010031000000310000003100C2
:1018600001003000000030000000300001002F00B7
:1018700000002F0000002F0000002F0001002E00AC
:1018800000002E0000002E0001002D0000002D00A1
:1018900000002D0000002D0001002C0000002C0095
:1018A00000002C0000002C0001002B0000002B0089
:1018B00000002B0000002B0001002A0000002A007D
:1018C00000002A0000002A00010029000000290071
:1018D0000000290000002900000029000100280064
:1018E0000000280000002800000028000000280058
:1018F000010027000000270000002700000027004B
:10190000000027000100260000002600000026003D
:101910000000260000002600010025000000250030
:101920000000250000002500000025000000250023
:101930000100240000002400000024000000240016
:101940000000240001002300000023000000230009
:1019500000002300000023000000230000002300FB
:1019600001002200000022000000220000002200EE
:1019700000002200000022000100210000002100E0
:1019800000002100000021000000210000002100D3
:1019900000002100010020000000200000002000C5
:1019A00000002000000020000000200000002000B7
:1019B0000000200001001F0000001F0000001F00A9
:1019C00000001F0000001F0000001F0000001F009B
:1019D00001001E0000001E0000001E0000001E008E
:1019E00000002042403A0020403A00202F00546876
:1019F00065726D616C2052756E6177617900453159
:101A000020544845524D414C2052554E4157415962
:101A10000042454420544845524D414C2052554EB9
:101A200041574159004B494C4C45442E2000202D34
:101A300020496E76616C696420657874727564659E
:101A400072206E756D62657220210A0048656174AE
:101A5000696E67206661696C656400426564206830
:101A6000656174696E67206661696C6564004865CC
:101A70006174696E67206661696C65640045312038
:101A800048656174696E67206661696C6564004DC4
:101A9000494E54454D50207472696767657265649C
:101AA000004531204572723A204D494E54454D5003
:101AB000004572723A204D494E54454D50204245E2
:101AC00044004D415854454D502074726967676514
:101AD000726564004531204572723A204D41585478
:101AE000454D50004572723A204D415854454D5075
:101AF00020424544006265640A002C2073797374A7
:101B0000656D2073746F7070656421204865617421
:101B100065725F49443A200023646566696E6520FA
:101B200044454641554C545F4B6420002364656630
:101B3000696E652044454641554C545F4B69200011
:101B400023646566696E652044454641554C545F83
:101B50004B702000504944204175746F74756E6558
:101B60002066696E697368656421205075742074FD
:101B70006865206C617374204B702C204B69206168
:101B80006E64204B6420636F6E7374616E74732097
:101B900066726F6D2062656C6F7720696E746F205E
:101BA000436F6E66696775726174696F6E2E680A3D
:101BB00000504944204175746F74756E65206661EC
:101BC000696C6564212074696D656F75740A0054D1
:101BD0006865726D616C2052756E61776179004540
:101BE0003120544845524D414C2052554E415741A9
:101BF000590048656174696E67206661696C656447
:101C00000045312048656174696E67206661696CC2
:101C1000656400504944204175746F74756E652089
:101C20006661696C6564212054656D7065726174CC
:101C300075726520746F6F20686967680A00204BB1
:101C4000643A2000204B693A2000204B703A200073
:101C50000A20436C617373696320504944200A0071
:101C60002054753A2000204B753A2000206D617891
:101C70003A2000206D696E3A200020643A2000204E
:101C8000626961733A2000504944204175746F7451
:101C9000756E652073746172740A00504944204166
:101CA00075746F74756E65206661696C656421205A
:101CB00054656D706572617475726520746F6F2004
:101CC000686967680A00504944204175746F7475EB
:101CD0006E65206661696C656421204261642065DF
:101CE00078747275646572206E756D6265720A0033
:101CF0001000C90210012C014001220170011801DD
:101D0000B0010E01F00104015002FA00B002F0002F
:101D10003003E600D003DC009004D2007005C80058
:101D2000A006BE000008B400B009AA00D00BA000B5
:101D3000600E960060118C0000158200201978005A
:101D4000C01D6E00A0226400B0275A00902C5000E5
:101D500000314600E0343C0010383200903A280050
:101D6000603C1E00A03D1400803E0A00203F0000A1
:101D700070012C0190012701B0012201C0011D0159
:101D8000F00118011002130130020E016002090176
:101D900090020401C002FF000003FA004003F500B6
:101DA0008003F000D003EB002004E6007004E100A3
:101DB000E004DC004005D700C005D2004006CD009D
:101DC000D006C8008007C3003008BE00F008B90084
:101DD000C009B400B00AAF00B00BAA00D00CA50037
:101DE000000EA000500F9B00C010960050129100F2
:101DF00000148C00C0158700B0178200B0197D0058
:101E0000D01B7800001E730040206E0090226900F5
:101E1000F024640040275F0090295A00E02B550011
:101E2000102E500020304B0010324600E0334100AD
:101E300090353C001037370070383200A0392D0043
:101E4000B03A2800A03B2300603C1E00103D190062
:101E5000903D1400103E0F00703E0A00C03E050089
:101E6000003F0000403FFBFF803FF6FFC03FF1FF17
:101E7000012902290429082910292029402980291B
:101E8000012C022C012602260426082610262026D4
:101E900040268026402C802C012302230423082383
:101EA0001023202340238023012002200420082027
:101EB0001020202040208020102C202C012F022FC9
:101EC000042F082F102F202F402F802F7EFE7EFD05
:101ED0007EFB7EF77EEF7EDF7EBF7E7F000100000F
:101EE0008D1F12000200004A1F4300030000461F1E
:101EF00004010309042C1F1802030904141F16030C
:101F0000030904061F0C0C033100320033003400B7
:101F10003500000016035500530042002000530016
:101F200065007200690061006C0000001803540035
:101F3000650065006E00730079006400750069003B
:101F40006E006F000000040309040902430002014F
:101F500000C0320904000001020201000524001043
:101F600001052401000104240206052406000107DE
:101F700005820308004009040100020A000000076E
:101F80000503024000000705840240000012010022
:101F90000202000020C01683047202010203010045
:101FA00001C10201803601813600247E84A91124FA
:101FB0001FBECFEFD0E2DEBFCDBF12E0A0E0B1E0A8
:101FC000EAE0FAE601E00BBF02C007900D92AE32E4
:101FD000B107D9F72DE0AEE2B2E001C01D92AC3BF3
:101FE000B207E1F71FE0C7EDDFE004C02197FE0173
:101FF0000E94F9A9C53DD107C9F70E942DA20C94F2
:1020000003B50C94000090E0FC01EE0FFF1FE80FF9
:10201000F91FE60FF11DEE0FFF1FEE0FFF1FEC5231
:10202000FD4F608171818281938108954F925F920B
:102030006F927F928F929F92AF92BF92CF92DF92D8
:10204000EF92FF92CF936B017C0149015A0120E08E
:1020500030E040EE51E40E941BAA2B013C012FE628
:1020600032E143E85AEB0E94F8AC87FD3CC022E421
:1020700030E048E153E4C301B2010E94F5AA18160A
:1020800094F122E630E140E050ECC501B4010E9439
:10209000F8AC87FD28C022E430E048E153E4C501F4
:1020A000B4010E94F5AA1816F4F024EF3DEF4FEDAD
:1020B00051E4C701B6010E94F8AC87FD14C022E4C8
:1020C00030E048E153E4C701B6010E94F5AA1816B2
:1020D00054F0C1E02FE632E143E85AEBC501B40108
:1020E0000E94F8AC87FDC0E08C2FCF91FF90EF905D
:1020F000DF90CF90BF90AF909F908F907F906F9028
:102100005F904F900895CF93DF931F92CDB7DEB7C6
:102110006983DC01ED91FC910280F381E02D41E0C7
:1021200050E0BE016F5F7F4F09950F90DF91CF9117
:1021300008952F923F924F925F926F927F928F926B
:102140009F92AF92BF92CF92DF92EF92FF920F9346
:102150001F93CF93DF93CDB7DEB72E970FB6F894CA
:10216000DEBF0FBECDBF182FF62E042FA22E282FB4
:1021700030E03A872987862F90E09C878B87220F53
:10218000331FE985FA852E0F3F1F3E872D87FC01FF
:10219000E20FF31FEE0FFF1FEE0FFF1FEC52FD4F7C
:1021A00060817181828193819B01AC010E94E1ADCC
:1021B000882309F43EC16AE080EB9DE0A4DF100FA4
:1021C0006F2D6A0D812F90E0DC01AA0FBB1FA80FB5
:1021D000B91FEB85FC85EA0FFB1FEE0FFF1FEE0F0B
:1021E000FF1FEC52FD4FB080C180D280E380100F02
:1021F000812F90E0AC01440F551F480F591FEB850C
:10220000FC85E40FF51FEE0FFF1FEE0FFF1FEC52D2
:10221000FD4FF080018112819380862F90E0ED8543
:10222000FE85E80FF91FEE0FFF1FEE0FFF1FEC52A8
:10223000FD4F80807180628053806A0D70E02D8533
:102240003E85260F371F220F331F220F331F2C52BC
:102250003D4F3E872D87F90140803180A280238049
:10226000A80FB91FAA0FBB1FAA0FBB1FAC52BD4FAF
:10227000FC91F98311962C9111972A8312963C9127
:1022800012973B8313968C918C83FA01E60FF71F0C
:10229000EE0FFF1FEE0FFF1FEC52FD4F90819D834D
:1022A00021812E8332813F83838188872F2D302F98
:1022B000412F592D6F2D702F812F992D0E94E1AD47
:1022C000882321F0F12C00E010E0912C2B2D3C2DE7
:1022D0004D2D5E2D6B2D7C2D8D2D9E2D0E94E1AD03
:1022E000882319F0BF2C6801E92C242D332D4A2DA9
:1022F000522D642D732D8A2D922D0E94E1AD8823DD
:1023000021F0412C312CA12C212C282D372D462DAC
:10231000552D682D772D862D952D0E94E1AD8823B2
:1023200021F0842C732C6A2C522C2D813E814F81FC
:1023300058856D817E818F8198850E94E1AD8823CB
:1023400021F01D821E821F82188629813A814B81CD
:102350005C8169817A818B819C810E94E1AD8823B7
:1023600041F09D819983EE81EA83FF81FB8328857B
:102370002C8389859A85880F991FE985FA858E0FA8
:102380009F1F2B853C85820F931F880F991F880FF5
:10239000991F8C529D4F9A8789872B2D3C2D4D2D4F
:1023A0005E2D6B2D7C2D8D2D9E2D0E941CAA2F2D18
:1023B000302F412F592D0E941BAA6B017C01282D23
:1023C000372D462D552D682D772D862D952D0E9464
:1023D0001CAA242D332D4A2D522D0E941BAA9B018D
:1023E000AC01C701B6010E941CAA6B017C012981C6
:1023F0003A814B815C8169817A818B819C810E94C9
:102400001CAA2D813E814F8158850E941BAA9B01E9
:10241000AC01C701B6010E941CAA20E030E040E4F4
:1024200050E40E94FCAAE985FA8560837183828367
:1024300093832E960FB6F894DEBF0FBECDBFDF910B
:10244000CF911F910F91FF90EF90DF90CF90BF90B1
:10245000AF909F908F907F906F905F904F903F9044
:102460002F900895FF920F931F93CF93DF93F82E31
:10247000092F162FEDEDF2E06491EF01219666230E
:1024800029F080EB9DE03FDEFE01F6CFEF2DF02F2F
:102490006491EF012196662329F080EB9DE033DE05
:1024A000FE01F6CFEBEDF2E06491EF012196662399
:1024B00029F080EB9DE027DEFE01F6CF412F50E0B2
:1024C00060E070E080EB9DE00E9479A16AE080EB23
:1024D0009DE0DF91CF911F910F91FF9014CE0FB629
:1024E000F8948091A50D9091A60DA091A70DB091A3
:1024F000A80D0FBE8093110390931203A0931303B2
:10250000B0931403089580E1E5EFF4E0A5EEB4E0A4
:1025100001900D928A95E1F708952F923F924F9284
:102520005F926F927F928F929F92AF92BF92CF9263
:10253000DF92EF92FF920F931F93CF93DF93EB0104
:10254000FC0180809180A280B380C501B40120E8A5
:1025500031E541E050E00E94BBA9C9016DE671E0A0
:102560000E94A7A96B017C01C501B40120E13EE0F6
:1025700040E050E00E94BBA9CA01B90128E130E067
:1025800040E050E00E94BBA9362E272E062F172FC1
:102590008CE3482E512C612C712CC501B401A30190
:1025A00092010E94BBA9B62EA72ECA01B901A301B0
:1025B00092010E94BBA9CB01C114D104D9F0AF9202
:1025C000BF927F936F932F923F92FF92EF92DF9291
:1025D000CF9287E79AE09F938F93DF93CF930E94E8
:1025E0000FB28DB79EB70E960FB6F8949EBF0FBE72
:1025F0008DBF5CC0E114F104C9F0AF92BF927F932C
:102600006F932F923F92FF92EF9287E69AE09F930B
:102610008F93DF93CF930E940FB2EDB7FEB73C9636
:102620000FB6F894FEBF0FBEEDBF40C0012BB9F04E
:10263000AF92BF927F936F932F923F928BE59AE078
:102640009F938F93DF93CF930E940FB28DB79EB766
:102650000A960FB6F8949EBF0FBE8DBF27C0892B78
:10266000A9F0AF92BF927F936F9383E59AE09F9317
:102670008F93DF93CF930E940FB2EDB7FEB73896DA
:102680000FB6F894FEBF0FBEEDBF10C0AF92BF9261
:102690008FE49AE09F938F93DF93CF930E940FB2C2
:1026A0000F900F900F900F900F900F90DF91CF91A0
:1026B0001F910F91FF90EF90DF90CF90BF90AF9060
:1026C0009F908F907F906F905F904F903F902F9052
:1026D000089581548A3108F041C0E82FF0E040911C
:1026E0002D0550912E0560912F057091300504C085
:1026F00076956795579547958A95D2F7842F81707F
:1027000040FF33C0ED5EFA4F9081992301F1E091D3
:102710003805F0913905E90FF11D908120ED290F61
:102720002A3080F09E3229F4918190539A3078F4C7
:1027300009C09D3211F09B3251F4918120ED290F97
:102740002A3018F42E2F9F2F04C09E3249F020E02B
:1027500090E02093340590933505089580E0089526
:10276000928190539A3098F7EDCF0895B2DF882385
:1027700041F081E02091340530913505232B09F497
:1027800080E008950F931F93CF938091340590912B
:102790003505009711F1FC018F01C1912C2F2F7D80
:1027A000A9F0C53411F0C536B9F7F801108260E020
:1027B00070E080913405909135050E94FDADF801DF
:1027C000C083562F472F382F292F0BC060E070E0B1
:1027D000CF911F910F910C94FDAD50E040E030E09F
:1027E00020E0652F742F832F922FCF911F910F918F
:1027F00008958091340590913505009731F04AE0B5
:1028000050E060E070E00C9450AF60E070E0CB010D
:1028100008958091340590913505009731F04AE094
:1028200050E060E070E00C947BB060E070E0CB01C1
:102830000895DFDF97FD0AC0DCDF6F3F710581057A
:10284000910509F02CF4D5DF862F089580E00895D6
:102850008FEF08958091340590913505892B31F0E3
:10286000E8DF91E0811103C090E001C091E0892F81
:1028700008950F931F93CF93DF93CDB7DEB72C97B7
:102880000FB6F894DEBF0FBECDBFE5EFF4E0808554
:102890009185A285B38544815581668177810081C8
:1028A00011812281338109871A872B873C874D83C9
:1028B0005E836F83788789839A83AB83BC83AE0101
:1028C0004F5F5F4FBE016B5F7F4FCE0109960E9445
:1028D000F16D21E035E0AE014F5F5F4FBE016B5FF0
:1028E0007F4FCE0109960E94E47B2C960FB6F89498
:1028F000DEBF0FBECDBFDF91CF911F910F91089525
:102900002F923F924F925F926F927F929F92AF92DF
:10291000BF92CF92DF92EF92FF920F931F93CF93CC
:10292000DF93CDB7DEB764970FB6F894DEBF0FBE66
:10293000CDBF1A012B01922EF32EC82ED12CF601F9
:10294000E050F64FE491AA24A3941E160CF4A12C97
:10295000BB24B39420E030E0A901C201B1010E9480
:10296000F8AC18160CF0B12CCC0CDD1CCC0CDD1C1A
:10297000C6018B509B4F3C01FC01108211821282D8
:10298000138277DFF3012082318242825382E0900A
:10299000190320E030E0A901B801892D9F2D0E9484
:1029A000F5AA81110AC0F601E15CF54F8591959178
:1029B000A591B4918C019A2EFB2EC801A92DBF2D93
:1029C000898B9A8BAB8BBC8B8091FD049091FE041C
:1029D000A091FF04B09100054091F9045091FA04D0
:1029E0006091FB047091FC040091F5041091F604D1
:1029F0002091F7043091F8040D871E872F87388BBC
:102A000049875A876B877C878D839E83AF83B8877E
:102A100019821A821B821C82AE014B5F5F4FBE017E
:102A2000675F7F4FCE010D960E94F16DCE0101963A
:102A30006C018E010F5E1F4F21E035E0AE014B5F50
:102A40005F4FBE01675F7F4F0C960E94017B0E9423
:102A5000046FAB100E94216264960FB6F894DEBF3B
:102A60000FBECDBFDF91CF911F910F91FF90EF90DF
:102A7000DF90CF90BF90AF909F907F906F905F90CE
:102A80004F903F902F90089561E075E083E00C94A3
:102A90000A7DCF93DF9300D0CDB7DEB72091A20D92
:102AA0003091A30DCE0101962115310529F48C5BDF
:102AB0009D409A83898304C0821B930B9A838983E8
:102AC00089819A810F900F90DF91CF910895FF92A5
:102AD0000F931F93CF93DF93FC0120812B3319F1C8
:102AE000D091DA04D430F8F4F62EBC01C091D804A9
:102AF0000C2F10E0F0E6CF9FC0011124885A9C4FA4
:102B00000E94EFB1F801EC53FD4FF082CF5FC4306B
:102B100018F4C093D80402C01092D804DF5FD09399
:102B2000DA0481E001C080E0DF91CF911F910F9125
:102B3000FF900895EF92FF921F93CF93DF937C0154
:102B400060E0C5DF182F8823C9F0E3EAF1E1649162
:102B5000EF012196662329F080EB9DE0D4DAFE0197
:102B6000F6CFB70189ED93E00E94EA8362E280EB41
:102B70009DE0C9DA6AE080EB9DE0C5DA812FDF9144
:102B8000CF911F91FF90EF900895DF92EF92FF9207
:102B90000F931F93CF93DF93CDB7DEB76E970FB62A
:102BA000F894DEBF0FBECDBF6091560370915703FE
:102BB0006115710541F14DE150E0CE0101967C01B6
:102BC0000E94A5B11E8EF7018F010E191F09D19029
:102BD000DD2019F09AE0D912F7CFF701E00FF11FCD
:102BE0001082C701A7DF882371F0DD20A9F00F5FF5
:102BF0001F4F8091560390915703080F191F109390
:102C000057030093560381E02091560330915703F8
:102C1000232B29F480E003C000E010E0F0CF6E9693
:102C20000FB6F894DEBF0FBECDBFDF91CF911F91DD
:102C30000F91FF90EF90DF900895EF92FF920F9326
:102C40001F93CF93DF937C0184E590DDD82F8823F9
:102C500069F1EFDDC82F18162CF5E3EAF1E1649174
:102C60008F010F5F1F4F662329F080EB9DE04BDA49
:102C7000F801F5CF6DE480EB9DE045DAA70160E057
:102C800070E020E080EB9DE00E940DA16C2FCC0F46
:102C9000770B86EC93E00E946B836AE080EB9DE00B
:102CA00032DA08C080930C03D0E004C0809119038D
:102CB00080930C038D2FDF91CF911F910F91FF9087
:102CC000EF9008950F931F93CF93DF9394E0899F24
:102CD000E00111248E01085D1C4FFE01EC5CFC4FED
:102CE000DE01A05CBC4F2D913D914D915C916081C6
:102CF0007181828193810E941CAAF8016083718393
:102D000082839383FE01ED5CF54F85919591A591AA
:102D1000B491FE01E45EFC4F80839183A283B38370
:102D2000FE01E95DF54F85919591A591B491CB5E3A
:102D3000DE4F88839983AA83BB83DF91CF911F9154
:102D40000F910895CF92DF92EF920F931F93CF933D
:102D5000DF93CDB7DEB760970FB6F894DEBF0FBE36
:102D6000CDBFE0901903E5EFF4E080859185A28561
:102D7000B3854481558166817781008111812281EB
:102D800033810D871E872F87388B49875A876B873A
:102D90007C878D839E83AF83B88719821A821B82BA
:102DA0001C82AE014B5F5F4FBE01675F7F4FCE015C
:102DB0000D960E94F16DCE0101966C0103E211E0C7
:102DC00021E035E0AE014B5F5F4FBE01675F7F4F93
:102DD0000C960E94017B60960FB6F894DEBF0FBE82
:102DE000CDBFDF91CF911F910F91EF90DF90CF90EA
:102DF00008958F929F92AF92BF92CF92DF92EF92FF
:102E00000F931F93CF93DF93CDB7DEB760970FB6C5
:102E1000F894DEBF0FBECDBF8C01E0901903E5EE44
:102E2000F4E080859185A285B385448155816681D2
:102E3000778180809180A280B3808D869E86AF86C8
:102E4000B88A49875A876B877C878D839E83AF8337
:102E5000B88719821A821B821C82AE014B5F5F4FBA
:102E6000BE01675F7F4FCE010D960E94F16DCE01CE
:102E700001966C0121EF34E0AE014B5F5F4FBE0164
:102E8000675F7F4F0C960E94017B60960FB6F894A7
:102E9000DEBF0FBECDBFDF91CF911F910F91EF909D
:102EA000DF90CF90BF90AF909F908F9008953F920A
:102EB0004F925F926F927F928F929F92AF92BF924A
:102EC000CF92DF92EF92FF920F931F93CF93DF93F6
:102ED000CDB7DEB72A970FB6F894DEBF0FBECDBFD1
:102EE0002B013C012D833E834F83588747015801B6
:102EF000DA86C9868091230190912401A091250151
:102F0000B091260189839A83AB83BC83D601EC9070
:102F10001196FC90119712960C91129713961C9192
:102F200020E030E0A901B701C8010E94F5AA811193
:102F300008C0E7E4FAE085919591A591B4917C01F0
:102F40008D01A50194016091FD047091FE048091B2
:102F5000FF04909100050E94F5AA87FF13C0C701E6
:102F6000D8018093230190932401A0932501B0936D
:102F700026018092FD049092FE04A092FF04B0927C
:102F80000005E0DEE985FA85D080C1803280F381DA
:102F9000F98720E030E0A9016D2D7C2D832D9F2F36
:102FA0000E94F5AA811109C0D0900B01C0900C01BC
:102FB00030900D0180910E0189878D2D9C2DA32DC0
:102FC000B9858093230190932401A0932501B093A8
:102FD00026014092F5045092F6046092F704709234
:102FE000F8048D819E81AF81B8858093F904909318
:102FF000FA04A093FB04B093FC04A4DE2091FD042A
:103000003091FE044091FF0450910005C501B401C8
:103010000E94F5AA87FF13C0C701D801809323013E
:1030200090932401A0932501B09326018092FD0482
:103030009092FE04A092FF04B092000583DE0E94ED
:10304000046F89819A81AB81BC8180932301909325
:103050002401A0932501B09326012A960FB6F89477
:10306000DEBF0FBECDBFDF91CF911F910F91FF90BB
:10307000EF90DF90CF90BF90AF909F908F907F9018
:103080006F905F904F903F900895CF92DF92EF92B4
:10309000FF920F931F936B01FC01E080F18002818E
:1030A0001381E5EFF4E02481358146815781608109
:1030B000718182819381FBDE1F910F91FF90EF90D0
:1030C000DF90CF900895CF92DF92EF92FF920F930F
:1030D0001F936A01E090FD04F090FE040091FF044C
:1030E00010910005FB012081318142815381FC0157
:1030F0006081718182819381DADE1F910F91FF904F
:10310000EF90DF90CF90089580912301909124015A
:10311000A0912501B091260180935203909353030F
:10312000A0935403B0935503809121019091220103
:10313000909351038093500384E690E09093220192
:103140008093210108958091520390915303A0919F
:103150005403B09155038093230190932401A093CD
:103160002501B093260180915003909151039093D3
:103170002201809321010895FF920F931F93CF9313
:10318000DF93882329F0D091E404D095D17001C059
:10319000D0E0662341F08091E4048695817091E04F
:1031A000F82EF92601C0F12C442341F0C091E4042B
:1031B000C2FB882780F9C1E0C82701C0C0E0D11157
:1031C00002C0FF2019F0E3EAF1E108C0C111FBCF12
:1031D00058C080EB9DE00E948310F80164918F013C
:1031E0000F5F1F4F6111F5CFE0ECF3E064918F01A9
:1031F0000F5F1F4F662331F080EB9DE00E9483102C
:10320000F801F4CFDD2371F0EEEBF3E064918F0170
:103210000F5F1F4F662331F080EB9DE00E9483100B
:10322000F801F4CFFF2071F0ECEBF3E064918F0133
:103230000F5F1F4F662331F080EB9DE00E948310EB
:10324000F801F4CFCC2319F0EAEBF3E003C0E2EB92
:10325000F3E00BC06491EF0121966623C1F380EB8C
:103260009DE00E948310FE01F5CF6491EF0121964D
:10327000662331F080EB9DE00E948310FE01F5CFC4
:10328000C1E08C2FDF91CF911F910F91FF90089596
:10329000BF92CF92DF92EF92FF920F931F93CF9343
:1032A000DF93CDB7DEB728970FB6F894DEBF0FBE19
:1032B000CDBF90910D05981709F47AC0B82E8823D8
:1032C00009F453C080E090E0A0E8B0E48D839E83D1
:1032D000AF83B887C0900803D0900903E0900A0339
:1032E000F0900B0320E030E0A901C701B6010E9475
:1032F000F5AA87FF0CC0A701960160E070E080E8A6
:1033000090E40E941BAA6D837E838F83988720E0C0
:1033100030E048E153E46D817E818F8198850E9481
:10332000F8AC181644F480E090E0A8E1B3E48D8393
:103330009E83AF83B8872D813E814F8158856091F0
:10334000FD047091FE048091FF04909100050E949D
:10335000F5AA87FF0AC019821A821B821C82BE014D
:103360006F5F7F4FCE01059690DE6091F5047091FE
:10337000F6048091F7049091F8042091F9043091BB
:10338000FA044091FB045091FC0419821A821B82BA
:103390001C82E090FD04F090FE040091FF04109167
:1033A0000005FE0131966F0182DD8B2D0E942C629B
:1033B00080E028960FB6F894DEBF0FBECDBFDF9138
:1033C000CF911F910F91FF90EF90DF90CF90BF9022
:1033D00008954F925F926F927F928F929F92AF92D9
:1033E000BF92CF92DF92EF92FF920F931F93CF93F2
:1033F000C82FE82EF12CF701E050F64FB490823040
:1034000021F481E045DF811110C16701CC0CDD1C86
:10341000CC0CDD1CF601E15FF54F459055906590B1
:1034200074906B2DBB0C770B880B990B0E9497AB9C
:103430004B015C0120E030E040EC5FE3C301B201EE
:103440000E9433ADA50194010E9433ADAB01BC01D4
:1034500000E010E098018C2F53DAC23061F0F601E1
:10346000ED5FF54F85919591A591B491E82F792F56
:103470006A2F8B2F04C0E0E070E060E480E42E2F20
:10348000372F462F582FC501B4010E9433AD4B0191
:103490005C0120E030E0A9010E94F5AA882309F42C
:1034A0005DC0C23021F000E010E0980104C000E0EF
:1034B00010E020E830E4B501A40170588C2F20DA28
:1034C000C23009F43AC0F701E450F74F649161113A
:1034D0001FC0E3EAF1E164917F018FEFE81AF80A77
:1034E000662331F080EB9DE00E948310F701F3CF5B
:1034F000EAEDF8E064917F018FEFE81AF80A66239D
:1035000031F080EB9DE00E948310F701F3CF6AE079
:10351000F601E15CF54F459055906590749070E030
:1035200080E090E00E9497AB9B01AC01C301B20127
:103530000E94FCAA2B013C0105C0412C512C612C9E
:1035400090E4792EA5019401C501B4010E941CAA42
:10355000AB01BC01930182018C2FD2D981E090E0B4
:103560000C2E01C0880F0A94EAF79091E304982B7F
:103570009093E3049091E404892B8093E404F60192
:10358000E05CFC4F10821182128213828C2F9ADB36
:10359000F601E55EF54F85919591A591B491F601FF
:1035A000EB50FB4F80839183A283B383C230D1F46D
:1035B000209108033091090340910A0350910B03B5
:1035C0006091FD047091FE048091FF0490910005CC
:1035D0000E941BAA6093FD047093FE048093FF0475
:1035E0009093000546D9F601EB51FB4FD601AB5045
:1035F000BB4F8D919D910D90BC91A02D80839183A7
:10360000A283B383C23089F480E0CF911F910F91E0
:10361000FF90EF90DF90CF90BF90AF909F908F90F2
:103620007F906F905F904F9033CECF911F910F910D
:10363000FF90EF90DF90CF90BF90AF909F908F90D2
:103640007F906F905F904F90089581E020910403E8
:1036500030910503232B09F480E008952F923F92C7
:103660004F925F926F927F928F929F92AF92BF9292
:10367000CF92DF92EF92FF920F931F93CF93DF933E
:10368000882E362E942E5901C12CD12C7601C42FB0
:10369000D0E022960C2DC81408F510E0212F30E060
:1036A00081E090E00A3010F080E090E08C0F9D1FE8
:1036B000281739073CF460E280EB9DE00E948310FC
:1036C0001F5FECCFB701A60180EB9DE00E9479A1BE
:1036D0008FEFC81AD80AE80AF80ADCCF6AE080EB54
:1036E0009DE00E948310C12CD12C7601092D10E0A1
:1036F0000E5F1F4F2C2CC31408F057C0E9E0EC15E7
:1037000028F060E280EB9DE00E948310B701A601E3
:1037100080EB9DE00E9479A1C0E0C815D9F160E27C
:1037200080EB9DE00E948310622D8C2FF50109959E
:103730002B013C019B01AC010E94E1AD882311F0FB
:10374000D0E01EC020E030E0A901C301B2010E9418
:10375000F8AC87FD05C06BE280EB9DE00E94831012
:10376000292DB301A20180EB9DE00E9486A110C02B
:10377000D1110CC060E280EB9DE00E948310DF5FFE
:103780008D2F90E0081719079CF702C06DE3F3CF67
:10379000CF5FC3CF6AE080EB9DE00E948310FFEF14
:1037A000CF1ADF0AEF0AFF0AA5CF6AE080EB9DE09F
:1037B000DF91CF911F910F91FF90EF90DF90CF900D
:1037C000BF90AF909F908F907F906F905F904F9041
:1037D0003F902F900C948310CF93DF93EFE0F3E0B2
:1037E0006491EF012196662331F080EB9DE00E9409
:1037F0008310FE01F5CF23E030E143E063E083E096
:10380000DF91CF912BCFCF92DF92EF92FF92609119
:10381000040370910503072E000C880B990B0E947E
:1038200097AB6B017C012DEB37E346E855EB0E942B
:10383000F8AC87FD0AC02DEB37E346E855E3C70136
:10384000B6010E94F5AA18164CF4A701960160E093
:1038500070E080E89FE30E94FCAA03C060E070E093
:10386000CB016093F8027093F9028093FA0290936F
:10387000FB026091060370910703072E000C880B72
:10388000990B0E9497AB6B017C012DEB37E346E867
:1038900055EB0E94F8AC87FD0AC02DEB37E346E8F4
:1038A00055E3C701B6010E94F5AA18164CF4A7010A
:1038B000960160E070E080E89FE30E94FCAA03C0EC
:1038C00060E070E0CB016093FC027093FD02809396
:1038D000FE029093FF02FF90EF90DF90CF9008954B
:1038E0009F92AF92BF92CF92DF92EF92FF920F938F
:1038F0001F93CF93DF938FE0A82E82E0B82E05EEC2
:1039000014E0C5EFD4E098E2C92E93E0D92E2CE460
:10391000E22E23E0F22E912CF50181915F010E94AD
:103920006913882309F10E94C213F7012081211134
:1039300004C020911803222339F0288139814A815B
:103940005B810E941CAA0AC0F3E09F1639F0F601C1
:1039500020813181428153810E941BAAF80160833A
:1039600071838283938309C088819981AA81BB81F5
:10397000F80180839183A283B38393940C5F1F4FDC
:103980002496F4E0CF0ED11C2FEFE21AF20A84E065
:103990009812C2CF86E40E94B6138823C9F00E9411
:1039A000C21320E030E0A9010E94F8AC181684F49C
:1039B0000E94C21320E030E040E752E40E94FCAADB
:1039C0006093230170932401809325019093260135
:1039D000DF91CF911F910F91FF90EF90DF90CF90EB
:1039E000BF90AF909F900895CF92DF92EF92FF9299
:1039F0000F931F93CF93DF930FB6F894C090A50D4C
:103A0000D090A60DE090A70DF090A80D0FBE80916C
:103A10001703811174C080910A01882309F46FC0D3
:103A20008091C302882309F46AC04091BF0250917B
:103A3000C0026091C1027091C20297018601041B0D
:103A4000150B260B370B37FD6DC0833031F134F485
:103A500081300CF454C0E3EAF1E106C0843009F08F
:103A60004EC0E3EAF1E133C06491EF012196662391
:103A700031F080EB9DE00E948310FE01F5CFEEE770
:103A8000F3E06491EF012196662309F438C080EBDE
:103A90009DE00E948310FE01F4CFE3EAF1E164911E
:103AA000EF012196662331F080EB9DE00E948310A8
:103AB000FE01F5CFE7E6F3E06491EF01219666237E
:103AC000F1F080EB9DE00E948310FE01F5CF649140
:103AD000EF012196662331F080EB9DE00E94831078
:103AE000FE01F5CFEFE4F3E06491EF012196662348
:103AF00031F080EB9DE00E948310FE01F5CF209114
:103B00000A0130E0A8EEB3E00E9402AAC60ED71E5A
:103B1000E81EF91EC092BF02D092C002E092C1021C
:103B2000F092C202DF91CF911F910F91FF90EF9021
:103B3000DF90CF9008950F931F93CF93DF9300D022
:103B400000D0CDB7DEB78091E30483708330E9F015
:103B5000E3EAF1E164918F010F5F1F4F662331F0BB
:103B600080EB9DE00E948310F801F4CFE5EBF8E0D4
:103B700064918F010F5F1F4F662309F43EC080EBF5
:103B80009DE00E948310F801F3CF0E94391480E079
:103B900090E0A8E9B2E48093E9049093EA04A0934A
:103BA000EB04B093EC048091FD049091FE04A0918D
:103BB000FF04B09100058093ED049093EE04A09370
:103BC000EF04B093F00480E090E0A0E4B2E48093CE
:103BD000E5049093E604A093E704B093E804198207
:103BE0001A821B821C82AE014F5F5F4F69EE74E048
:103BF00085EE94E068DA82E0ECDB0F900F900F9096
:103C00000F90DF91CF911F910F9108950F931F9304
:103C1000CF93DF93CDB7DEB769970FB6F894DEBFC9
:103C20000FBECDBF0E94E9916E8B7F8B888F998FDD
:103C3000BE016F5F7F4FCE0146960E948D12E3EA70
:103C4000F1E164918F010F5F1F4F662331F080EB2C
:103C50009DE00E948310F801F4CFBE016F5F7F4F9B
:103C600084EF97E00E94EA836AE080EB9DE00E9487
:103C7000831069960FB6F894DEBF0FBECDBFDF91FB
:103C8000CF911F910F910895CF93DF93E9EAF1E16E
:103C90006491EF012196662331F080EB9DE00E9454
:103CA0008310FE01F5CFE5EEF7E06491EF01219678
:103CB000662331F080EB9DE00E948310FE01F5CF7A
:103CC000DF91CF9108950F931F93CF9383E50E94C7
:103CD000B613882309F440C00E941914082F80E508
:103CE0000E94B6138823C1F10E941914C82F87FDC2
:103CF00033C089E40E94B613882339F00E942A1445
:103D0000811112C0E2EEF2E00BC089E40E94691357
:103D100081110AC0F7CF319683E0EF30F80721F028
:103D20008491C813F8CF14C08C2F0E9487A2EC2F67
:103D3000F0E0002E0E942CA310E0B8018C2F0E940E
:103D400098A2C03149F410931B0300931A0304C0D6
:103D5000CF911F910F9198CFCF911F910F910895FF
:103D6000CF93DF9388E690E00E941D1681112EC04C
:103D70008091050583FD2AC083E50E94B613882340
:103D800009F10E94C213C0915201D09153012F97A3
:103D90000E9464AB9E016C177D070CF49B0130936D
:103DA0009A0D2093990D80E00E94DA950E94C2132B
:103DB00020E030E04AEA52E40E94F5AA181614F016
:103DC0000E949291DF91CF910C94F47DDF91CF917D
:103DD0000895CF92DF92EF92FF9283E50E94B6138F
:103DE000882321F10E9419148D3308F08CE380930D
:103DF000350D0FB6F894C090A50DD090A60DE090AB
:103E0000A70DF090A80D0FBE282F30E0A8EEB3E06C
:103E10000E9402AAC60ED71EE81EF91EC092310DDE
:103E2000D092320DE092330DF092340DFF90EF906E
:103E3000DF90CF90089580E50E94B613811106C0EF
:103E400083E50E94B613882359F005C00E94191417
:103E500081110CC0F5CF0E94F9136F3F710510F06E
:103E60006FEF70E070931B0360931A030895DF9265
:103E7000EF92FF920F931F93CF93DF9383E50E94FE
:103E80006913882359F083E50E94B613882319F03B
:103E90000E94191401C080E080930505E3EAF1E176
:103EA0006491EF012196662331F080EB9DE00E9442
:103EB0008310FE01F5CFEAE9F7E06491EF01219666
:103EC000662331F080EB9DE00E948310FE01F5CF68
:103ED000809105058823A9F181EAE82E87E0F82E74
:103EE00000E010E020E08091050590E0002E02C087
:103EF000959587950A94E2F780FF1AC0DD24D39444
:103F0000D20E222329F06CE280EB9DE00E94831008
:103F1000F70185919491FC016491EF01219666234C
:103F200031F080EB9DE00E948310FE01F5CF2D2D36
:103F30000F5F1F4F82E0E80EF11C0530110599F666
:103F40000DC0E6E9F7E06491EF012196662331F0B8
:103F500080EB9DE00E948310FE01F5CF6AE080EBCC
:103F60009DE0DF91CF911F910F91FF90EF90DF9037
:103F70000C948310CF93DF9383E50E94B6138823BC
:103F800051F00E9419148D3308F08CE380930A01DC
:103F9000DF91CF910895E3EAF1E16491EF01219679
:103FA000662331F080EB9DE00E948310FE01F5CF87
:103FB00040910A0150E060E070E08FE897E00E94D5
:103FC000C9836AE080EB9DE0DF91CF910C94831070
:103FD0004F925F926F927F92AF92BF92CF92DF9299
:103FE000EF92FF920F931F93CF938FE0A82E82E062
:103FF000B82E0AEC15E0C0E0F50181915F010E9446
:104000006913882309F46DC0C33009F063C00E94AE
:10401000C2136B017C0120E030E040EA51E40E94D1
:10402000F5AA87FF4EC0A70196016091D605709151
:10403000D7058091D8059091D9050E94FCAA2B0143
:104040003C019B01AC016091A2057091A305809198
:10405000A4059091A5050E9433AD6093A2057093CD
:10406000A3058093A4059093A505A30192016091F7
:10407000E6057091E7058091E8059091E9050E94B9
:1040800033AD6093E6057093E7058093E805909360
:10409000E9056091FA057091FB058091FC0590910E
:1040A000FD050E9495ABA30192010E9433AD0E94D1
:1040B00069AB6093FA057093FB058093FC059093C0
:1040C000FD05C092D605D092D705E092D805F092B2
:1040D000D90507C00E94C213F801608371838283EF
:1040E0009383CF5F0C5F1F4FC43009F085CFCF9112
:1040F0001F910F91FF90EF90DF90CF90BF90AF9006
:104100007F906F905F904F900C94D07D0F931F9392
:10411000CF93DF93C5EFD4E008E213E0F8012081EC
:10412000318142815381688179818A819B810E949A
:104130001CAAAB01BC0186E493E00E94A883F801AD
:1041400024813581468157816C817D818E819F815B
:104150000E941CAAAB01BC0182E493E00E94A883E8
:10416000F8012085318542855385688579858A8562
:104170009B850E941CAAAB01BC018EE393E00E94C8
:10418000A8834C855D856E857F858AE393E00E94D8
:10419000A883DF91CF911F910F910C94F1902F92F2
:1041A0003F924F925F926F927F928F929F92AF92C7
:1041B000BF92CF92DF92EF92FF920F931F93CF9314
:1041C000DF938FE0882E82E0982EC0E4D3E095EF55
:1041D000A92E94E0B92E08E213E0312C212CF40131
:1041E00081914F010E94B613882309F44AC00E94AE
:1041F000C2136B017C01F3E03F1649F0F801208106
:104200003181428153810E941BAA6B017C01F5011F
:104210002081318142815381C701B6010E941BAACE
:104220002B013C012DEB37E346E855EB0E94F8AC3F
:1042300087FD0AC02DEB37E346E855E3C301B20121
:104240000E94F5AA1816ECF4F3E03F120BC0C092DE
:104250000105D0920205E0920305F09204052224A4
:1042600023940FC0A3019201688179818A819B8187
:104270000E941CAA688379838A839B83832D0E9472
:1042800062163394249684E0A80EB11C0C5F1F4F75
:10429000E4E03E12A4CF21100E944415DF91CF919B
:1042A0001F910F91FF90EF90DF90CF90BF90AF9054
:1042B0009F908F907F906F905F904F903F902F9046
:1042C00025CFCF93DF93E7EBF6E06491EF012196E2
:1042D000662331F080EB9DE00E948310FE01F5CF54
:1042E00060E087EA96E00E94321261E080EA96E0A0
:1042F0000E94321261E085E996E00E94321261E08C
:1043000085E896E00E94321260E08CE796E00E9419
:10431000321261E082E796E00E94321261E088E6A4
:1043200096E00E94321261E080E696E00E9432122E
:1043300061E082E596E00E94321260E084E496E05B
:104340000E94321260E085E396E00E94321260E043
:1043500087E296E00E94321260E081E196E00E94DE
:10436000321260E080E096E00E94321260E08BEE54
:1043700095E00E94321261E088ED95E0DF91CF91E7
:104380000C943212CF92DF92EF92FF92CF9388EC8F
:1043900090E00E941D1681114EC084E40E946913B2
:1043A000882309F441C00E94C2136B017C01C1E063
:1043B00020E030E0A9010E94F5AA811101C0C0E00F
:1043C000C0933A0520E030E0A901C701B6010E9480
:1043D000F5AA882349F10E94C213E0910C0324E05E
:1043E000E29FF0011124EE56FA4F608371838283BD
:1043F000938320E030E0A9016091920570919305CC
:1044000080919405909195050E94F5AA81110CC0A8
:1044100080E090E0A0EEBFE3809392059093930537
:10442000A0939405B0939505CF91FF90EF90DF9006
:10443000CF900C948C6DCF91FF90EF90DF90CF9048
:104440000895CF9383E50E94B6138823A1F00E94BC
:10445000C2136093B2057093B3058093B405909333
:10446000B5056093AA057093AB058093AC05909356
:10447000AD05C0E001C0C1E080E50E94B61388230D
:1044800059F00E94C2136093B2057093B3058093F4
:10449000B4059093B505C0E082E50E94B613882369
:1044A00059F00E94C2136093AE057093AF058093DC
:1044B000B0059093B105C0E084E50E94B61388234F
:1044C00059F00E94C2136093AA057093AB058093C4
:1044D000AC059093AD052CC0CC2351F14091B205B1
:1044E0005091B3056091B4057091B50584EC95E0E9
:1044F0000E94A8834091AE055091AF056091B00530
:104500007091B10581EC95E00E94A8834091AA05C5
:104510005091AB056091AC057091AD058EEB95E0C7
:104520000E94A8836AE080EB9DE0CF910C948310F9
:10453000CF910895CF93DF9381E50E94691388237B
:1045400051F00E9409146093EA057093EB05809383
:10455000EC059093ED0583E50E946913882351F0E3
:104560000E94C2136093B6057093B7058093B80597
:104570009093B90584E50E946913882351F00E9445
:10458000C2136093A6057093A7058093A805909326
:10459000A90588E50E946913882351F00E94C2137F
:1045A000609396057093970580939805909399056D
:1045B00089E50E946913882351F00E94C213609319
:1045C0009A0570939B0580939C0590939D058AE5C1
:1045D0000E9469138823F9F00E94C21360939E051C
:1045E00070939F058093A0059093A1052DEC3CEC62
:1045F0004CEC5DE30E94F5AA18166CF0ECE8F5E0CF
:104600006491EF012196662331F080EB9DE00E94DA
:104610008310FE01F5CF85E40E946913882351F0D1
:104620000E94C2136093A2057093A3058093A40512
:104630009093A505DF91CF910895CF93DF93E3EA9F
:10464000F1E16491EF012196662331F080EB9DE06A
:104650000E948310FE01F5CF83E50E946913882331
:1046600021F00E942A1480931401ECE7F5E0649194
:10467000EF012196662331F080EB9DE00E948310CC
:10468000FE01F5CF80911401811103C0E4E7F5E04C
:1046900002C0E8E7F5E06491EF012196662331F06E
:1046A00080EB9DE00E948310FE01F5CFECE6F5E083
:1046B0006491EF012196662331F080EB9DE00E942A
:1046C0008310FE01F5CF20912803309129034091FA
:1046D0002A0350912B0360911C0370911D0380915C
:1046E0001E0390911F030E941CAAAB01BC018AE625
:1046F00095E00E94A88320912C0330912D034091D6
:104700002E0350912F03609120037091210380911B
:104710002203909123030E941CAAAB01BC0187E6EF
:1047200095E00E94A883209130033091310340919D
:1047300032035091330360912403709125038091DB
:104740002603909127030E941CAAAB01BC0184E6BA
:1047500095E00E94A883ECE5F5E06491EF012196D5
:10476000662331F080EB9DE00E948310FE01F5CFBF
:10477000209128033091290340912A0350912B0363
:1047800060911501709116018091170190911801A7
:104790000E941CAAAB01BC018AE595E00E94A88397
:1047A00020912C0330912D0340912E0350912F0323
:1047B0006091190170911A0180911B0190911C0167
:1047C0000E941CAAAB01BC0187E595E00E94A8836A
:1047D00020913003309131034091320350913303E3
:1047E00060911D0170911E0180911F019091200127
:1047F0000E941CAAAB01BC0184E595E00E94A8833D
:104800006AE080EB9DE0DF91CF910C9483100F93D1
:104810001F93CF93DF938DED90E00E941D168111C1
:1048200070C083E50E94B6138823B9F1C0910C03D0
:10483000D0E00E94F913CC0FDD1FC45CDE4F7983FA
:10484000688380910C0390E0EC01CC0FDD1FCC0F4E
:10485000DD1F8E01085C1E4F880F991FFC01E45C70
:10486000FE4F60817181072E000C880B990B0E940E
:1048700097AB2AE037ED43E25CE30E9433ADC257C9
:10488000DA4F288139814A815B810E9433ADF8017A
:10489000608371838283938334C0E3EAF1E164919E
:1048A000EF012196662331F080EB9DE00E9483109A
:1048B000FE01F5CF65E480EB9DE00E9483106091DE
:1048C0000C03605D80EB9DE00E948310E0910C037F
:1048D000F0E0EE0FFF1FE45CFE4F608171818CE41D
:1048E00095E00E946B8365E280EB9DE00E9483105F
:1048F0006AE080EB9DE0DF91CF911F910F910C94C6
:104900008310DF91CF911F910F910895CF93DF9383
:104910008AE50E94B613811105C083E50E94B61393
:104920008823D1F10E94C21320E030E040E050EC37
:104930000E94F5AA87FD12C00E94C21320E030E059
:1049400040E050E40E94F8AC18161CF00E94C2131C
:1049500009C060E070E080E090E404C060E070E0D6
:1049600080E090EC2091E30422FF16C0C091740D0A
:10497000D091750D2091D2053091D3054091D40589
:104980005091D5050E9433AD0E9464AB6C0F7D1F22
:104990007093750D6093740DDF91CF910895CF934F
:1049A000DF9385E40E94B613811110C080E50E9458
:1049B0006913882391F00E94C21360937E0D709357
:1049C0007F0D8093800D9093810D07C00E94191474
:1049D000882361F3E9EAF1E172C089E40E94691376
:1049E000882381F00E94C2132CEA35EC47E25EE393
:1049F0000E9433AD60937A0D70937B0D80937C0D94
:104A000090937D0D84E40E946913882381F00E94B5
:104A1000C2132CEA35EC47E25EE30E94FCAA6093E5
:104A2000760D7093770D8093780D9093790DE3EA6E
:104A3000F1E16491EF012196662331F080EB9DE076
:104A40000E948310FE01F5CF40917E0D50917F0DA5
:104A50006091800D7091810D88E495E00E94A8839B
:104A60002CEA35EC47E25EE360917A0D70917B0DA4
:104A700080917C0D90917D0D0E94FCAAAB01BC0140
:104A800084E495E00E94A8832CEA35EC47E25EE3DB
:104A90006091760D7091770D8091780D9091790DE0
:104AA0000E9433ADAB01BC0180E495E00E94A88375
:104AB0006AE080EB9DE0DF91CF910C9483106491CC
:104AC000EF012196662331F080EB9DE00E94831078
:104AD000FE01F5CFEEE2F5E06491EF012196662349
:104AE00031F080EB9DE00E948310FE01F5CFDF9155
:104AF000CF910895CF93DF9383E50E946913C82F68
:104B0000882371F00E94C2130E9464AB7093570116
:104B10006093560121E0672B09F020E02093690D96
:104B200080E50E946913882359F020915601309145
:104B30005701232B11F00E942A148093690D31C074
:104B4000C1112FC0E3EAF1E16491EF0121966623E0
:104B500031F080EB9DE00E948310FE01F5CF809143
:104B6000690D811103C064EF71E002C061EF71E073
:104B70008BE195E00E94EA836091560170915701A4
:104B80008AE095E00E946B83E6E0F5E06491EF0136
:104B90002196662331F080EB9DE00E948310FE0198
:104BA000F5CFDF91CF9108958F929F92AF92BF92F0
:104BB000EF92FF920F931F93CF93DF9300D000D01B
:104BC000CDB7DEB785E40E94B613882321F00E949A
:104BD000F9138B0102C000E010E083E40E94B613D9
:104BE000882321F00E94F913F62E02C025E0F22E50
:104BF00085E50E94B613882321F00E942A14E82E2E
:104C000004C085E50E946913E82E17FD07C0812CBA
:104C1000912C96E1A92E93E4B92E06C0812C912CFB
:104C20008CE8A82E82E4B82E83E50E94B613882370
:104C300021F00E94C2134B015C01C501B4010E9426
:104C400064AB0115110511F410920C03072E000C32
:104C5000880B990B0E9497AB69837A838B839C8323
:104C60002E2D4F2D602FCE0101960E94E49B0F90B8
:104C70000F900F900F90DF91CF911F910F91FF90A8
:104C8000EF90BF90AF909F908F900895FF920F93F9
:104C90001F93CF93DF9389E40E94B613882321F0FA
:104CA0000E94F913062F01C00FEF8AE40E94B61389
:104CB000882321F00E94F913C62F01C0CFEF8AE5A7
:104CC0000E946913D82F811105C081E50E946913E4
:104CD000F82E01C0F12C07FD02C0C7FF03C0E9EAAE
:104CE000F1E10AC0D1111BC0F11019C0F8CF80EB5F
:104CF0009DE00E948310FE016491EF0121966111F5
:104D0000F6CFE7EAF4E06491EF012196662309F417
:104D100056C080EB9DE00E948310FE01F4CF03306B
:104D200010F4C330D0F0E9EAF1E16491EF0121968B
:104D300061110DC0E8E8F4E06491EF01219666236B
:104D4000F1F180EB9DE00E948310FE01F5CF80EB36
:104D50009DE00E948310FE01E8CF002E000C110B95
:104D60000C2E000CDD0B0E94C2139B01AC01D8017C
:104D7000AA0FBB1FFF2081F0FD01E00FF11FEC0F18
:104D8000FD1FEE0FFF1FEE0FFF1FEC52FD4F608166
:104D900071818281938103C060E070E0CB010A0FD2
:104DA0001B1FC00FD11FCC0FDD1FCC0FDD1FCC523E
:104DB000DD4F0E941CAA688379838A839B83DF91DD
:104DC000CF911F910F91FF9008952F923F924F9294
:104DD0005F926F927F928F929F92AF92BF92CF928B
:104DE000DF92EF92FF920F931F93CF93DF93CDB794
:104DF000DEB72E970FB6F894DEBF0FBECDBF41E0F1
:104E000061E081E00E94BC188111B9C00BE11AE099
:104E100085EF94E09E878D87FE0131965F0190E0DB
:104E2000892E9AE0992E1F01F8016591759185915F
:104E30009491ED85FE85C190D190E190F190FE872F
:104E4000ED87A70196010E941BAA2B013C01F101ED
:104E5000608371838283938320E030E040EA51ECE9
:104E60000E94F8AC87FD0AC020E030E040EA51E43F
:104E7000C301B2010E94F5AA18162CF4F401849122
:104E800018160CF472C0F101C190D190E190F1902C
:104E90001F0120E030E040EA51ECC701B6010E945A
:104EA000F8AC87FD0AC020E030E040EA51E4C701D9
:104EB000B6010E94F5AA1816F4F4E9EAF1E164914A
:104EC0008F010F5F1F4F611103C0EAE6F4E006C0D7
:104ED00080EB9DE00E948310F801F1CF64918F0177
:104EE0000F5F1F4F662309F44AC080EB9DE00E94CC
:104EF0008310F801F3CF0C5F1F4FFFEF8F1A9F0A4B
:104F00008AE00732180709F08FCF84E3E82E83E0A8
:104F1000F82E10E0F50181919191A191B1915F017D
:104F2000F70181939193A193B1937F01812F0E9407
:104F300062161F5F133071F72E960FB6F894DEBF1E
:104F40000FBECDBFDF91CF911F910F91FF90EF90DA
:104F5000DF90CF90BF90AF909F908F907F906F9099
:104F60005F904F903F902F90D1C8F7FAF094F7F8E8
:104F7000F094F101C082D182E282F38284CF2E9636
:104F80000FB6F894DEBF0FBECDBFDF91CF911F915A
:104F90000F91FF90EF90DF90CF90BF90AF909F90D8
:104FA0008F907F906F905F904F903F902F900895DB
:104FB000CF93DF930E94C0618823D1F0E3EAF1E14F
:104FC0006491EF012196662331F080EB9DE00E9411
:104FD0008310FE01F5CFEFE5F4E06491EF01219637
:104FE000662331F080EB9DE00E948310FE01F5CF37
:104FF000DF91CF910895CF92DF92EF92FF92CF93FE
:10500000DF938AE50E94B613811103C0E3EAF1E160
:105010003EC00E94C2136B017C0120E030E040E002
:1050200050EC0E94F8AC87FD0AC020E030E040EA76
:1050300051E4C701B6010E94F5AA18161CF4E9EA6A
:10504000F1E10EC0C0920803D0920903E0920A0376
:10505000F0920B0345C080EB9DE00E948310FE019F
:105060006491EF0121966111F6CFE3E4F4E06491DD
:10507000EF0121966623A1F180EB9DE00E94831051
:10508000FE01F5CF80EB9DE00E948310FE0164914C
:10509000EF0121966111F6CFE4E3F4E06491EF01B2
:1050A0002196662331F080EB9DE00E948310FE0183
:1050B000F5CF409108035091090360910A03709164
:1050C0000B0381E394E00E94A8836AE080EB9DE0FB
:1050D000DF91CF91FF90EF90DF90CF900C948310F1
:1050E000DF91CF91FF90EF90DF90CF900895CF9216
:1050F000DF92EF92FF92CF93DF938BE40E94B6137F
:10510000811103C0E3EAF1E136C08BE40E94B613DB
:105110008823C1F00E94C2136B017C0120E030E0C3
:10512000A9010E94F8AC87FD0AC020E030E040E20F
:1051300051E4C701B6010E94F5AA181634F4E2E161
:10514000F4E00EC0C12CD12C76010E94046FC092F5
:105150005305D0925405E0925505F09256052DC0A6
:105160006491EF012196662341F180EB9DE00E945E
:105170008310FE01F5CF6491EF012196662331F093
:1051800080EB9DE00E948310FE01F5CF4091530516
:1051900050915405609155057091560587E094E053
:1051A0000E94A8836AE080EB9DE0DF91CF91FF90A1
:1051B000EF90DF90CF900C948310DF91CF91FF9010
:1051C000EF90DF90CF9008951F93CF93DF93182F28
:1051D000E3EAF1E16491EF012196662331F080EB7F
:1051E0009DE00E948310FE01F5CF64E580EB9DE019
:1051F0000E948310412F50E060E070E020E080EBDF
:105200009DE00E940DA160E280EB9DE00E94831072
:10521000E6EEF3E06491EF012196662331F080EB36
:105220009DE00E948310FE01F5CFDF91CF911F9189
:105230000895CF93DF93E091D904F0E0EC53FD4F54
:1052400080818823A1F0EFECF2E06491EF012196D8
:10525000662331F080EB9DE00E948310FE01F5CFC4
:105260006AE080EB9DE0DF91CF910C948310DF9199
:10527000CF910895CF92DF92EF92FF92CF93DF9379
:1052800020911401222309F485C0EC01C0901C0375
:10529000D0901D03E0901E03F0901F03A70196011C
:1052A000688179818A819B810E94F5AA87FF04C069
:1052B000C882D982EA82FB82C0902003D090210369
:1052C000E0902203F0902303A70196016C817D8179
:1052D0008E819F810E94F5AA87FF04C0CC82DD8267
:1052E000EE82FF82C0901501D0901601E090170168
:1052F000F0901801A7019601688179818A819B81CC
:105300000E94F8AC181624F4C882D982EA82FB8283
:10531000C0901901D0901A01E0901B01F0901C017F
:10532000A70196016C817D818E819F810E94F8ACDE
:10533000181624F4CC82DD82EE82FF82C090240312
:10534000D0902503E0902603F0902703A701960153
:10535000688579858A859B850E94F5AA87FF04C0A8
:10536000C886D986EA86FB86C0901D01D0901E01B2
:10537000E0901F01F0902001A701960168857985D2
:105380008A859B850E94F8AC181624F4C886D986B5
:10539000EA86FB86DF91CF91FF90EF90DF90CF9070
:1053A00008958F929F92AF92BF92CF92DF92EF9229
:1053B000FF920F931F93CF93DF93EC016091000353
:1053C00070910103072E000C880B990B0E9497AB7C
:1053D0009B01AC01688179818A819B810E941BAA13
:1053E0004B015C016091020370910303072E000CD6
:1053F000880B990B0E9497AB9B01AC016C817D815E
:105400008E819F810E941BAA6B017C012091060165
:10541000309107014091080150910901C501B40183
:105420000E94F5AA882309F469C08092060190922F
:105430000701A0920801B09209012091F802309171
:10544000F9024091FA025091FB02C501B4010E9499
:1054500033AD4B015C010E94D2AB8B01D82FC92F19
:1054600020E030E0A9010E94F5AA87FD10C020E0ED
:1054700030E040E050E4B8018D2F9C2F0E94F8AC42
:1054800018164CF400E010E0D0E0C0E404C000E0E6
:1054900010E0D0E0C0E098014D2F5C2FC501B401B1
:1054A0000E941BAA4B015C0120E030E0A9010E9490
:1054B000F5AA87FD09C080924E0290924F02A092F9
:1054C0005002B092510208C010924E0210924F0248
:1054D0001092500210925102B8018D2F9C2F0E9401
:1054E00064AB60934D02062E000C770B6F5F7F4F0D
:1054F000623071050CF062E060934C022091020171
:10550000309103014091040150910501C701B6019A
:105510000E94F5AAD0910101C0914D02811103C0F2
:10552000DC1366C02CC1C0920201D0920301E0924C
:105530000401F09205012091FC023091FD0240919E
:10554000FE025091FF02C701B6010E9433AD6B010C
:105550007C010E94D2AB5B018C0120E030E0A9010C
:105560000E94F5AA87FD0FC020E030E040E050E443
:10557000B501C8010E94F8AC18164CF4A12CB12C4E
:1055800000E010E404C0A12CB12C00E010E0950173
:10559000A801C701B6010E941BAA6B017C0120E093
:1055A00030E0A9010E94F5AA87FD09C0C092480217
:1055B000D0924902E0924A02F0924B0208C0109247
:1055C00048021092490210924A0210924B02B50111
:1055D000C8010E9464AB60934702062E000C770B53
:1055E0006F5F7F4F623071050CF062E0609346029E
:1055F00020914702DC1305C080910001821709F455
:1056000074C0C0930101209300018C2FCC0F990B23
:10561000C22F220FDD0B9C01220F331F820F931F1D
:10562000FC01EC0FFD1FEE0FFF1FEE0FFF1FEC52F2
:10563000FD4F20813181428153812093420230937A
:105640004302409344025093450200914602002ECB
:10565000000C110BFC01E00FF11FEE0FFF1FEE0F0E
:10566000FF1FEC52FD4F60817181828193810E9406
:105670001BAA60933E0270933F0280934002909376
:105680004102E0914C020E2E000CFF0BCF01880F5F
:10569000991FE80FF91FCE0FDF1FCC0FDD1FCC0FB6
:1056A000DD1FCC52DD4F288139814A815B812093F7
:1056B0003A0230933B0240933C0250933D02E00F8C
:1056C000F11FEE0FFF1FEE0FFF1FEC52FD4F608129
:1056D0007181828193810E941BAA6093360270932C
:1056E000370280933802909339028090480290905C
:1056F0004902A0904A02B0904B0220913E023091A4
:105700003F024091400250914102C501B4010E9404
:1057100033AD2091420230914302409144025091B6
:1057200045020E941CAA6B017C01609332027093B7
:1057300033028093340290933502209136023091E7
:1057400037024091380250913902C501B4010E94DC
:1057500033AD20913A0230913B0240913C0250918E
:105760003D020E941CAAA70196010E941BAA6093F9
:105770002E0270932F028093300290933102209179
:105780002E0230912F0240913002509131026091EF
:105790004E0270914F0280915002909151020E94EE
:1057A00033AD209132023091330240913402509156
:1057B00035020E941CAADF91CF911F910F91FF909B
:1057C000EF90DF90CF90BF90AF909F908F90089513
:1057D000CF93DF9380E00E94EE6EC8ECD2E0688346
:1057E00079838A839B8381E00E94EE6E6C837D8344
:1057F0008E839F8382E00E94EE6E688779878A8716
:105800009B87DF91CF910895CF93DF93E1DF6BE525
:1058100080EB9DE00E948310C8ECD2E04881598162
:105820006A817B8122E080EB9DE00E9486A14C8111
:105830005D816E817F818CE493E00E94A88348851E
:1058400059856A857B8589E493E00E94A8836DE58C
:1058500080EB9DE00E9483106AE080EB9DE0DF9189
:10586000CF910C948310CF93C82FB2DF88EC92E0D5
:105870000E94676ECE3F51F48CE0E8ECF2E0A5EFB9
:10588000B4E001900D928A95E1F713C024E0C29F25
:10589000C0011124FC01EB50FB4FDC01A853BD4FAC
:1058A0008D919D910D90BC91A02D80839183A283B9
:1058B000B383CF9108951F93CF93DF93CDB7DEB716
:1058C0002C970FB6F894DEBF0FBECDBF882331F002
:1058D0002091040330910503232B01F190918D0554
:1058E0008917E1F0182F0E94046F8CE0E1E6F1E0E7
:1058F000DE01119601900D928A95E1F7CE01019695
:1059000050DD10938D05111103C082E0ACDF04C09F
:1059100085EF94E00E94676E0E9439142C960FB6B2
:10592000F894DEBF0FBECDBFDF91CF911F910895D8
:10593000CF92DF92EF92FF920F931F93CF93DF935B
:10594000CDB7DEB72C970FB6F894DEBF0FBECDBF34
:105950007B018C01D42E9B01AC0160918905709173
:105960008A0580918B0590918C050E94F5AA882369
:1059700009F494C0C0908D0580E09DDF20E030E008
:10598000A901B701C8010E94F8AC181624F0E12C57
:10599000F12C00E010E0C701D801809389059093B5
:1059A0008A05A0938B05B0938C052DEB37E346E871
:1059B00055EBB701C8010E94F8AC87FD0AC02DEB7A
:1059C00037E346E855E3B701C8010E94F5AA181667
:1059D0004CF49701A80160E070E080E89FE30E942A
:1059E000FCAA03C060E070E0CB0160938505709372
:1059F0008605809387059093880580EF9FEFA9E740
:105A0000B4EC8093810590938205A0938305B093B5
:105A10008405CC2009F442C08091F5049091F604ED
:105A2000A091F704B091F80489839A83AB83BC8377
:105A30008091F9049091FA04A091FB04B091FC04C8
:105A40008D839E83AF83B8878091FD049091FE047F
:105A5000A091FF04B091000589879A87AB87BC8726
:105A600081E029DFDD20D1F04CE050E065EF74E00B
:105A7000CE0101960E94CEB1892B81F02C960FB6F3
:105A8000F894DEBF0FBECDBFDF91CF911F910F9174
:105A9000FF90EF90DF90CF900C9486202C960FB65D
:105AA000F894DEBF0FBECDBFDF91CF911F910F9154
:105AB000FF90EF90DF90CF90089580E0FCDE109291
:105AC000070310920603109205031092040310922C
:105AD0000303109202031092010310920003E4EDFD
