:100000000C9400100C942A100C942A100C942A10B2
:100010000C942A100C942A100C942A100C942A1078
:100020000C942A100C942A100C941BA90C9498A9D7
:100030000C942A100C942A100C942A100C942A1058
:100040000C942A100C942A860C942A100C942A10D2
:100050000C942A100C942A100C948F9C0C947AA85F
:100060000C942A100C942A100C942A100C942A1028
:100070000C942A100C942A100C942A100C942A1018
:100080000C942A100C942A100C942A100C942A1008
:100090000C942A100C942A1009A635A657A657A628
:1000A00057A657A657A657A657A657A657A657A668
:1000B00057A657A64DA645A63DA657A657A657A68E
:1000C00057A657A657A657A62FA615A61DA627A61C
:1000D000084AD73B3BCE016E84BCBFFDC12F3D6CAF
:1000E00074319ABD56833DDA3D00C77F11BED9E415
:1000F000BB4C3E916BAAAABE000000803F05A84CF5
:10010000CDB2D44EB93836A9020C50B991868808C0
:100110003CA6AAAA2ABE000000803F004E414E49DC
:100120004E495459494E46CDCCCC3D0AD7233C17B5
:10013000B7D13877CC2B329595E6241FB14F0A0002
:100140000020410000C84200401C4620BCBE4CCAF2
:100150001B0E5AAEC59D742020506C616E6E657288
:1001600042756666657242797465733A200020466E
:10017000726565204D656D6F72793A2000436F6D31
:1001800070696C65643A204D6179202032203230EC
:1001900032300A00207C20417574686F723A202842
:1001A0006A6E6F656C2C20323032302D30352D3038
:1001B00032290A00323031382D30382D30310020CC
:1001C0004C61737420557064617465643A20003129
:1001D0002E312E390A004D61726C696E0020536F0A
:1001E0006674776172652052657365740A002057E2
:1001F00061746368646F672052657365740A0020D8
:1002000042726F776E206F75742052657365740A41
:10021000002045787465726E616C20526573657458
:100220000A00506F77657255700A007374617274BA
:100230000A005072696E7465722068616C7465643E
:100240002E206B696C6C28292063616C6C656421BD
:100250000A004B494C4C45442E20004B494C4C2045
:1002600063617573656420627920746F6F206D75AA
:10027000636820696E6163746976652074696D6571
:10028000202D2063757272656E7420636F6D6D61D1
:100290006E643A200020746F6F206C6F6E6720656B
:1002A0007874727573696F6E2070726576656E749E
:1002B00065640A0020636F6C6420657874727573DE
:1002C000696F6E2070726576656E7465640A006F82
:1002D0006B00526573656E643A20003A00436170AA
:1002E0003A0000011C1D132FFFFFFFFF1E1F12FF0E
:1002F00014FFFFFF20211124FFFFFFFFFFFFFF0E70
:1003000010FFFFFF22230DFFFFFF0E260FFF2742E6
:10031000696C696E656172204C6576656C696E67A3
:1003200020477269643A0A00416374697665204522
:10033000787472756465723A200020453A00205A3C
:100340003A0020593A00583A002C20002C20006234
:100350007573793A2070617573656420666F7220D9
:10036000696E7075740A00627573793A20706175F0
:1003700073656420666F7220757365720A0062751A
:1003800073793A2070726F63657373696E670A00E0
:1003900050726F62696E67206661696C65640A00FD
:1003A000205A3A200020593A200042656420583AE9
:1003B00020002066697273740A005A0059005800C0
:1003C000486F6D65200020496E76616C6964206518
:1003D000787472756465722000656E7175657565F7
:1003E000696E67202200496E76616C6964206578C9
:1003F0007472756465720A004E6F206361736520C4
:100400006C696768740A00416476616E6365204BAD
:100410003D003F4B2076616C7565206F7574206FD1
:10042000662072616E67652028302D3130292E0AD2
:10043000003A200050726F6265205A204F66667342
:100440006574003F5A206F7574206F662072616E6C
:10045000676520282D3220746F203230290A00452C
:100460004550524F4D204F4B0A00546F6F2066612C
:10047000722066726F6D207265666572656E636567
:1004800020706F696E740A004D65736820706F6923
:100490006E742063616E6E6F742062652072657386
:1004A0006F6C7665640A004D34323120696E636F7B
:1004B000727265637420706172616D65746572201B
:1004C00075736167650A004F66660A004661646578
:1004D000204865696768742000426564204C657631
:1004E000656C696E6720004661696C656420746F95
:1004F00020656E61626C6520426564204C6576659E
:100500006C696E670A0043290A0061626C656420A9
:10051000286D696E2074656D702000436F6C6420D7
:10052000657874727564657320617265200020645B
:100530003A0020693A0020703A00496E76616C6991
:10054000642065787472756465720A0020643A00EC
:1005500020693A0020703A0020466C6F773A2000FC
:10056000205A00205900580020204D61783A200080
:10057000205A00205900580020204D696E3A200072
:100580004F6666004F6E2000536F667420656E6480
:1005900073746F70733A20005741524E494E472191
:1005A000204C6F77205A204A65726B206D6179204C
:1005B0006C65616420746F20756E77616E7465641C
:1005C000207061757365732E0A002054002052005C
:1005D000416363656C65726174696F6E3A205000A7
:1005E0002F2F2000544845524D414C5F50524F54DC
:1005F000454354494F4E004155544F5245504F5278
:10060000545F53445F53544154555300454D455234
:1006100047454E43595F5041525345520043415361
:10062000455F4C494748545F4252494748544E45FC
:10063000535300544F47474C455F4C494748545328
:1006400000534F4654574152455F504F5745520053
:100650004255494C445F50455243454E54004C4529
:1006600056454C494E475F44415441005A5F5052F1
:100670004F4245004155544F4C4556454C00505251
:10068000494E545F4A4F420050524F4752455353D0
:10069000004155544F5245504F52545F54454D50B0
:1006A00000564F4C554D4554524943004545505214
:1006B0004F4D0053455249414C5F584F4E5F584F84
:1006C0004646004649524D574152455F4E414D45C1
:1006D0003A4D61726C696E20312E312E39202847D7
:1006E00069746875622920534F555243455F434FE3
:1006F00044455F55524C3A68747470733A2F2F67B3
:1007000069746875622E636F6D2F4D61726C696ECE
:100710004669726D776172652F4D61726C696E20EA
:1007200050524F544F434F4C5F56455253494F4ED2
:100730003A312E30204D414348494E455F5459507F
:10074000453A5072696E7472626F742053696D70AD
:100750006C65204D6574616C205265762E44204591
:10076000585452554445525F434F554E543A3120E8
:10077000555549443A63656465326132662D3431BA
:1007800061322D343734382D396231322D633535AD
:100790006336326633363766660A004D31313320B0
:1007A00053006F66660044454255473A00D807D368
:1007B00007CC07C507B707434F4D4D554E49434139
:1007C00054494F4E0044525952554E004552524FD3
:1007D000525300494E464F004543484F0020573A78
:1007E0000020573A004B494C4C45442E20006F6B7B
:1007F0000050726F7465637465642050696E0A00FE
:100800005072696E742074696D653A20004D65738D
:100810006820706F696E742063616E6E6F74206201
:1008200065207265736F6C7665640A00205A3A2001
:100830000020593A200042656420583A2000473190
:10084000205A313020463730303000202844525969
:1008500052554E2900473239204175746F20426548
:1008600064204C6576656C696E67003F20284C2CCF
:10087000522C462C4229206F7574206F6620626FBF
:10088000756E64732E0A003F2856296572626F7375
:1008900065206C6576656C20697320696D706C618C
:1008A000757369626C652028302D34292E0A004248
:1008B0006164205A2076616C75650A004E6F206273
:1008C000696C696E65617220677269640A00486FBD
:1008D0006D652058592066697273740A0047322F7B
:1008E00047332062616420706172616D6574657266
:1008F000730A005761726E696E673A20486F6D69BE
:100900006E672042756D702044697669736F72203E
:100910003C20310A000202044B494C4C45442E2035
:10092000005072696E7465722073746F70706564C4
:100930002064756520746F206572726F72732E204B
:1009400046697820746865206572726F7220616EE6
:100950006420757365204D39393920746F207265B4
:1009600073746172742E202854656D7065726174A1
:100970007572652069732072657365742E205365E6
:100980007420697420616674657220726573746185
:100990007274696E67290A004E6F20436865636B45
:1009A00073756D2077697468206C696E65206E754B
:1009B0006D6265722C204C617374204C696E653ACF
:1009C0002000636865636B73756D206D69736D617D
:1009D0007463682C204C617374204C696E653A20F6
:1009E000004C696E65204E756D62657220697320DA
:1009F0006E6F74204C617374204C696E65204E7567
:100A00006D6265722B312C204C617374204C696EC1
:100A1000653A20004D31313000FF01FF0000A04059
:100A20000000A040000000400000184300001A43EE
:100A30000000184300000000000018430000000000
:100A40000000184300001843000018430000000095
:100A5000000000C0000000000000484200004842C2
:100A600000008040000000002569730025696D20AA
:100A7000256973002569682025696D202569730043
:100A8000256964202569682025696D202569730022
:100A900025697920256964202569682025696D20EC
:100AA0002569730020204D393030204B004C696E91
:100AB00065617220416476616E63653A0A002020A8
:100AC0004D383531205A005A2D50726F6265204FD3
:100AD00066667365740020440020490020204D3371
:100AE000303420500020440020490020204D333075
:100AF000312050005049442073657474696E6773E7
:100B00003A0A00205A00204A002020473239205754
:100B1000204900205A0020204D343230205300411B
:100B200075746F20426564204C6576656C696E67EC
:100B30003A0A00205A0020590020204D3230362039
:100B40005800486F6D65206F66667365743A0A00D9
:100B5000204500205A002059002058002054002031
:100B6000530020204D32303520510020453C6D612E
:100B7000785F655F6A65726B3E0020583C6D6178F6
:100B80005F785F6A65726B3E20593C6D61785F7972
:100B90005F6A65726B3E205A3C6D61785F7A5F6A6E
:100BA00065726B3E00416476616E6365643A205104
:100BB0003C6D696E5F7365676D656E745F74696DBA
:100BC000655F75733E20533C6D696E5F6665656455
:100BD000726174653E20543C6D696E5F747261761B
:100BE000656C5F66656564726174653E00205400E3
:100BF00020520020204D3230342050004163636584
:100C00006C65726174696F6E2028756E6974732FDC
:100C10007332293A20503C7072696E745F6163636D
:100C2000656C3E20523C726574726163745F6163EF
:100C300063656C3E20543C74726176656C5F6163E1
:100C400063656C3E0A00204500205A0020590020B0
:100C5000204D3230312058004D6178696D756D201E
:100C6000416363656C65726174696F6E2028756E8F
:100C70006974732F7332293A0A00204500205A0004
:100C800020590020204D3230332058004D617869C2
:100C90006D756D2066656564726174657320287575
:100CA0006E6974732F73293A0A00204500205A0098
:100CB00020590020204D393220580053746570733C
:100CC0002070657220756E69743A0A0020204D32DA
:100CD00030302044300A0020204D32303020440093
:100CE0002044697361626C65640A0046696C616DD9
:100CF000656E742073657474696E67733A002020A2
:100D0000473231202020203B0048617264636F64C9
:100D100065642044656661756C74205365747469FC
:100D20006E6773204C6F616465640A00D007000031
:100D3000D00700001E000000102700000000FA424B
:100D40000000FA420000E040000060410000A042C4
:100D50000000A0420080FC440000BD42290A00209F
:100D600062797465733B2063726320002073746F33
:100D70007265642073657474696E6773207265743C
:100D8000726965766564202800202863616C63754C
:100D90006C6174656429210A0020213D20004545CD
:100DA00050524F4D20435243206D69736D617463FF
:100DB00068202D202873746F7265642920002053E9
:100DC000697A653A2000496E6465783A2000204DC2
:100DD00061726C696E3D563536290A0028454550CA
:100DE000524F4D3D00454550524F4D207665727330
:100DF000696F6E206D69736D617463682000290AE4
:100E0000002062797465733B206372632000536530
:100E10007474696E67732053746F72656420280060
:100E2000454550524F4D206461746173697A652065
:100E30006572726F722E0A004572726F722077723D
:100E40006974696E6720746F20454550524F4D217B
:100E50000A003A0A0020286D6D29006F70656E0047
:100E6000545249474745524544003A20007A5F6D45
:100E7000696E00795F6D617800785F6D696E005210
:100E800065706F7274696E6720656E6473746F70DD
:100E9000207374617475730A00205A3A0020593A1D
:100EA0000020583A00656E6473746F70732068692F
:100EB000743A2000486F6D696E67206661696C65E1
:100EC0006400556E6B6E6F776E20636F6D6D616E33
:100ED000643A20220020746F6F206C6F6E6720656B
:100EE0007874727573696F6E2070726576656E7452
:100EF00065640A0020636F6C642065787472757392
:100F0000696F6E2070726576656E7465640A00FFA5
:100F1000FDFCFAF8F6F4F2F0EEECEAE9E7E5E3E1DD
:100F2000E0DEDCDAD9D7D5D4D2D0CFCDCBCAC8C792
:100F3000C5C3C2C0BFBDBCBAB9B7B6B4B3B2B0AF17
:100F4000ADACAAA9A8A6A5A4A2A1A09E9D9C9A9971
:100F5000989795949392908F8E8D8B8A89888786A7
:100F600084838281807F7E7D7B7A797877767574C1
:100F7000737271706F6E6D6C6B6A696867666564B9
:100F8000636261605F5E5D5C5B5A595858575655A5
:100F90005453525150504F4E4D4C4B4A4A4948477A
:100FA0004646454443424241403F3E3E3D3C3B3B3A
:100FB0003A39383837363535343332323130302FEC
:100FC0002E2E2D2C2B2B2A29292827272625252490
:100FD000232322212120201F1E1E1D1C1C1B1B1A27
:100FE00019191818171616151514131312121111B2
:100FF000100F0F0E0E0D0D0C0C0B0A0A0909080834
:1010000007070606050504040303020201000000A9
:10101000000001000000010000800055555500004F
:1010200000400033333300AAAA2A0049922400006A
:10103000002000C7711C0099991900D1451700556F
:101040005515003BB1130024491200111111000085
:101050000010000F0F0F00E3380E0043790D00CC95
:10106000CC0C00C3300C00E8A20B0064210B00AADA
:10107000AA0A00703D0A009DD80900427B0900922F
:10108000240900DCD308008888080010420800000A
:10109000000800F0C107008787070075500700713E
:1010A0001C07003EEB0600A1BC0600699006006626
:1010B000660600703E06006118060017F40500740D
:1010C000D105005BB00500B29005006272050055C5
:1010D00055050078390500B81E0500050505004EC8
:1010E000EC040087D40400A1BD040090A7040049CB
:1010F000920400C17D0400EE690400C75604004458
:101100004404005C32040008210400411004000083
:101110000004003FF00300F8E0030026D20300C300
:10112000C30300CCB503003AA803000A9B030038B0
:101130008E0300C08103009F750300D06903005037
:101140005E03001D53030034480300913D03003348
:1011500033030016290300381F03009715030030DE
:101160000C0300030303000BFA020049F10200BA6A
:10117000E802005CE002002DD802002DD0020059E8
:10118000C80200B0C0020031B90200DAB10200AA00
:10119000AA0200A0A30200BC9C0200FA9502005C17
:1011A0008F0200DF88020082820200457C02002755
:1011B00076020027700200436A02007C640200D0BD
:1011C0005E02003F590200C85302006563686F3A2F
:1011D000004572726F723A00205A3A0020593A0064
:1011E00020436F756E7420583A00232C0000B822FB
:1011F0000000561800003A0F0000B8080000B104C3
:101200000000710200003E01000024F4D43050C3FD
:101210008E20C2A24017828B7011127A910D816CC0
:10122000D90AA861E108C7586607615143061E4BF9
:101230005D05C145A7041A411104093D98037139A0
:1012400031034036DB0265339102D4305402802EE4
:101250001D02632CEE01752AC501B028A0011027DC
:1012600081018F2564012B244B01E0223401AC2144
:101270001F018D200D01801FFC00841EED00971DB5
:10128000DF00B81CD200E61BC600201BBC00641A9D
:10129000B200B219A8000A19A0006A189900D11763
:1012A000910040178B00B516840031167E00B315EF
:1012B00079003A157300C7146F0058146A00EE13D2
:1012C00066008813630025135E00C7125B006C1272
:1012D000570015125400C111510070114F00211117
:1012E0004B00D61049008D104700461044000210F4
:1012F0004200C00F4000800F3E00420F3C00060F2E
:101300003B00CB0E3800930E37005C0E3500270EE5
:101310003400F30D3200C10D3100900D3000600D2E
:101320002E00320D2D00050D2C00D90C2B00AE0C1B
:101330002900850C29005C0C2700350C27000E0CB9
:101340002600E80B2400C40B2400A00B23007D0B17
:1013500023005A0B2100390B2100180B2000F80A3A
:101360001F00D90A1E00BB0A1E009D0A1D00800A2C
:101370001D00630A1C00470A1B002C0A1B00110AEF
:101380001A00F7091A00DD091900C4091900AB0990
:101390001900920917007B091800630917004C090E
:1013A000160036091600200916000A091500F5086E
:1013B0001500E0081400CC081400B8081400A408B4
:1013C0001400900813007D0812006B0813005808E1
:1013D00012004608120034081100230811001208F8
:1013E000110001081100F0071000E0071000D007FD
:1013F0001000C0071000B0070F00A10710009107F0
:101400000E0083070F0074070F0065070E005707D3
:101410000E0049070E003B070D002E070E002007A7
:101420000D0013070D0006070D00F9060C00ED0670
:101430000D00E0060C00D4060C00C8060C00BC062B
:101440000C00B0060C00A4060B0099060C008D06DB
:101450000B0082060B0077060B006C060B00610682
:101460000A0057060B004C060A0042060A0038061E
:101470000A002E060A0024060A001A060A001006B0
:10148000090007060A00FD050900F4050900EB053F
:101490000900E2050900D9050900D0050900C705C2
:1014A0000900BE050900B5050800AD050800A50541
:1014B00009009C050800940508008C0508008405B7
:1014C00008007C050800740508006C050700650528
:1014D00008005D050700560508004E050700470592
:1014E00007004005080038050700310507002A05F8
:1014F0000700230507001C050600160507000F0559
:1015000007000805060002050700FB040600F504B5
:101510000700EE040600E8040600E2040700DB040E
:101520000600D5040600CF040600C9040600C30463
:101530000600BD040600B7040600B1040500AC04B3
:101540000600A6040600A00405009B0406009504FE
:101550000500900406008A04050085040500800447
:1015600006007A04050075040500700405006B048C
:10157000050066040500610405005C0405005704CD
:101580000500520405004D0405004804050043040D
:1015900005003E0404003A0405003504050030044B
:1015A00004002C04050027040400230405001E0485
:1015B00004001A04040016040500110404000D04BC
:1015C0000400090405000404040000040400FC03F2
:1015D0000400F8030400F4030400F0030400EC0327
:1015E0000400E8030400E4030400E0030400DC0357
:1015F0000400D8030400D4030400D0030400CC0387
:101600000400C8030300C503030024F404D9201B0D
:10161000C40C5C0E9804C4095F0265077101F405EF
:10162000F900FB04B30048048700C10369005803B4
:10163000550003034500BE023A0084023100530204
:101640002A002902250004022000E4011C00C80130
:101650001900AF01170098011400840113007101F3
:1016600010006101100051010E0043010D00360110
:101670000B002B010B0020010B00150109000C01D0
:10168000090003010800FB000800F3000800EB005C
:101690000700E4000600DE000600D8000600D200C5
:1016A0000600CC000500C7000500C2000500BD0013
:1016B0000400B9000400B5000400B1000400AD004E
:1016C0000400A9000400A5000300A20003009F007D
:1016D00004009B00030098000300950002009300A3
:1016E0000300900003008D0002008B0003008800BF
:1016F00002008600020084000300810002007F00D7
:1017000002007D0002007B000200790002007700E9
:1017100001007600020074000200720001007100F6
:1017200002006F0002006D0001006C0002006A0000
:101730000100690002006700010066000100650009
:10174000010064000200620001006100010060000D
:1017500001005F0002005D0001005C0001005B0011
:1017600001005A0001005900010058000100570013
:101770000100560001005500010054000100530013
:101780000000530001005200010051000100500010
:1017900001004F0001004E0000004E0001004D000E
:1017A00001004C0001004B0000004B0001004A000A
:1017B0000100490001004800000048000100470006
:1017C0000100460000004600010045000000450001
:1017D00001004400010043000000430001004200FA
:1017E00000004200010041000000410001004000F3
:1017F00001003F0000003F0001003E0000003E00ED
:1018000001003D0000003D0001003C0000003C00E4
:1018100000003C0001003B0000003B0001003A00DA
:1018200000003A00010039000000390001003800D2
:1018300000003800000038000100370000003700C9
:1018400001003600000036000000360001003500BF
:1018500000003500000035000100340000003400B5
:1018600000003400010033000000330000003300AA
:10187000010032000000320000003200010031009F
:101880000000310000003100010030000000300095
:101890000000300001002F0000002F0000002F008A
:1018A00000002F0001002E0000002E0000002E007E
:1018B00001002D0000002D0000002D0000002D0073
:1018C00001002C0000002C0000002C0000002C0067
:1018D00001002B0000002B0000002B0000002B005B
:1018E00001002A0000002A0000002A0000002A004F
:1018F0000100290000002900000029000000290043
:101900000000290001002800000028000000280035
:101910000000280000002800010027000000270028
:10192000000027000000270000002700010026001B
:10193000000026000000260000002600000026000F
:101940000100250000002500000025000000250002
:1019500000002500000025000100240000002400F4
:1019600000002400000024000000240001002300E7
:1019700000002300000023000000230000002300DB
:1019800000002300000023000100220000002200CC
:1019900000002200000022000000220000002200BF
:1019A00001002100000021000000210000002100B2
:1019B00000002100000021000000210001002000A3
:1019C0000000200000002000000020000000200097
:1019D00000002000000020000000200001001F0087
:1019E00000001F0000001F0000001F0000001F007B
:1019F00000001F0000001F0001001E0000001E006C
:101A000000001E0000001E0000002042403A00209E
:101A1000403A00202F00546865726D616C20527549
:101A20006E6177617900453120544845524D414CF3
:101A30002052554E41574159004245442054484593
:101A4000524D414C2052554E41574159004B494C43
:101A50004C45442E2000202D20496E76616C69642F
:101A6000206578747275646572206E756D6265723A
:101A700020210A0048656174696E67206661696C9F
:101A80006564004265642068656174696E672066FC
:101A900061696C65640048656174696E67206661A0
:101AA000696C65640045312048656174696E672022
:101AB0006661696C6564004D494E54454D50207413
:101AC0007269676765726564004531204572723AD4
:101AD000204D494E54454D50004572723A204D49B3
:101AE0004E54454D5020424544004D415854454DBB
:101AF00050207472696767657265640045312045DE
:101B000072723A204D415854454D50004572723A18
:101B1000204D415854454D50204245440062656473
:101B20000A002C2073797374656D2073746F707064
:101B3000656421204865617465725F49443A2000FC
:101B40004B64200023646566696E65204445464108
:101B5000554C545F004B69200023646566696E65CF
:101B60002044454641554C545F004B70200023648F
:101B70006566696E652044454641554C545F00508A
:101B80004944204175746F74756E652066696E698D
:101B900073686564212050757420746865206C61D9
:101BA0007374204B702C204B6920616E64204B6451
:101BB00020636F6E7374616E74732066726F6D2034
:101BC00062656C6F7720696E746F20436F6E666913
:101BD0006775726174696F6E2E680A0050494420FF
:101BE0004175746F74756E65206661696C656421FA
:101BF0002074696D656F75740A00546865726D6153
:101C00006C2052756E6177617900453120544845EA
:101C1000524D414C2052554E415741590042454486
:101C200020544845524D414C2052554E4157415940
:101C30000048656174696E67206661696C6564005F
:101C400045312048656174696E67206661696C651D
:101C500064004265642068656174696E672066612E
:101C6000696C656400504944204175746F74756EE9
:101C700065206661696C6564212054656D706572CC
:101C8000617475726520746F6F20686967680A00F7
:101C9000204B643A2000204B693A2000204B703AD8
:101CA00020000A20436C617373696320504944200B
:101CB0000A002054753A2000204B753A2000206D10
:101CC00061783A2000206D696E3A200020643A2045
:101CD0000020626961733A200050494420417574C4
:101CE0006F74756E652073746172740A0050494494
:101CF000204175746F74756E65206661696C6564EA
:101D0000212054656D706572617475726520746F01
:101D10006F20686967680A00504944204175746FF4
:101D200074756E65206661696C656421204261642A
:101D3000206578747275646572206E756D62657267
:101D40000A001000C90210012C014001220170019B
:101D50001801B0010E01F00104015002FA00B002B6
:101D6000F0003003E600D003DC009004D2007005E0
:101D7000C800A006BE000008B400B009AA00D00B3D
:101D8000A000600E960060118C00001582002019E2
:101D90007800C01D6E00A0226400B0275A00902C6D
:101DA000500000314600E0343C0010383200903AD8
:101DB0002800603C1E00A03D1400803E0A00203F29
:101DC000000070012C0190012701B0012201C00127
:101DD0001D01F00118011002130130020E01600212
:101DE000090190020401C002FF000003FA00400351
:101DF000F5008003F000D003EB002004E60070043F
:101E0000E100E004DC004005D700C005D200400638
:101E1000CD00D006C8008007C3003008BE00F0081F
:101E2000B900C009B400B00AAF00B00BAA00D00CD2
:101E3000A500000EA000500F9B00C010960050128D
:101E4000910000148C00C0158700B0178200B019F3
:101E50007D00D01B7800001E730040206E00902291
:101E60006900F024640040275F0090295A00E02BAD
:101E70005500102E500020304B0010324600E03349
:101E8000410090353C001037370070383200A039DF
:101E90002D00B03A2800A03B2300603C1E00103DFE
:101EA0001900903D1400103E0F00703E0A00C03E25
:101EB0000500003F0000403FFBFF803FF6FFC03FB2
:101EC000F1FF012902290429082910292029402984
:101ED0008029012C022C0126022604260826102621
:101EE000202640268026402C802C01230223042318
:101EF00008231023202340238023012002200420D4
:101F000008201020202040208020102C202C012F81
:101F1000022F042F082F102F202F402F802F7EFEFE
:101F20007EFD7EFB7EF77EEF7EDF7EBF7E7F000143
:101F30000000DF1F12000200009C1F43000300008E
:101F4000981F04010309047E1F1802030904661F79
:101F50001603030904581F0C0C0331003200330030
:101F600034003500000016035500530042002000E5
:101F7000530065007200690061006C0000001803E6
:101F80005400650065006E00730079006400750000
:101F900069006E006F000000040309040902430099
:101FA000020100C032090400000102020100052400
:101FB0000010010524010001042402060524060086
:101FC000010705820308004009040100020A00001D
:101FD00000070503024000000705840240000012CC
:101FE00001000202000020C01683047202010203F5
:101FF000010001C10201803601813600887FE5AC15
:1020000011241FBECFEFD0E2DEBFCDBF12E0A0E0B3
:10201000B1E0ECECF0E701E00BBF02C007900D92DD
:10202000A233B107D9F72DE0A2E3B2E001C01D92BF
:10203000A03EB207E1F71FE0C0E0D0E104C0219765
:10204000FE010E945AADCE3FD107C9F70E948EA56E
:102050000C9464B80C94000090E0FC01EE0FFF1F9C
:10206000E80FF91FE60FF11DEE0FFF1FEE0FFF1F28
:10207000E852FD4F608171818281938108954F9272
:102080005F926F927F928F929F92AF92BF92CF9208
:10209000DF92EF92FF92CF936B017C0149015A01CD
:1020A00020E030E040EE51E40E947CAD2B013C0189
:1020B0002FE632E143E85AEB0E9459B087FD3CC05D
:1020C00022E430E048E153E4C301B2010E9456AE7D
:1020D000181694F122E630E140E050ECC501B4015D
:1020E0000E9459B087FD28C022E430E048E153E463
:1020F000C501B4010E9456AE1816F4F024EF3DEF6E
:102100004FED51E4C701B6010E9459B087FD14C0DC
:1021100022E430E048E153E4C701B6010E9456AE24
:10212000181654F0C1E02FE632E143E85AEBC5013E
:10213000B4010E9459B087FDC0E08C2FCF91FF9071
:10214000EF90DF90CF90BF90AF909F908F907F9057
:102150006F905F904F900895CF93DF931F92CDB70C
:10216000DEB76983DC01ED91FC910280F381E02D03
:1021700041E050E0BE016F5F7F4F09950F90DF9106
:10218000CF9108952F923F924F925F926F927F92DC
:102190008F929F92AF92BF92CF92DF92EF92FF9277
:1021A0000F931F93CF93DF93CDB7DEB72E970FB664
:1021B000F894DEBF0FBECDBF182FF62E042FA22E2F
:1021C000282F30E03A872987862F90E09C878B87DD
:1021D000220F331FE985FA852E0F3F1F3E872D877B
:1021E000FC01E20FF31FEE0FFF1FEE0FFF1FE8527F
:1021F000FD4F60817181828193819B01AC010E94BE
:1022000042B1882309F43EC16AE084ED9DE0A4DF79
:10221000100F6F2D6A0D812F90E0DC01AA0FBB1FFC
:10222000A80FB91FEB85FC85EA0FFB1FEE0FFF1F00
:10223000EE0FFF1FE852FD4FB080C180D280E380D7
:10224000100F812F90E0AC01440F551F480F591F0C
:10225000EB85FC85E40FF51FEE0FFF1FEE0FFF1F50
:10226000E852FD4FF080018112819380862F90E02B
:10227000ED85FE85E80FF91FEE0FFF1FEE0FFF1F24
:10228000E852FD4F80807180628053806A0D70E05B
:102290002D853E85260F371F220F331F220F331F38
:1022A00028523D4F3E872D87F90140803180A28022
:1022B0002380A80FB91FAA0FBB1FAA0FBB1FA852CC
:1022C000BD4FFC91F98311962C9111972A83129698
:1022D0003C9112973B8313968C918C83FA01E60F05
:1022E000F71FEE0FFF1FEE0FFF1FE852FD4F90810B
:1022F0009D8321812E8332813F83838188872F2D87
:10230000302F412F592D6F2D702F812F992D0E9425
:1023100042B1882321F0F12C00E010E0912C2B2D0C
:102320003C2D4D2D5E2D6B2D7C2D8D2D9E2D0E94D7
:1023300042B1882319F0BF2C6801E92C242D332DDC
:102340004A2D522D642D732D8A2D922D0E9442B15B
:10235000882321F0412C312CA12C212C282D372D24
:10236000462D552D682D772D862D952D0E9442B135
:10237000882321F0842C732C6A2C522C2D813E81D1
:102380004F8158856D817E818F8198850E9442B1F1
:10239000882321F01D821E821F82188629813A819E
:1023A0004B815C8169817A818B819C810E9442B1E1
:1023B000882341F09D819983EE81EA83FF81FB832D
:1023C00028852C8389859A85880F991FE985FA8548
:1023D0008E0F9F1F2B853C85820F931F880F991F9F
:1023E000880F991F88529D4F9A8789872B2D3C2DE6
:1023F0004D2D5E2D6B2D7C2D8D2D9E2D0E947DAD46
:102400002F2D302F412F592D0E947CAD6B017C0167
:10241000282D372D462D552D682D772D862D952D60
:102420000E947DAD242D332D4A2D522D0E947CAD6E
:102430009B01AC01C701B6010E947DAD6B017C011F
:1024400029813A814B815C8169817A818B819C8170
:102450000E947DAD2D813E814F8158850E947CADCB
:102460009B01AC01C701B6010E947DAD20E030E0C8
:1024700040E450E40E945DAEE985FA856083718393
:10248000828393832E960FB6F894DEBF0FBECDBF26
:10249000DF91CF911F910F91FF90EF90DF90CF9040
:1024A000BF90AF909F908F907F906F905F904F9074
:1024B0003F902F900895FF920F931F93CF93DF9338
:1024C000F82E092F162FEDEDF2E06491EF01219621
:1024D000662329F084ED9DE03FDEFE01F6CFEF2D6F
:1024E000F02F6491EF012196662329F084ED9DE0A1
:1024F00033DEFE01F6CFEBEDF2E06491EF012196C1
:10250000662329F084ED9DE027DEFE01F6CF412F02
:1025100050E060E070E084ED9DE00E94DAA46AE0A3
:1025200084ED9DE0DF91CF911F910F91FF9014CE2C
:102530000FB6F8948091C90D9091CA0DA091CB0D62
:10254000B091CC0D0FBE8093150390931603A0930A
:102550001703B0931803089580E1E9EFF4E0A9EEC2
:10256000B4E001900D928A95E1F708952F923F9281
:102570004F925F926F927F928F929F92AF92BF9293
:10258000CF92DF92EF92FF920F931F93CF93DF933F
:10259000EB01FC0180809180A280B380C501B40171
:1025A00020E831E541E050E00E941CADC9016DE634
:1025B00071E00E9408AD6B017C01C501B40120E10E
:1025C0003EE040E050E00E941CADCA01B90128E1A4
:1025D00030E040E050E00E941CAD362E272E062F42
:1025E000172F8CE3482E512C612C712CC501B4019E
:1025F000A30192010E941CADB62EA72ECA01B901FB
:10260000A30192010E941CADCB01C114D104D9F0E9
:10261000AF92BF927F936F932F923F92FF92EF9270
:10262000DF92CF9280E99AE09F938F93DF93CF93CD
:102630000E9470B58DB79EB70E960FB6F8949EBFE8
:102640000FBE8DBF5CC0E114F104C9F0AF92BF9220
:102650007F936F932F923F92FF92EF9280E89AE0E0
:102660009F938F93DF93CF930E9470B5EDB7FEB722
:102670003C960FB6F894FEBF0FBEEDBF40C0012BD5
:10268000B9F0AF92BF927F936F932F923F9284E7FE
:102690009AE09F938F93DF93CF930E9470B58DB78D
:1026A0009EB70A960FB6F8949EBF0FBE8DBF27C087
:1026B000892BA9F0AF92BF927F936F938CE69AE03B
:1026C0009F938F93DF93CF930E9470B5EDB7FEB7C2
:1026D00038960FB6F894FEBF0FBEEDBF10C0AF9294
:1026E000BF9288E69AE09F938F93DF93CF930E94E7
:1026F00070B50F900F900F900F900F900F90DF918B
:10270000CF911F910F91FF90EF90DF90CF90BF90EE
:10271000AF909F908F907F906F905F904F903F9081
:102720002F90089581548A3108F041C0E82FF0E0DD
:102730004091310550913205609133057091340517
:1027400004C076956795579547958A95D2F7842F5B
:10275000817040FF33C0E95EFA4F9081992301F107
:10276000E0913C05F0913D05E90FF11D908120EDD0
:10277000290F2A3080F09E3229F4918190539A30AB
:1027800078F409C09D3211F09B3251F4918120ED13
:10279000290F2A3018F42E2F9F2F04C09E3249F0A3
:1027A00020E090E02093380590933905089580E06B
:1027B0000895928190539A3098F7EDCF0895B2DF43
:1027C000882341F081E02091380530913905232B91
:1027D00009F480E008950F931F93CF9380913805FB
:1027E00090913905009711F1FC018F01C1912C2FB7
:1027F0002F7DA9F0C53411F0C536B9F7F801108264
:1028000060E070E080913805909139050E945EB1DA
:10281000F801C083562F472F382F292F0BC060E0B7
:1028200070E0CF911F910F910C945EB150E040E0A9
:1028300030E020E0652F742F832F922FCF911F91CE
:102840000F9108958091380590913905009731F0E6
:102850004AE050E060E070E00C94B1B260E070E0FB
:10286000CB0108958091380590913905009731F09A
:102870004AE050E060E070E00C94DCB360E070E0AF
:10288000CB010895DFDF97FD0AC0DCDF6F3F7105E4
:102890008105910509F02CF4D5DF862F089580E09D
:1028A00008958FEF08958091380590913905892B0F
:1028B00031F0E8DF91E0811103C090E001C091E0C8
:1028C000892F08950F931F93CF93DF93CDB7DEB772
:1028D0002C970FB6F894DEBF0FBECDBFE9EFF4E042
:1028E00080859185A285B3854481558166817781F4
:1028F000008111812281338109871A872B873C87C8
:102900004D835E836F83788789839A83AB83BC838F
:10291000AE014F5F5F4FBE016B5F7F4FCE010996E7
:102920000E94556F25E035E0AE014F5F5F4FBE015D
:102930006B5F7F4FCE0109960E94487D2C960FB6A3
:10294000F894DEBF0FBECDBFDF91CF911F910F91E5
:1029500008952F923F924F925F926F927F929F9233
:10296000AF92BF92CF92DF92EF92FF920F931F939D
:10297000CF93DF93CDB7DEB764970FB6F894DEBF81
:102980000FBECDBF1A012B01922EF32EC82ED12CD3
:10299000F601E75EF54FE491AA24A3941E160CF409
:1029A000A12CBB24B39420E030E0A901C201B10105
:1029B0000E9459B018160CF0B12CCC0CDD1CCC0CBC
:1029C000DD1CC60187509B4F3C01FC011082118227
:1029D0001282138277DFF301208231824282538296
:1029E000E0901D0320E030E0A901B801892D9F2D62
:1029F0000E9456AE81110AC0F601E85AF54F859142
:102A00009591A591B4918C019A2EFB2EC801A92D08
:102A1000BF2D898B9A8BAB8BBC8B809101059091DC
:102A20000205A0910305B09104054091FD04509169
:102A3000FE046091FF04709100050091F90410916B
:102A4000FA042091FB043091FC040D871E872F8728
:102A5000388B49875A876B877C878D839E83AF83AA
:102A6000B88719821A821B821C82AE014B5F5F4FAE
:102A7000BE01675F7F4FCE010D960E94556FCE015C
:102A800001966C018E010F5E1F4F25E035E0AE010F
:102A90004B5F5F4FBE01675F7F4F0C960E94657C66
:102AA0000E946870AB100E94856364960FB6F8941C
:102AB000DEBF0FBECDBFDF91CF911F910F91FF9071
:102AC000EF90DF90CF90BF90AF909F907F906F90EE
:102AD0005F904F903F902F90089565E075E083E000
:102AE0000C946E7ECF93DF9300D0CDB7DEB72091EC
:102AF000C60D3091C70DCE0101962115310529F47F
:102B0000805E9D409A83898304C0821B930B9A83C5
:102B1000898389819A810F900F90DF91CF910895D9
:102B2000FF920F931F93CF93DF93FC0120812B33F0
:102B300019F1D091DE04D430F8F4F62EBC01C09126
:102B4000DC040C2F10E0F0E6CF9FC0011124845A62
:102B50009C4F0E9450B5F801E853FD4FF082CF5FC3
:102B6000C43018F4C093DC0402C01092DC04DF5FB0
:102B7000D093DE0481E001C080E0DF91CF911F910E
:102B80000F91FF900895EF92FF921F93CF93DF93E1
:102B90007C0160E0C5DF182F8823C9F0EBECF1E180
:102BA0006491EF012196662329F084ED9DE0D4DA4B
:102BB000FE01F6CFB70189ED93E00E944E8562E2F7
:102BC00084ED9DE0C9DA6AE084ED9DE0C5DA812FED
:102BD000DF91CF911F91FF90EF900895DF92EF92D8
:102BE000FF920F931F93CF93DF93CDB7DEB76E970E
:102BF0000FB6F894DEBF0FBECDBF60915A0370913F
:102C00005B036115710541F14DE150E0CE01019684
:102C10007C010E9406B51E8EF7018F010E191F0957
:102C2000D190DD2019F09AE0D912F7CFF701E00F2B
:102C3000F11F1082C701A7DF882371F0DD20A9F002
:102C40000F5F1F4F80915A0390915B03080F191F6C
:102C500010935B0300935A0381E020915A03309153
:102C60005B03232B29F480E003C000E010E0F0CFE9
:102C70006E960FB6F894DEBF0FBECDBFDF91CF9139
:102C80001F910F91FF90EF90DF900895EF92FF92C8
:102C90000F931F93CF93DF937C0184E590DDD82FB2
:102CA000882369F1EFDDC82F18162CF5EBECF1E164
:102CB00064918F010F5F1F4F662329F084ED9DE023
:102CC0004BDAF801F5CF6DE484ED9DE045DAA7011C
:102CD00060E070E020E084ED9DE00E946EA46C2F27
:102CE000CC0F770B86EC93E00E94CF846AE084EDF2
:102CF0009DE032DA08C080931003D0E004C08091D8
:102D00001D03809310038D2FDF91CF911F910F91A1
:102D1000FF90EF9008950F931F93CF93DF9394E06C
:102D2000899FE00111248E01045D1C4FFE01E85CC7
:102D3000FC4FDE01AC5BBC4F2D913D914D915C9100
:102D400060817181828193810E947DADF8016083F1
:102D5000718382839383FE01E45BF54F85919591A6
:102D6000A591B491FE01E05EFC4F80839183A28324
:102D7000B383FE01E05CF54F85919591A591B491E7
:102D8000CB5EDE4F88839983AA83BB83DF91CF918B
:102D90001F910F910895CF92DF92EF920F931F939F
:102DA000CF93DF93CDB7DEB760970FB6F894DEBF51
:102DB0000FBECDBFE0901D03E9EFF4E08085918563
:102DC000A285B38544815581668177810081118117
:102DD000228133810D871E872F87388B49875A8739
:102DE0006B877C878D839E83AF83B88719821A8215
:102DF0001B821C82AE014B5F5F4FBE01675F7F4F3E
:102E0000CE010D960E94556FCE0101966C0103E232
:102E100011E025E035E0AE014B5F5F4FBE01675F1B
:102E20007F4F0C960E94657C60960FB6F894DEBFCB
:102E30000FBECDBFDF91CF911F910F91EF90DF902B
:102E4000CF9008958F929F92AF92BF92CF92DF92D0
:102E5000EF920F931F93CF93DF93CDB7DEB76097B9
:102E60000FB6F894DEBF0FBECDBF8C01E0901D03FE
:102E7000E9EEF4E080859185A285B3854481558192
:102E80006681778180809180A280B3808D869E86C6
:102E9000AF86B88A49875A876B877C878D839E83E4
:102EA000AF83B88719821A821B821C82AE014B5FE6
:102EB0005F4FBE01675F7F4FCE010D960E94556F39
:102EC000CE0101966C0125EF34E0AE014B5F5F4F00
:102ED000BE01675F7F4F0C960E94657C60960FB6BF
:102EE000F894DEBF0FBECDBFDF91CF911F910F9140
:102EF000EF90DF90CF90BF90AF909F908F9008950C
:102F00003F924F925F926F927F928F929F92AF9279
:102F1000BF92CF92DF92EF92FF920F931F93CF93C6
:102F2000DF93CDB7DEB72A970FB6F894DEBF0FBE9A
:102F3000CDBF2B013C012D833E834F835887470132
:102F40005801DA86C9868091230190912401A091CD
:102F50002501B091260189839A83AB83BC83D60176
:102F6000EC901196FC90119712960C911297139673
:102F70001C9120E030E0A901B701C8010E9456AEC3
:102F8000811108C0E0E6FAE085919591A591B49190
:102F90007C018D01A50194016091010570910205EC
:102FA00080910305909104050E9456AE87FF13C0DF
:102FB000C701D8018093230190932401A093250198
:102FC000B09326018092010590920205A09203051C
:102FD000B0920405E0DEE985FA85D080C1803280B8
:102FE000F381F98720E030E0A9016D2D7C2D832D40
:102FF0009F2F0E9456AE811109C0D0900B01C09046
:103000000C0130900D0180910E0189878D2D9C2D32
:10301000A32DB9858093230190932401A0932501CA
:10302000B09326014092F9045092FA046092FB0496
:103030007092FC048D819E81AF81B8858093FD04E0
:103040009093FE04A093FF04B0930005A4DE2091AA
:103050000105309102054091030550910405C50119
:10306000B4010E9456AE87FF13C0C701D8018093F8
:10307000230190932401A0932501B093260180920F
:10308000010590920205A0920305B092040583DE2B
:103090000E94687089819A81AB81BC8180932301F1
:1030A00090932401A0932501B09326012A960FB690
:1030B000F894DEBF0FBECDBFDF91CF911F910F916E
:1030C000FF90EF90DF90CF90BF90AF909F908F9048
:1030D0007F906F905F904F903F900895CF92DF92D6
:1030E000EF92FF920F931F936B01FC01E080F18040
:1030F00002811381E9EFF4E0248135814681578113
:103100006081718182819381FBDE1F910F91FF901D
:10311000EF90DF90CF900895CF92DF92EF92FF92E1
:103120000F931F936A01E0900105F0900205009152
:10313000030510910405FB012081318142815381F7
:10314000FC016081718182819381DADE1F910F9190
:10315000FF90EF90DF90CF900895809123019091A0
:103160002401A0912501B0912601809356039093EC
:103170005703A0935803B093590380912101909174
:103180002201909355038093540384E690E090933A
:103190002201809321010895809156039091570355
:1031A000A0915803B0915903809323019093240177
:1031B000A0932501B093260180915403909155036B
:1031C00090932201809321010895FF920F931F9302
:1031D000CF93DF93882329F0D091E804D095D17064
:1031E00001C0D0E0662341F08091E80486958170AB
:1031F00091E0F82EF92601C0F12C442341F0C09152
:10320000E804C2FB882780F9C1E0C82701C0C0E0FC
:10321000D11102C0FF2019F0EBECF1E108C0C1119F
:10322000FBCF58C084ED9DE00E94AC10F801649182
:103230008F010F5F1F4F6111F5CFE0ECF3E0649158
:103240008F010F5F1F4F662331F084ED9DE00E94D8
:10325000AC10F801F4CFDD2371F0EEEBF3E06491F4
:103260008F010F5F1F4F662331F084ED9DE00E94B8
:10327000AC10F801F4CFFF2071F0ECEBF3E06491B7
:103280008F010F5F1F4F662331F084ED9DE00E9498
:10329000AC10F801F4CFCC2319F0EAEBF3E003C053
:1032A000E2EBF3E00BC06491EF0121966623C1F3DA
:1032B00084ED9DE00E94AC10FE01F5CF6491EF011A
:1032C0002196662331F084ED9DE00E94AC10FE0152
:1032D000F5CFC1E08C2FDF91CF911F910F91FF901F
:1032E0000895BF92CF92DF92EF92FF920F931F93B8
:1032F000CF93DF93CDB7DEB728970FB6F894DEBF34
:103300000FBECDBF90911105981709F47AC0B82E61
:10331000882309F453C080E090E0A0E8B0E48D83F6
:103320009E83AF83B887C0900C03D0900D03E090CC
:103330000E03F0900F0320E030E0A901C701B601B1
:103340000E9456AE87FF0CC0A701960160E070E0B6
:1033500080E890E40E947CAD6D837E838F839887A4
:1033600020E030E048E153E46D817E818F819885D3
:103370000E9459B0181644F480E090E0A8E1B3E44C
:103380008D839E83AF83B8872D813E814F81588581
:1033900060910105709102058091030590910405EB
:1033A0000E9456AE87FF0AC019821A821B821C82B5
:1033B000BE016F5F7F4FCE01059690DE6091F904EC
:1033C0007091FA048091FB049091FC042091FD041B
:1033D0003091FE044091FF045091000519821A8239
:1033E0001B821C82E0900105F0900205009103050C
:1033F00010910405FE0131966F0182DD8B2D0E9434
:10340000906380E028960FB6F894DEBF0FBECDBF64
:10341000DF91CF911F910F91FF90EF90DF90CF90B0
:10342000BF9008954F925F926F927F928F929F927A
:10343000AF92BF92CF92DF92EF92FF920F931F93C2
:10344000CF93C82FE82EF12CF701E75EF54FB4902B
:10345000823021F481E045DF811110C16701CC0C7D
:10346000DD1CCC0CDD1CF601E85DF54F4590559058
:10347000659074906B2DBB0C770B880B990B0E9499
:10348000F8AE4B015C0120E030E040EC5FE3C301AB
:10349000B2010E9494B0A50194010E9494B0AB01C6
:1034A000BC0100E010E098018C2F53DAC23061F0CB
:1034B000F601E45EF54F85919591A591B491E82FC1
:1034C000792F6A2F8B2F04C0E0E070E060E480E485
:1034D0002E2F372F462F582FC501B4010E9494B0CC
:1034E0004B015C0120E030E0A9010E9456AE882328
:1034F00009F45DC0C23021F000E010E0980104C082
:1035000000E010E020E830E4B501A40170588C2FF1
:1035100020DAC23009F43AC0F701EB5EF64F64914D
:1035200061111FC0EBECF1E164917F018FEFE81AAC
:10353000F80A662331F084ED9DE00E94AC10F7019B
:10354000F3CFE3EFF8E064917F018FEFE81AF80A18
:10355000662331F084ED9DE00E94AC10F701F3CFBB
:103560006AE0F601E85AF54F4590559065907490E1
:1035700070E080E090E00E94F8AE9B01AC01C301D6
:10358000B2010E945DAE2B013C0105C0412C512CC3
:10359000612C90E4792EA5019401C501B4010E942B
:1035A0007DADAB01BC01930182018C2FD2D981E0AA
:1035B00090E00C2E01C0880F0A94EAF79091E7047E
:1035C000982B9093E7049091E804892B8093E8046A
:1035D000F601EC5BFC4F10821182128213828C2F59
:1035E0009ADBF601EC5CF54F85919591A591B4912C
:1035F000F601E750FB4F80839183A283B383C230EF
:10360000D1F420910C0330910D0340910E035091A1
:103610000F0360910105709102058091030590915F
:1036200004050E947CAD60930105709302058093B0
:1036300003059093040546D9F601E751FB4FD601E7
:10364000A750BB4F8D919D910D90BC91A02D808373
:103650009183A283B383C23089F480E0CF911F911C
:103660000F91FF90EF90DF90CF90BF90AF909F9021
:103670008F907F906F905F904F9033CECF911F913E
:103680000F91FF90EF90DF90CF90BF90AF909F9001
:103690008F907F906F905F904F90089581E0209180
:1036A000080330910903232B09F480E008952F9239
:1036B0003F924F925F926F927F928F929F92AF92C2
:1036C000BF92CF92DF92EF92FF920F931F93CF930F
:1036D000DF93882E362E942E5901C12CD12C7601E1
:1036E000C42FD0E022960C2DC81408F510E0212F2D
:1036F00030E081E090E00A3010F080E090E08C0F44
:103700009D1F281739073CF460E284ED9DE00E947C
:10371000AC101F5FECCFB701A60184ED9DE00E94C5
:10372000DAA48FEFC81AD80AE80AF80ADCCF6AE0F0
:1037300084ED9DE00E94AC10C12CD12C7601092DA6
:1037400010E00E5F1F4F2C2CC31408F057C0E9E0A7
:10375000EC1528F060E284ED9DE00E94AC10B7010A
:10376000A60184ED9DE00E94DAA4C0E0C815D9F15D
:1037700060E284ED9DE00E94AC10622D8C2FF5017B
:1037800009952B013C019B01AC010E9442B18823A9
:1037900011F0D0E01EC020E030E0A901C301B20169
:1037A0000E9459B087FD05C06BE284ED9DE00E9448
:1037B000AC10292DB301A20184ED9DE00E94E7A485
:1037C00010C0D1110CC060E284ED9DE00E94AC10ED
:1037D000DF5F8D2F90E0081719079CF702C06DE39B
:1037E000F3CFCF5FC3CF6AE084ED9DE00E94AC10C1
:1037F000FFEFCF1ADF0AEF0AFF0AA5CF6AE084EDD8
:103800009DE0DF91CF911F910F91FF90EF90DF909E
:10381000CF90BF90AF909F908F907F906F905F9070
:103820004F903F902F900C94AC10CF93DF93EFE02C
:10383000F3E06491EF012196662331F084ED9DE081
:103840000E94AC10FE01F5CF2CE230E143E063E0D2
:1038500083E0DF91CF912BCFCF92DF92EF92FF9257
:103860006091080370910903072E000C880B990BD7
:103870000E94F8AE6B017C012DEB37E346E855EB77
:103880000E9459B087FD0AC02DEB37E346E855E3A7
:10389000C701B6010E9456AE18164CF4A701960156
:1038A00060E070E080E89FE30E945DAE03C060E0EE
:1038B00070E0CB016093FC027093FD028093FE02E6
:1038C0009093FF0260910A0370910B03072E000C86
:1038D000880B990B0E94F8AE6B017C012DEB37E34E
:1038E00046E855EB0E9459B087FD0AC02DEB37E33F
:1038F00046E855E3C701B6010E9456AE18164CF4CF
:10390000A701960160E070E080E89FE30E945DAE51
:1039100003C060E070E0CB0160930003709301038B
:103920008093020390930303FF90EF90DF90CF907A
:1039300008959F92AF92BF92CF92DF92EF92FF9243
:103940000F931F93CF93DF938FE0A82E82E0B82EC2
:1039500009EE14E0C9EFD4E09CE2C92E93E0D92E21
:1039600020E5E22E23E0F22E912CF50181915F01FA
:103970000E949213882309F10E94EB13F701208122
:10398000211104C020911C03222339F028813981A0
:103990004A815B810E947DAD0AC0F3E09F1639F039
:1039A000F60120813181428153810E947CADF80172
:1039B000608371838283938309C088819981AA81FE
:1039C000BB81F80180839183A283B38393940C5FBE
:1039D0001F4F2496F4E0CF0ED11C2FEFE21AF20A0B
:1039E00084E09812C2CF86E40E94DF138823C9F0D6
:1039F0000E94EB1320E030E0A9010E9459B0181694
:103A000084F40E94EB1320E030E040E752E40E948F
:103A10005DAE609323017093240180932501909300
:103A20002601DF91CF911F910F91FF90EF90DF90D2
:103A3000CF90BF90AF909F900895CF92DF92EF927A
:103A4000FF920F931F93CF93DF930FB6F894C0901C
:103A5000C90DD090CA0DE090CB0DF090CC0D0FBEEB
:103A600080911B03811174C080910A01882309F49D
:103A70006FC08091C702882309F46AC04091C302D5
:103A80005091C4026091C5027091C60297018601EF
:103A9000041B150B260B370B37FD6DC0833031F13E
:103AA00034F481300CF454C0EBECF1E106C0843006
:103AB00009F04EC0EBECF1E133C06491EF012196C7
:103AC000662331F084ED9DE00E94AC10FE01F5CF3D
:103AD000EEE7F3E06491EF012196662309F438C024
:103AE00084ED9DE00E94AC10FE01F4CFEBECF1E11F
:103AF0006491EF012196662331F084ED9DE00E94F0
:103B0000AC10FE01F5CFE7E6F3E06491EF012196FA
:103B10006623F1F084ED9DE00E94AC10FE01F5CF2C
:103B20006491EF012196662331F084ED9DE00E94BF
:103B3000AC10FE01F5CFEFE4F3E06491EF012196C4
:103B4000662331F084ED9DE00E94AC10FE01F5CFBC
:103B500020910A0130E0A8EEB3E00E9463ADC60EEA
:103B6000D71EE81EF91EC092C302D092C402E09292
:103B7000C502F092C602DF91CF911F910F91FF9085
:103B8000EF90DF90CF9008950F931F93CF93DF9323
:103B900000D000D0CDB7DEB78091E70483708330CA
:103BA000E9F0EBECF1E164918F010F5F1F4F6623A9
:103BB00031F084ED9DE00E94AC10F801F4CFEEEC02
:103BC000F8E064918F010F5F1F4F662309F43EC038
:103BD00084ED9DE00E94AC10F801F3CF0E946214C6
:103BE00080E090E0A8E9B2E48093ED049093EE04C5
:103BF000A093EF04B093F004809101059091020529
:103C0000A0910305B09104058093F1049093F20410
:103C1000A093F304B093F40480E090E0A0E4B2E455
:103C20008093E9049093EA04A093EB04B093EC042E
:103C300019821A821B821C82AE014F5F5F4F6DEEAC
:103C400074E089EE94E068DA82E0ECDB0F900F908C
:103C50000F900F90DF91CF911F910F9108950F93C7
:103C60001F93CF93DF93CDB7DEB769970FB6F89464
:103C7000DEBF0FBECDBF0E944D936E8B7F8B888FB2
:103C8000998FBE016F5F7F4FCE0146960E94B6129C
:103C9000EBECF1E164918F010F5F1F4F662331F070
:103CA00084ED9DE00E94AC10F801F4CFBE016F5F7F
:103CB0007F4F80E098E00E944E856AE084ED9DE0B1
:103CC0000E94AC1069960FB6F894DEBF0FBECDBF50
:103CD000DF91CF911F910F910895CF93DF93E1ED85
:103CE000F1E16491EF012196662331F084ED9DE0CE
:103CF0000E94AC10FE01F5CFE1EFF7E06491EF0117
:103D00002196662331F084ED9DE00E94AC10FE0107
:103D1000F5CFDF91CF9108950F931F93CF9383E554
:103D20000E94DF13882309F440C00E944214082F28
:103D300080E50E94DF138823C1F10E944214C82F3E
:103D400087FD33C089E40E94DF13882339F00E9485
:103D50005314811112C0E2EEF2E00BC089E40E941C
:103D6000921381110AC0F7CF319683E0EF30F80744
:103D700021F08491C813F8CF14C08C2F0E94E8A5BD
:103D8000EC2FF0E0002E0E948DA610E0B8018C2FE1
:103D90000E94F9A5C03149F410931F0300931E033C
:103DA00004C0CF911F910F9198CFCF911F910F9188
:103DB0000895CF93DF9388E690E00E944616811124
:103DC0002EC08091090583FD2AC083E50E94DF1380
:103DD000882309F10E94EB13C0915201D091530145
:103DE0002F970E94C5AE9E016C177D070CF49B01B6
:103DF0003093BE0D2093BD0D80E00E9484980E94F8
:103E0000EB1320E030E04AEA52E40E9456AE181666
:103E100014F00E94F692DF91CF910C94587FDF91BD
:103E2000CF910895CF92DF92EF92FF9283E50E94A7
:103E3000DF13882321F10E9442148D3308F08CE3B4
:103E40008093390D0FB6F894C090C90DD090CA0D6B
:103E5000E090CB0DF090CC0D0FBE282F30E0A8EEF7
:103E6000B3E00E9463ADC60ED71EE81EF91EC092D5
:103E7000350DD092360DE092370DF092380DFF904F
:103E8000EF90DF90CF90089580E50E94DF138111BD
:103E900006C083E50E94DF13882359F005C00E9405
:103EA000421481110CC0F5CF0E9422146F3F71059E
:103EB00010F06FEF70E070931F0360931E0308957E
:103EC000DF92EF92FF920F931F93CF93DF9383E5DF
:103ED0000E949213882359F083E50E94DF13882300
:103EE00019F00E94421401C080E080930905EBECB8
:103EF000F1E16491EF012196662331F084ED9DE0BC
:103F00000E94AC10FE01F5CFE6EAF7E06491EF0104
:103F10002196662331F084ED9DE00E94AC10FE01F5
:103F2000F5CF809109058823A9F18DEAE82E87E075
:103F3000F82E00E010E020E08091090590E0002ECE
:103F400002C0959587950A94E2F780FF1AC0DD2498
:103F5000D394D20E222329F06CE284ED9DE00E94DE
:103F6000AC10F70185919491FC016491EF012196C9
:103F7000662331F084ED9DE00E94AC10FE01F5CF88
:103F80002D2D0F5F1F4F82E0E80EF11C053011054B
:103F900099F60DC0E2EAF7E06491EF0121966623FD
:103FA00031F084ED9DE00E94AC10FE01F5CF6AE097
:103FB00084ED9DE0DF91CF911F910F91FF90EF90E5
:103FC000DF900C94AC10CF93DF9383E50E94DF1356
:103FD000882351F00E9442148D3308F08CE38093C3
:103FE0000A01DF91CF910895EBECF1E16491EF01CB
:103FF0002196662331F084ED9DE00E94AC10FE0115
:10400000F5CF40910A0150E060E070E08BE997E065
:104010000E942D856AE084ED9DE0DF91CF910C94A4
:10402000AC104F925F926F927F92AF92BF92CF92FD
:10403000DF92EF92FF920F931F93CF938FE0A82E02
:1040400082E0B82E0EEC15E0C0E0F50181915F0131
:104050000E949213882309F46DC0C33009F063C035
:104060000E94EB136B017C0120E030E040EA51E458
:104070000E9456AE87FF4EC0A70196016091DA05F7
:104080007091DB058091DC059091DD050E945DAEAD
:104090002B013C019B01AC016091A6057091A70525
:1040A0008091A8059091A9050E9494B06093A605FF
:1040B0007093A7058093A8059093A905A301920189
:1040C0006091EA057091EB058091EC059091ED050A
:1040D0000E9494B06093EA057093EB058093EC0521
:1040E0009093ED056091FE057091FF0580910006AB
:1040F000909101060E94F6AEA30192010E9494B035
:104100000E94CAAE6093FE057093FF05809300067F
:1041100090930106C092DA05D092DB05E092DC05AF
:10412000F092DD0507C00E94EB13F80160837183F4
:1041300082839383CF5F0C5F1F4FC43009F085CF1C
:10414000CF911F910F91FF90EF90DF90CF90BF9094
:10415000AF907F906F905F904F900C94347F0F934F
:104160001F93CF93DF93C9EFD4E00CE213E0F80183
:104170002081318142815381688179818A819B814B
:104180000E947DADAB01BC0186E493E00E940C85EA
:10419000F80124813581468157816C817D818E8132
:1041A0009F810E947DADAB01BC0182E493E00E943F
:1041B0000C85F80120853185428553856885798590
:1041C0008A859B850E947DADAB01BC018EE393E0A7
:1041D0000E940C854C855D856E857F858AE393E022
:1041E0000E940C85DF91CF911F910F910C945592F5
:1041F0002F923F924F925F926F927F928F929F92F7
:10420000AF92BF92CF92DF92EF92FF920F931F93E4
:10421000CF93DF938FE0882E82E0982EC4E4D3E022
:1042200099EFA92E94E0B92E0CE213E0312C212C49
:10423000F40181914F010E94DF13882309F44AC0E1
:104240000E94EB136B017C01F3E03F1649F0F8018B
:1042500020813181428153810E947CAD6B017C01C0
:10426000F5012081318142815381C701B6010E944D
:104270007CAD2B013C012DEB37E346E855EB0E946A
:1042800059B087FD0AC02DEB37E346E855E3C3017B
:10429000B2010E9456AE1816ECF4F3E03F120BC0C8
:1042A000C0920505D0920605E0920705F092080538
:1042B000222423940FC0A3019201688179818A810D
:1042C0009B810E947DAD688379838A839B83832D44
:1042D0000E948B163394249684E0A80EB11C0C5FC8
:1042E0001F4FE4E03E12A4CF21100E946D15DF9114
:1042F000CF911F910F91FF90EF90DF90CF90BF90E3
:10430000AF909F908F907F906F905F904F903F9075
:104310002F9025CFCF93DF93E3ECF6E06491EF018C
:104320002196662331F084ED9DE00E94AC10FE01E1
:10433000F5CF60E083EB96E00E945B1261E08CEACF
:1043400096E00E945B1261E081EA96E00E945B12B7
:1043500061E081E996E00E945B1260E088E896E007
:104360000E945B1261E08EE796E00E945B1261E0C2
:1043700084E796E00E945B1261E08CE696E00E9482
:104380005B1261E08EE596E00E945B1260E080E5E2
:1043900096E00E945B1260E081E496E00E945B126E
:1043A00060E083E396E00E945B1260E08DE196E0BE
:1043B0000E945B1260E08CE096E00E945B1260E07D
:1043C00087EF95E00E945B1261E084EE95E0DF915B
:1043D000CF910C945B12CF92DF92EF92FF92CF932A
:1043E00088EC90E00E94461681114EC084E40E9441
:1043F0009213882309F441C00E94EB136B017C01E6
:10440000C1E020E030E0A9010E9456AE811101C058
:10441000C0E0C0933E0520E030E0A901C701B6012D
:104420000E9456AE882349F10E94EB13E0911003DD
:1044300024E0E29FF0011124EA56FA4F6083718371
:104440008283938320E030E0A9016091960570910A
:10445000970580919805909199050E9456AE81111B
:104460000CC080E090E0A0EEBFE3809396059093AF
:104470009705A0939805B0939905CF91FF90EF9081
:10448000DF90CF900C94F06ECF91FF90EF90DF9083
:10449000CF900895CF9383E50E94DF138823A1F086
:1044A0000E94EB136093B6057093B7058093B8052F
:1044B0009093B9056093AE057093AF058093B005F6
:1044C0009093B105C0E001C0C1E080E50E94DF1318
:1044D000882359F00E94EB136093B6057093B705DB
:1044E0008093B8059093B905C0E082E50E94DF1380
:1044F000882359F00E94EB136093B2057093B305C3
:104500008093B4059093B505C0E084E50E94DF1365
:10451000882359F00E94EB136093AE057093AF05AA
:104520008093B0059093B1052CC0CC2351F14091FC
:10453000B6055091B7056091B8057091B90580ED49
:1045400095E00E940C854091B2055091B3056091B1
:10455000B4057091B5058DEC95E00E940C854091F5
:10456000AE055091AF056091B0057091B1058AEC30
:1045700095E00E940C856AE084ED9DE0CF910C945B
:10458000AC10CF910895CF93DF9381E50E949213F1
:10459000882351F00E9432146093EE057093EF056A
:1045A0008093F0059093F10583E50E949213882390
:1045B00051F00E94EB136093BA057093BB05809392
:1045C000BC059093BD0584E50E949213882351F0A9
:1045D0000E94EB136093AA057093AB058093AC0522
:1045E0009093AD0588E50E949213882351F00E94B4
:1045F000EB1360939A0570939B0580939C059093B1
:104600009D0589E50E949213882351F00E94EB13C7
:1046100060939E0570939F058093A0059093A105DC
:104620008AE50E9492138823F9F00E94EB136093AD
:10463000A2057093A3058093A4059093A5052DEC86
:104640003CEC4CEC5DE30E9456AE18166CF0E8E9C9
:10465000F5E06491EF012196662331F084ED9DE051
:104660000E94AC10FE01F5CF85E40E9492138823CE
:1046700051F00E94EB136093A6057093A7058093F9
:10468000A8059093A905DF91CF910895CF93DF936B
:10469000EBECF1E16491EF012196662331F084EDBA
:1046A0009DE00E94AC10FE01F5CF83E50E949213BD
:1046B000882321F00E94531480931401E8E8F5E068
:1046C0006491EF012196662331F084ED9DE00E9414
:1046D000AC10FE01F5CF80911401811103C0E0E818
:1046E000F5E002C0E4E8F5E06491EF01219666236D
:1046F00031F084ED9DE00E94AC10FE01F5CFE8E7BB
:10470000F5E06491EF012196662331F084ED9DE0A0
:104710000E94AC10FE01F5CF20912C0330912D03A7
:1047200040912E0350912F0360912003709121033B
:1047300080912203909123030E947DADAB01BC01C7
:1047400086E795E00E940C8520913003309131037B
:1047500040913203509133036091240370912503FB
:1047600080912603909127030E947DADAB01BC018F
:1047700083E795E00E940C85209134033091350346
:1047800040913603509137036091280370912903BB
:1047900080912A0390912B030E947DADAB01BC0157
:1047A00080E795E00E940C85E8E6F5E06491EF0172
:1047B0002196662331F084ED9DE00E94AC10FE014D
:1047C000F5CF20912C0330912D0340912E03509171
:1047D0002F0360911501709116018091170190913E
:1047E00018010E947DADAB01BC0186E695E00E94F8
:1047F0000C85209130033091310340913203509168
:1048000033036091190170911A0180911B019091FD
:104810001C010E947DADAB01BC0183E695E00E94C6
:104820000C8520913403309135034091360350912B
:10483000370360911D0170911E0180911F019091BD
:1048400020010E947DADAB01BC0180E695E00E9495
:104850000C856AE084ED9DE0DF91CF910C94AC1063
:104860000F931F93CF93DF938DED90E00E94461638
:10487000811170C083E50E94DF138823B9F1C091D4
:104880001003D0E00E942214CC0FDD1FC45CDE4F69
:10489000798368838091100390E0EC01CC0FDD1FD9
:1048A000CC0FDD1F8E01085C1E4F880F991FFC0185
:1048B000E45CFE4F60817181072E000C880B990B20
:1048C0000E94F8AE2AE037ED43E25CE30E9494B028
:1048D000CE56DA4F288139814A815B810E9494B09B
:1048E000F801608371838283938334C0EBECF1E140
:1048F0006491EF012196662331F084ED9DE00E94E2
:10490000AC10FE01F5CF65E484ED9DE00E94AC1093
:1049100060911003605D84ED9DE00E94AC10E09119
:104920001003F0E0EE0FFF1FE45CFE4F6081718129
:1049300088E595E00E94CF8465E284ED9DE00E94C9
:10494000AC106AE084ED9DE0DF91CF911F910F9153
:104950000C94AC10DF91CF911F910F910895CF93DC
:10496000DF938AE50E94DF13811105C083E50E9471
:10497000DF138823D1F10E94EB1320E030E040E008
:1049800050EC0E9456AE87FD12C00E94EB1320E04F
:1049900030E040E050E40E9459B018161CF00E942C
:1049A000EB1309C060E070E080E090E404C060E0D8
:1049B00070E080E090EC2091E70422FF16C0C091E7
:1049C000780DD091790D2091D6053091D705409181
:1049D000D8055091D9050E9494B00E94C5AE6C0FC5
:1049E0007D1F7093790D6093780DDF91CF910895BD
:1049F000CF93DF9385E40E94DF13811110C080E51F
:104A00000E949213882391F00E94EB136093820D11
:104A10007093830D8093840D9093850D07C00E9441
:104A20004214882361F3E1EDF1E172C089E40E9450
:104A30009213882381F00E94EB132CEA35EC47E2B5
:104A40005EE30E9494B060937E0D70937F0D80931F
:104A5000800D9093810D84E40E949213882381F04D
:104A60000E94EB132CEA35EC47E25EE30E945DAE58
:104A700060937A0D70937B0D80937C0D90937D0DE8
:104A8000EBECF1E16491EF012196662331F084EDC6
:104A90009DE00E94AC10FE01F5CF4091820D509137
:104AA000830D6091840D7091850D84E595E00E94E1
:104AB0000C852CEA35EC47E25EE360917E0D709147
:104AC0007F0D8091800D9091810D0E945DAEAB01B4
:104AD000BC0180E595E00E940C852CEA35EC47E2AC
:104AE0005EE360917A0D70917B0D80917C0D9091C9
:104AF0007D0D0E9494B0AB01BC018CE495E00E9456
:104B00000C856AE084ED9DE0DF91CF910C94AC10B0
:104B10006491EF012196662331F084ED9DE00E94BF
:104B2000AC10FE01F5CFEAE3F5E06491EF012196C8
:104B3000662331F084ED9DE00E94AC10FE01F5CFBC
:104B4000DF91CF910895CF93DF9380E50E94921378
:104B5000882351F00E94EB136093A80D7093A90D68
:104B60008093AA0D9093AB0D89E40E949213882341
:104B700081F00E94EB132CEA35EC47E25EE30E94E1
:104B800094B06093A40D7093A50D8093A60D90939F
:104B9000A70D84E40E949213882381F00E94EB13F6
:104BA0002CEA35EC47E25EE30E945DAE6093A00D17
:104BB0007093A10D8093A20D9093A30DEBECF1E106
:104BC0006491EF012196662331F084ED9DE00E940F
:104BD000AC10FE01F5CF4091A80D5091A90D609148
:104BE000AA0D7091AB0D86E395E00E940C852CEA2E
:104BF00035EC47E25EE36091A40D7091A50D8091C4
:104C0000A60D9091A70D0E945DAEAB01BC0182E3A1
:104C100095E00E940C852CEA35EC47E25EE360915A
:104C2000A00D7091A10D8091A20D9091A30D0E94F5
:104C300094B0AB01BC018EE295E00E940C856AE065
:104C400084ED9DE0DF91CF910C94AC10CF93DF9376
:104C500083E50E949213C82F882371F00E94EB1302
:104C60000E94C5AE709357016093560121E0672BF7
:104C700009F020E020936D0D80E50E9492138823B7
:104C800059F02091560130915701232B11F00E94C9
:104C9000531480936D0D31C0C1112FC0EBECF1E1C5
:104CA0006491EF012196662331F084ED9DE00E942E
:104CB000AC10FE01F5CF80916D0D811103C064EF42
:104CC00071E002C061EF71E08BE195E00E944E85DA
:104CD00060915601709157018AE095E00E94CF845F
:104CE000E6E0F5E06491EF012196662331F084ED72
:104CF0009DE00E94AC10FE01F5CFDF91CF910895A9
:104D00008F929F92AF92BF92EF92FF920F931F9359
:104D1000CF93DF9300D000D0CDB7DEB785E40E94FB
:104D2000DF13882321F00E9422148B0102C000E0CF
:104D300010E083E40E94DF13882321F00E942214F4
:104D4000F62E02C025E0F22E85E50E94DF138823AF
:104D500021F00E945314E82E04C085E50E949213AE
:104D6000E82E17FD07C0812C912C96E1A92E93E423
:104D7000B92E06C0812C912C8CE8A82E82E4B82E86
:104D800083E50E94DF13882321F00E94EB134B017F
:104D90005C01C501B4010E94C5AE0115110511F4F5
:104DA00010921003072E000C880B990B0E94F8AE8E
:104DB00069837A838B839C832E2D4F2D602FCE01A8
:104DC00001960E94649E0F900F900F900F90DF91BC
:104DD000CF911F910F91FF90EF90BF90AF909F9058
:104DE0008F900895FF920F931F93CF93DF9389E4E1
:104DF0000E94DF13882321F00E942214062F01C095
:104E00000FEF8AE40E94DF13882321F00E9422140E
:104E1000C62F01C0CFEF8AE50E949213D82F8111CF
:104E200005C081E50E949213F82E01C0F12C07FD08
:104E300002C0C7FF03C0E1EDF1E10AC0D1111BC000
:104E4000F11019C0F8CF84ED9DE00E94AC10FE0176
:104E50006491EF0121966111F6CFE7EAF4E06491E5
:104E6000EF012196662309F456C084ED9DE00E946F
:104E7000AC10FE01F4CF033010F4C330D0F0E1EDFC
:104E8000F1E16491EF01219661110DC0E8E8F4E0D1
:104E90006491EF0121966623F1F184ED9DE00E947B
:104EA000AC10FE01F5CF84ED9DE00E94AC10FE0138
:104EB000E8CF002E000C110B0C2E000CDD0B0E9415
:104EC000EB139B01AC01D801AA0FBB1FFF2081F09F
:104ED000FD01E00FF11FEC0FFD1FEE0FFF1FEE0FA6
:104EE000FF1FE852FD4F608171818281938103C071
:104EF00060E070E0CB010A0F1B1FC00FD11FCC0F69
:104F0000DD1FCC0FDD1FC852DD4F0E947DAD6883D1
:104F100079838A839B83DF91CF911F910F91FF90BB
:104F200008952F923F924F925F926F927F928F924D
:104F30009F92AF92BF92CF92DF92EF92FF920F9328
:104F40001F93CF93DF93CDB7DEB72E970FB6F894AC
:104F5000DEBF0FBECDBF41E061E081E00E94E518F9
:104F60008111B9C004E31AE089EF94E09E878D8730
:104F7000FE0131965F0199E1892E9AE0992E1F0179
:104F8000F8016591759185919491ED85FE85C190AB
:104F9000D190E190F190FE87ED87A70196010E94E4
:104FA0007CAD2B013C01F10160837183828393838B
:104FB00020E030E040EA51EC0E9459B087FD0AC081
:104FC00020E030E040EA51E4C301B2010E9456AE55
:104FD00018162CF4F401849118160CF472C0F10127
:104FE000C190D190E190F1901F0120E030E040EAC3
:104FF00051ECC701B6010E9459B087FD0AC020E0FC
:1050000030E040EA51E4C701B6010E9456AE1816DE
:10501000F4F4E1EDF1E164918F010F5F1F4F611135
:1050200003C0EAE6F4E006C084ED9DE00E94AC1007
:10503000F801F1CF64918F010F5F1F4F662309F4D0
:105040004AC084ED9DE00E94AC10F801F3CF0C5FE4
:105050001F4FFFEF8F1A9F0A8AE00034180709F0EC
:105060008FCF88E3E82E83E0F82E10E0F5018191E0
:105070009191A191B1915F01F70181939193A193D6
:10508000B1937F01812F0E948B161F5F133071F740
:105090002E960FB6F894DEBF0FBECDBFDF91CF9135
:1050A0001F910F91FF90EF90DF90CF90BF90AF9046
:1050B0009F908F907F906F905F904F903F902F9038
:1050C0004EC8F7FAF094F7F8F094F101C082D1825B
:1050D000E282F38284CF2E960FB6F894DEBF0FBE25
:1050E000CDBFDF91CF911F910F91FF90EF90DF9097
:1050F000CF90BF90AF909F908F907F906F905F9078
:105100004F903F902F900895CF93DF930E94246398
:105110008823D1F0EBECF1E16491EF012196662355
:1051200031F084ED9DE00E94AC10FE01F5CFEFE57B
:10513000F4E06491EF012196662331F084ED9DE067
:105140000E94AC10FE01F5CFDF91CF910895CF9270
:10515000DF92EF92FF92CF93DF938AE50E94DF13F5
:10516000811103C0EBECF1E13EC00E94EB136B0137
:105170007C0120E030E040E050EC0E9459B087FD17
:105180000AC020E030E040EA51E4C701B6010E94C5
:1051900056AE18161CF4E1EDF1E10EC0C0920C03FE
:1051A000D0920D03E0920E03F0920F0345C084ED00
:1051B0009DE00E94AC10FE016491EF012196611107
:1051C000F6CFE3E4F4E06491EF0121966623A1F1C8
:1051D00084ED9DE00E94AC10FE01F5CF84ED9DE0D2
:1051E0000E94AC10FE016491EF0121966111F6CF8F
:1051F000E4E3F4E06491EF012196662331F084ED5D
:105200009DE00E94AC10FE01F5CF40910C0350913F
:105210000D0360910E0370910F0381E394E00E94EF
:105220000C856AE084ED9DE0DF91CF91FF90EF90D7
:10523000DF90CF900C94AC10DF91CF91FF90EF9066
:10524000DF90CF900895CF92DF92EF92FF92CF93AD
:10525000DF938BE40E94DF13811103C0EBECF1E1DB
:1052600036C08BE40E94DF138823C1F00E94EB1349
:105270006B017C0120E030E0A9010E9459B087FD5C
:105280000AC020E030E040E251E4C701B6010E94CC
:1052900056AE181634F4E2E1F4E00EC0C12CD12C65
:1052A00076010E946870C0925705D0925805E0922E
:1052B0005905F0925A052DC06491EF01219666239D
:1052C00041F184ED9DE00E94AC10FE01F5CF6491A8
:1052D000EF012196662331F084ED9DE00E94AC1031
:1052E000FE01F5CF40915705509158056091590541
:1052F00070915A0587E094E00E940C856AE084ED85
:105300009DE0DF91CF91FF90EF90DF90CF900C94D4
:10531000AC10DF91CF91FF90EF90DF90CF90089588
:105320001F93CF93DF93182FEBECF1E16491EF0122
:105330002196662331F084ED9DE00E94AC10FE01C1
:10534000F5CF64E584ED9DE00E94AC10412F50E064
:1053500060E070E020E084ED9DE00E946EA460E2D9
:1053600084ED9DE00E94AC10E6EEF3E06491EF0165
:105370002196662331F084ED9DE00E94AC10FE0181
:10538000F5CFDF91CF911F910895CF93DF93E091F7
:10539000DD04F0E0E853FD4F80818823A1F0EFECBD
:1053A000F2E06491EF012196662331F084ED9DE0F7
:1053B0000E94AC10FE01F5CF6AE084ED9DE0DF9124
:1053C000CF910C94AC10DF91CF910895CF92DF92E2
:1053D000EF92FF92CF93DF9320911401222309F4DF
:1053E00085C0EC01C0902003D0902103E0902203FF
:1053F000F0902303A7019601688179818A819B81BE
:105400000E9456AE87FF04C0C882D982EA82FB821E
:10541000C0902403D0902503E0902603F09027034A
:10542000A70196016C817D818E819F810E9456AE7D
:1054300087FF04C0CC82DD82EE82FF82C09015011E
:10544000D0901601E0901701F0901801A701960185
:10545000688179818A819B810E9459B0181624F451
:10546000C882D982EA82FB82C0901901D0901A01C9
:10547000E0901B01F0901C01A70196016C817D81D9
:105480008E819F810E9459B0181624F4CC82DD824F
:10549000EE82FF82C0902803D0902903E0902A0377
:1054A000F0902B03A7019601688579858A859B85F5
:1054B0000E9456AE87FF04C0C886D986EA86FB865E
:1054C000C0901D01D0901E01E0901F01F0902001BE
:1054D000A7019601688579858A859B850E9459B0C8
:1054E000181624F4C886D986EA86FB86DF91CF9108
:1054F000FF90EF90DF90CF9008958F929F92AF92A0
:10550000BF92CF92DF92EF92FF920F931F93CF93B0
:10551000DF93EC016091040370910503072E000CEA
:10552000880B990B0E94F8AE9B01AC0168817981D0
:105530008A819B810E947CAD4B015C0160910603D6
:1055400070910703072E000C880B990B0E94F8AE90
:105550009B01AC016C817D818E819F810E947CAD1D
:105560006B017C01209106013091070140910801F7
:1055700050910901C501B4010E9456AE882309F477
:1055800069C08092060190920701A0920801B09232
:1055900009012091FC023091FD024091FE025091E0
:1055A000FF02C501B4010E9494B04B015C010E944E
:1055B00033AF8B01D82FC92F20E030E0A9010E9422
:1055C00056AE87FD10C020E030E040E050E4B80166
:1055D0008D2F9C2F0E9459B018164CF400E010E05B
:1055E000D0E0C0E404C000E010E0D0E0C0E09801EA
:1055F0004D2F5C2FC501B4010E947CAD4B015C01B5
:1056000020E030E0A9010E9456AE87FD09C08092DB
:10561000520290925302A0925402B092550208C0D6
:10562000109252021092530210925402109255029C
:10563000B8018D2F9C2F0E94C5AE60935102062E9B
:10564000000C770B6F5F7F4F623071050CF062E0EA
:1056500060935002209102013091030140910401B6
:1056600050910501C701B6010E9456AED0910101CB
:10567000C0915102811103C0DC1366C02CC1C092DD
:105680000201D0920301E0920401F0920501209101
:105690000003309101034091020350910303C701BD
:1056A000B6010E9494B06B017C010E9433AF5B0194
:1056B0008C0120E030E0A9010E9456AE87FD0FC0AA
:1056C00020E030E040E050E4B501C8010E9459B04C
:1056D00018164CF4A12CB12C00E010E404C0A12C4D
:1056E000B12C00E010E09501A801C701B6010E94AD
:1056F0007CAD6B017C0120E030E0A9010E9456AE38
:1057000087FD09C0C0924C02D0924D02E0924E0239
:10571000F0924F0208C010924C0210924D0210926B
:105720004E0210924F02B501C8010E94C5AE6093AF
:105730004B02062E000C770B6F5F7F4F62307105B6
:105740000CF062E060934A0220914B02DC1305C02A
:1057500080910001821709F474C0C0930101209365
:1057600000018C2FCC0F990BC22F220FDD0B9C0157
:10577000220F331F820F931FFC01EC0FFD1FEE0F52
:10578000FF1FEE0FFF1FE852FD4F20813181428144
:10579000538120934602309347024093480250932E
:1057A000490200914A02002E000C110BFC01E00F8F
:1057B000F11FEE0FFF1FEE0FFF1FE852FD4F60813C
:1057C0007181828193810E947CAD609342027093CB
:1057D00043028093440290934502E09150020E2EC2
:1057E000000CFF0BCF01880F991FE80FF91FCE0F98
:1057F000DF1FCC0FDD1FCC0FDD1FC852DD4F28810E
:1058000039814A815B8120933E0230933F0240936D
:10581000400250934102E00FF11FEE0FFF1FEE0F09
:10582000FF1FE852FD4F60817181828193810E9448
:105830007CAD60933A0270933B0280933C0290935C
:105840003D0280904C0290904D02A0904E02B0908C
:105850004F02209142023091430240914402509104
:105860004502C501B4010E9494B0209146023091D6
:10587000470240914802509149020E947DAD6B0160
:105880007C016093360270933702809338029093C4
:10589000390220913A0230913B0240913C025091F2
:1058A0003D02C501B4010E9494B020913E023091A6
:1058B0003F0240914002509141020E947DADA701FC
:1058C00096010E947CAD6093320270933302809304
:1058D000340290933502209132023091330240918C
:1058E00034025091350260915202709153028091BE
:1058F0005402909155020E9494B02091360230914A
:10590000370240913802509139020E947DADDF91FB
:10591000CF911F910F91FF90EF90DF90CF90BF90AC
:10592000AF909F908F900895CF93DF9380E00E9477
:105930005270CCECD2E0688379838A839B8381E0C8
:105940000E9452706C837D838E839F8382E00E94CD
:105950005270688779878A879B87DF91CF910895F6
:10596000CF93DF93E1DF6BE584ED9DE00E94AC1007
:10597000CCECD2E0488159816A817B8122E084EDC0
:105980009DE00E94E7A44C815D816E817F818CE463
:1059900093E00E940C85488559856A857B8589E45A
:1059A00093E00E940C856DE584ED9DE00E94AC10B3
:1059B0006AE084ED9DE0DF91CF910C94AC10CF9321
:1059C000C82FB2DF8CEC92E00E94CB6FCE3F51F437
:1059D0008CE0ECECF2E0A9EFB4E001900D928A9536
:1059E000E1F713C024E0C29FC0011124FC01E7507D
:1059F000FB4FDC01A453BD4F8D919D910D90BC9147
:105A0000A02D80839183A283B383CF9108951F93A8
:105A1000CF93DF93CDB7DEB72C970FB6F894DEBFE8
:105A20000FBECDBF882331F02091080330910903C8
:105A3000232B01F1909191058917E1F0182F0E9415
:105A400068708CE0E1E6F1E0DE01119601900D92C4
:105A50008A95E1F7CE01019650DD10939105111161
:105A600003C082E0ACDF04C089EF94E00E94CB6FFA
:105A70000E9462142C960FB6F894DEBF0FBECDBF05
:105A8000DF91CF911F910895CF92DF92EF92FF9215
:105A90000F931F93CF93DF93CDB7DEB72C970FB63D
:105AA000F894DEBF0FBECDBF7B018C01D42E9B01CD
:105AB000AC0160918D0570918E0580918F0590915C
:105AC00090050E9456AE882309F494C0C0909105B9
:105AD00080E09DDF20E030E0A901B701C8010E940D
