:100000000C94C60F0C94F00F0C94F00F0C94F00F9E
:100010000C94F00F0C94F00F0C94F00F0C94F00F64
:100020000C94F00F0C94F00F0C941FA20C949CA253
:100030000C94F00F0C94F00F0C94F00F0C94F00F44
:100040000C94F00F0C949D7E0C94F00F0C94F00F18
:100050000C94F00F0C94F00F0C9468930C947EA108
:100060000C94F00F0C94F00F0C94F00F0C94F00F14
:100070000C94F00F0C94F00F0C94F00F0C94F00F04
:100080000C94F00F0C94F00F0C94F00F0C94F00FF4
:100090000C94F00F0C94F00F084AD73B3BCE016E46
:1000A00084BCBFFDC12F3D6C74319ABD56833DDACF
:1000B0003D00C77F11BED9E4BB4C3E916BAAAABEDE
:1000C000000000803F05A84CCDB2D44EB93836A907
:1000D000020C50B9918688083CA6AAAA2ABE000044
:1000E00000803F004E414E494E495459494E46CD3D
:1000F000CCCC3D0AD7233C17B7D13877CC2B3295DF
:1001000095E6241FB14F0A000020410000C84200BC
:10011000401C4620BCBE4CCA1B0E5AAEC59D742066
:1001200020506C616E6E65724275666665724279CA
:100130007465733A20002046726565204D656D6FC9
:1001400072793A2000436F6D70696C65643A2041A2
:10015000707220313820323032300A00207C204149
:100160007574686F723A20286A6E6F656C2C203245
:100170003032302D30342D3138290A0032303138C8
:100180002D30382D303100204C617374205570644F
:10019000617465643A2000312E312E390A004D61B8
:1001A000726C696E0020536F6674776172652052BD
:1001B000657365740A00205761746368646F672013
:1001C00052657365740A002042726F776E206F75F6
:1001D000742052657365740A002045787465726EE8
:1001E000616C2052657365740A00506F77657255B3
:1001F000700A0073746172740A005072696E7465DB
:10020000722068616C7465642E206B696C6C28299F
:100210002063616C6C6564210A004B494C4C454479
:100220002E20004B494C4C2063617573656420623D
:100230007920746F6F206D75636820696E616374D7
:100240006976652074696D65202D2063757272650D
:100250006E7420636F6D6D616E643A200020746F60
:100260006F206C6F6E6720657874727573696F6E3E
:100270002070726576656E7465640A0020636F6C29
:100280006420657874727573696F6E20707265761C
:10029000656E7465640A006F6B00526573656E6409
:1002A0003A200041637469766520457874727564FC
:1002B00065723A2000496E76616C696420657874D5
:1002C00072756465720A004E6F2063617365206CFD
:1002D000696768740A00416476616E6365204B3D0E
:1002E000003F4B2076616C7565206F7574206F66DA
:1002F0002072616E67652028302D3130292E0A006A
:100300003A200050726F6265205A204F666673650E
:1003100074003F5A206F7574206F662072616E679B
:100320006520282D3220746F203230290A0045457F
:1003300050524F4D204F4B0A00546F6F2066617230
:100340002066726F6D207265666572656E636520EA
:10035000706F696E740A00426564204C6576656C46
:10036000696E6720004661696C656420746F206562
:100370006E61626C6520426564204C6576656C69CF
:100380006E670A00426564204C6576656C20436F99
:100390007272656374696F6E204D61747269783A28
:1003A0000043290A0061626C656420286D696E2033
:1003B00074656D702000436F6C642065787472758D
:1003C000646573206172652000496E76616C6964B2
:1003D0002065787472756465720A0020643A0020A2
:1003E000693A0020703A0020466C6F773A2000206E
:1003F0005A00205900580020204D61783A200020F2
:100400005A00205900580020204D696E3A20004FB4
:100410006666004F6E2000536F667420656E6473CD
:10042000746F70733A2000205400205200416363BF
:10043000656C65726174696F6E3A2050002F2F20D1
:1004400000544845524D414C5F50524F544543541F
:10045000494F4E004155544F5245504F52545F53EF
:10046000445F53544154555300454D455247454E02
:1004700043595F50415253455200434153455F4CED
:10048000494748545F4252494748544E45535300E8
:10049000544F47474C455F4C494748545300534FCE
:1004A0004654574152455F504F57455200425549B7
:1004B0004C445F50455243454E54004C4556454CC4
:1004C000494E475F44415441005A5F50524F4245A4
:1004D000004155544F4C4556454C005052494E54DE
:1004E0005F4A4F420050524F4752455353004155C7
:1004F000544F5245504F52545F54454D5000564F43
:100500004C554D455452494300454550524F4D00BE
:1005100053455249414C5F584F4E5F584F46460035
:100520004649524D574152455F4E414D453A4D6106
:10053000726C696E20312E312E392028476974681B
:1005400075622920534F555243455F434F44455FE1
:1005500055524C3A68747470733A2F2F67697468F7
:1005600075622E636F6D2F4D61726C696E46697294
:100570006D776172652F4D61726C696E2050524FBC
:10058000544F434F4C5F56455253494F4E3A312ECC
:1005900030204D414348494E455F545950453A50EB
:1005A00072696E7472626F742053696D706C65202D
:1005B0004D6574616C205265762E44204558545226
:1005C000554445525F434F554E543A312055554995
:1005D000443A63656465326132662D343161322D8F
:1005E000343734382D396231322D63353563363244
:1005F0006633363766660A003A004361703A002077
:10060000453A00205A3A0020593A00583A004D31F4
:1006100031332053006F66660044454255473A0027
:100620004B0646063F0638062A06434F4D4D554EAB
:1006300049434154494F4E0044525952554E00458A
:1006400052524F525300494E464F004543484F00C7
:1006500020573A0020573A004B494C4C45442E2035
:10066000006F6B0050726F7465637465642050692D
:100670006E0A0000011C1D132FFFFFFFFF1E1F123B
:10068000FF14FFFFFF20211124FFFFFFFFFFFFFFEB
:100690000E10FFFFFF22230DFFFFFF0E260FFF2787
:1006A0005072696E742074696D653A20002C2000C8
:1006B0002C2000205A3A200020593A20004265643C
:1006C00020583A20000A0A426564204C6576656C21
:1006D00020436F7272656374696F6E204D6174722E
:1006E00069783A00202B000A436F72726563746563
:1006F0006420426564204865696768742076732EBB
:100700002042656420546F706F6C6F67793A0A00FD
:10071000202B000A4265642048656967687420548C
:100720006F706F6772617068793A0A2020202B2DF4
:100730002D2D204241434B202D2D2B0A2020207CA3
:1007400020202020202020202020207C0A204C2037
:100750007C20202020282B29202020207C20520AA9
:100760002045207C20202020202020202020207CAC
:1007700020490A2046207C20282D29204E20282B85
:1007800029207C20470A2054207C20202020202063
:1007900020202020207C20480A2020207C2020208F
:1007A00020282D29202020207C20540A2020207C55
:1007B00020202020202020202020207C0A202020F3
:1007C0004F2D2D2046524F4E54202D2D2B0A2028E0
:1007D000302C30290A004D65616E206F66207361F0
:1007E0006D706C656420706F696E74733A200020C0
:1007F000643A200020623A200045716E20636F65E4
:100800006666696369656E74733A20613A200020F8
:100810002844525952554E290047323920417574A7
:100820006F20426564204C6576656C696E67003F99
:1008300020284C2C522C462C4229206F7574206F96
:100840006620626F756E64732E0A003F50726F628D
:100850006520706F696E7473202859292069732090
:10086000696D706C61757369626C652028322D3317
:10087000292E0A003F50726F626520706F696E7496
:10088000732028582920697320696D706C61757315
:1008900069626C652028322D33292E0A003F2856C4
:1008A000296572626F7365206C6576656C2069736B
:1008B00020696D706C61757369626C652028302DDC
:1008C00034292E0A0047322F47332062616420709A
:1008D0006172616D65746572730A00627573793A4D
:1008E0002070617573656420666F7220696E707523
:1008F000740A00627573793A2070617573656420BB
:10090000666F7220757365720A00627573793A209A
:1009100070726F63657373696E670A0050726F62FD
:10092000696E67206661696C65640A00205A3A2026
:100930000020593A200042656420583A2000206681
:10094000697273740A005A0059005800486F6D6547
:1009500020005761726E696E673A20486F6D696E4C
:10096000672042756D702044697669736F72203C10
:1009700020310A0002020420496E76616C6964200D
:10098000657874727564657220004B494C4C45441F
:100990002E20005072696E7465722073746F7070CF
:1009A00065642064756520746F206572726F727360
:1009B0002E2046697820746865206572726F7220F7
:1009C000616E6420757365204D39393920746F204C
:1009D000726573746172742E202854656D7065722F
:1009E00061747572652069732072657365742E2059
:1009F0005365742069742061667465722072657332
:100A000074617274696E67290A004E6F20436865CD
:100A1000636B73756D2077697468206C696E6520EF
:100A20006E756D6265722C204C617374204C696E1A
:100A3000653A2000636865636B73756D206D69733B
:100A40006D617463682C204C617374204C696E6511
:100A50003A20004C696E65204E756D6265722069A2
:100A600073206E6F74204C617374204C696E652026
:100A70004E756D6265722B312C204C617374204C65
:100A8000696E653A20004D31313000656E717565D3
:100A90007565696E67202200FF01FF0000A040001D
:100AA00000A0400000004000001A4300001A43006C
:100AB000001843000000C0000018430000000000C0
:100AC0000018430000184300001843000000C00055
:100AD0000000C00000000000004842000048420042
:100AE000008040000000002569730025696D202505
:100AF0006973002569682025696D202569730025C3
:100B00006964202569682025696D202569730025A1
:100B1000697920256964202569682025696D20256B
:100B200069730020204D393030204B004C696E65D0
:100B3000617220416476616E63653A0A0020204D3F
:100B4000383531205A005A2D50726F6265204F6639
:100B5000667365740020440020490020204D333026
:100B6000312050005049442073657474696E677376
:100B70003A0A0020204D3432302053004175746F02
:100B800020426564204C6576656C696E673A0A00A0
:100B9000205A0020590020204D323036205800487D
:100BA0006F6D65206F66667365743A0A00204500B4
:100BB000205A0020590020580020540020530020C3
:100BC000204D32303520510020453C6D61785F6505
:100BD0005F6A65726B3E0020583C6D61785F785F9C
:100BE0006A65726B3E20593C6D61785F795F6A651A
:100BF000726B3E205A3C6D61785F7A5F6A65726BFA
:100C00003E00416476616E6365643A20513C6D69D3
:100C10006E5F7365676D656E745F74696D655F7532
:100C2000733E20533C6D696E5F66656564726174E6
:100C3000653E20543C6D696E5F74726176656C5FD1
:100C400066656564726174653E0020540020520040
:100C500020204D323034205000416363656C657252
:100C60006174696F6E2028756E6974732F733229F1
:100C70003A20503C7072696E745F616363656C3ECC
:100C800020523C726574726163745F616363656C6A
:100C90003E20543C74726176656C5F616363656C81
:100CA0003E0A00204500205A0020590020204D32E5
:100CB00030312058004D6178696D756D2041636356
:100CC000656C65726174696F6E2028756E697473E6
:100CD0002F7332293A0A00204500205A002059007B
:100CE00020204D3230332058004D6178696D756D8C
:100CF000206665656472617465732028756E697419
:100D0000732F73293A0A00204500205A0020590009
:100D100020204D393220580053746570732070655F
:100D20007220756E69743A0A0020204D32303020EE
:100D300044300A0020204D323030204400204469E5
:100D40007361626C65640A0046696C616D656E74FE
:100D50002073657474696E67733A002020473231DE
:100D6000202020203B003A0A0020286D6D290048F1
:100D7000617264636F6465642044656661756C7458
:100D80002053657474696E6773204C6F6164656489
:100D90000A00D0070000D00700001E000000102746
:100DA00000000000FA420000FA420000E0400000AB
:100DB00060410000A0420000A0420080FC4400000E
:100DC000BD42290A002062797465733B2063726317
:100DD00020002073746F7265642073657474696E8B
:100DE00067732072657472696576656420280020D7
:100DF0002863616C63756C6174656429210A002045
:100E0000213D2000454550524F4D20435243206D17
:100E100069736D61746368202D202873746F726527
:100E2000642920002053697A653A2000496E646580
:100E3000783A2000204D61726C696E3D5635362936
:100E40000A0028454550524F4D3D00454550524FF0
:100E50004D2076657273696F6E206D69736D617474
:100E600063682000290A002062797465733B20635F
:100E70007263200053657474696E67732053746FD6
:100E8000726564202800454550524F4D20646174BE
:100E90006173697A65206572726F722E0A004572FD
:100EA000726F722077726974696E6720746F204563
:100EB0004550524F4D210A007A5F6D696E00795F8F
:100EC0006D617800785F6D696E005265706F727445
:100ED000696E6720656E6473746F702073746174DB
:100EE00075730A006F70656E00545249474745524A
:100EF0004544003A2000205A3A0020593A00205830
:100F00003A00656E6473746F7073206869743A2078
:100F100000486F6D696E67206661696C6564005595
:100F20006E6B6E6F776E20636F6D6D616E643A20CD
:100F3000220020746F6F206C6F6E6720657874726A
:100F40007573696F6E2070726576656E7465640A7C
:100F50000020636F6C6420657874727573696F6EBE
:100F60002070726576656E7465640A000000000189
:100F700000000001000080005555550000004000B1
:100F800033333300AAAA2A0049922400000020002B
:100F9000C7711C0099991900D145170055551500C6
:100FA0003BB1130024491200111111000000100080
:100FB0000F0F0F00E3380E0043790D00CCCC0C006E
:100FC000C3300C00E8A20B0064210B00AAAA0A009F
:100FD000703D0A009DD80900427B09009224090057
:100FE000DCD30800888808001042080000000800D0
:100FF000F0C107008787070075500700711C0700C4
:101000003EEB0600A1BC060069900600666606007D
:10101000703E06006118060017F4050074D1050043
:101020005BB00500B29005006272050055550500E1
:1010300078390500B81E0500050505004EEC0400D2
:1010400087D40400A1BD040090A7040049920400C5
:10105000C17D0400EE690400C75604004444040046
:101060005C32040008210400411004000000040068
:101070003FF00300F8E0030026D20300C3C30300DF
:10108000CCB503003AA803000A9B0300388E030086
:10109000C08103009F750300D0690300505E030008
:1010A0001D53030034480300913D03003333030014
:1010B00016290300381F030097150300300C0300A6
:1010C000030303000BFA020049F10200BAE8020030
:1010D0005CE002002DD802002DD0020059C80200A9
:1010E000B0C0020031B90200DAB10200AAAA0200BF
:1010F000A0A30200BC9C0200FA9502005C8F0200D3
:10110000DF88020082820200457C0200277602000E
:1011100027700200436A02007C640200D05E020075
:101120003F590200C8530200FFFDFCFAF8F6F4F242
:10113000F0EEECEAE9E7E5E3E1E0DEDCDAD9D7D589
:10114000D4D2D0CFCDCBCAC8C7C5C3C2C0BFBDBC27
:10115000BAB9B7B6B4B3B2B0AFADACAAA9A8A6A598
:10116000A4A2A1A09E9D9C9A9998979594939290E1
:101170008F8E8D8B8A8988878684838281807F7E0B
:101180007D7B7A797877767574737271706F6E6D16
:101190006C6B6A696867666564636261605F5E5D07
:1011A0005C5B5A5958585756555453525150504FEA
:1011B0004E4D4C4B4A4A49484746464544434242B5
:1011C00041403F3E3E3D3C3B3B3A3938383736356F
:1011D00035343332323130302F2E2E2D2C2B2B2A1A
:1011E00029292827272625252423232221212020B9
:1011F0001F1E1E1D1C1C1B1B1A191918181716164A
:10120000151514131312121111100F0F0E0E0D0DD0
:101210000C0C0B0A0A09090808070706060505044D
:1012200004030302020100006563686F3A0045721F
:10123000726F723A00205A3A0020593A0020436FE8
:10124000756E7420583A00232C0000B82200005616
:101250001800003A0F0000B8080000B10400007147
:101260000200003E01000024F4D43050C38E20C29E
:10127000A24017828B7011127A910D816CD90AA845
:1012800061E108C7586607615143061E4B5D05C101
:1012900045A7041A411104093D98037139310340EF
:1012A00036DB0265339102D4305402802E1D026376
:1012B0002CEE01752AC501B028A001102781018FED
:1012C0002564012B244B01E0223401AC211F018D48
:1012D000200D01801FFC00841EED00971DDF00B86B
:1012E0001CD200E61BC600201BBC00641AB200B270
:1012F00019A8000A19A0006A189900D11791004096
:10130000178B00B516840031167E00B31579003AAC
:10131000157300C7146F0058146A00EE1366008836
:1013200013630025135E00C7125B006C1257001593
:10133000125400C111510070114F0021114B00D601
:101340001049008D1047004610440002104200C0B2
:101350000F4000800F3E00420F3C00060F3B00CBC9
:101360000E3800930E37005C0E3500270E3400F364
:101370000D3200C10D3100900D3000600D2E003295
:101380000D2D00050D2C00D90C2B00AE0C2900856D
:101390000C29005C0C2700350C27000E0C2600E8F9
:1013A0000B2400C40B2400A00B23007D0B23005A48
:1013B0000B2100390B2100180B2000F80A1F00D95F
:1013C0000A1E00BB0A1E009D0A1D00800A1D006344
:1013D0000A1C00470A1B002C0A1B00110A1A00F7FE
:1013E000091A00DD091900C4091900AB0919009296
:1013F0000917007B091800630917004C091600360D
:10140000091600200916000A091500F5081500E064
:10141000081400CC081400B8081400A408140090A4
:101420000813007D0812006B0813005808120046CC
:1014300008120034081100230811001208110001DD
:10144000081100F0071000E0071000D0071000C0DE
:10145000071000B0070F00A107100091070E0083CE
:10146000070F0074070F0065070E0057070E0049AD
:10147000070E003B070D002E070E0020070D00137E
:10148000070D0006070D00F9060C00ED060D00E043
:10149000060C00D4060C00C8060C00BC060C00B0FC
:1014A000060C00A4060B0099060C008D060B0082AA
:1014B000060B0077060B006C060B0061060A00574E
:1014C000060B004C060A0042060A0038060A002EE7
:1014D000060A0024060A001A060A00100609000778
:1014E000060A00FD050900F4050900EB050900E204
:1014F000050900D9050900D0050900C7050900BE86
:10150000050900B5050800AD050800A50509009C02
:10151000050800940508008C050800840508007C77
:10152000050800740508006C050700650508005DE6
:10153000050700560508004E05070047050700404F
:1015400005080038050700310507002A05070023B4
:101550000507001C050600160507000F0507000813
:1015600005060002050700FB040600F5040700EE6F
:10157000040600E8040600E2040700DB040600D5C8
:10158000040600CF040600C9040600C3040600BD1B
:10159000040600B7040600B1040500AC040600A66A
:1015A000040600A00405009B0406009504050090B5
:1015B0000406008A04050085040500800406007AFC
:1015C00004050075040500700405006B0405006641
:1015D000040500610405005C040500570405005281
:1015E0000405004D04050048040500430405003EC1
:1015F0000404003A04050035040500300404002CFE
:1016000004050027040400230405001E0404001A36
:1016100004040016040500110404000D040400096C
:101620000405000404040000040400FC030400F8A2
:10163000030400F4030400F0030400EC030400E8D6
:10164000030400E4030400E0030400DC030400D806
:10165000030400D4030400D0030400CC030400C836
:10166000030300C503030024F404D9201BC40C5C4D
:101670000E9804C4095F0265077101F405F900FBC7
:1016800004B30048048700C10369005803550003F0
:10169000034500BE023A008402310053022A0029A9
:1016A00002250004022000E4011C00C8011900AF5B
:1016B00001170098011400840113007101100061EA
:1016C00001100051010E0043010D0036010B002BEB
:1016D000010B0020010B00150109000C010900039A
:1016E000010800FB000800F3000800EB000700E41D
:1016F000000600DE000600D8000600D2000600CC7E
:10170000000500C7000500C2000500BD000400B9C7
:10171000000400B5000400B1000400AD000400A9FD
:10172000000400A5000300A20003009F0004009B2A
:10173000000300980003009500020093000300904E
:101740000003008D0002008B000300880002008669
:1017500000020084000300810002007F0002007D7F
:101760000002007B00020079000200770001007691
:101770000002007400020072000100710002006F9C
:101780000002006D0001006C0002006A00010069A7
:1017900000020067000100660001006500010064AE
:1017A0000002006200010061000100600001005FB2
:1017B0000002005D0001005C0001005B0001005AB6
:1017C00000010059000100580001005700010056B7
:1017D00000010055000100540001005300000053B7
:1017E0000001005200010051000100500001004FB3
:1017F0000001004E0000004E0001004D0001004CB1
:101800000001004B0000004B0001004A00010049AC
:1018100000010048000000480001004700010046A8
:1018200000000046000100450000004500010044A2
:10183000000100430000004300010042000000429C
:101840000001004100000041000100400001003F94
:101850000000003F0001003E0000003E0001003D8E
:101860000000003D0001003C0000003C0000003C86
:101870000001003B0000003B0001003A0000003A7C
:101880000001003900000039000100380000003874
:10189000000000380001003700000037000100366A
:1018A0000000003600000036000100350000003561
:1018B0000000003500010034000000340000003456
:1018C000000100330000003300000033000100324B
:1018D0000000003200000032000100310000003141
:1018E0000000003100010030000000300000003036
:1018F0000001002F0000002F0000002F0000002F2B
:101900000001002E0000002E0000002E0001002D1E
:101910000000002D0000002D0000002D0001002C13
:101920000000002C0000002C0000002C0001002B07
:101930000000002B0000002B0000002B0001002AFB
:101940000000002A0000002A0000002A00010029EF
:1019500000000029000000290000002900000029E3
:1019600000010028000000280000002800000028D6
:1019700000000028000100270000002700000027C9
:1019800000000027000000270001002600000026BC
:1019900000000026000000260000002600010025AF
:1019A00000000025000000250000002500000025A3
:1019B0000000002500010024000000240000002495
:1019C0000000002400000024000100230000002388
:1019D000000000230000002300000023000000237B
:1019E000000000230001002200000022000000226D
:1019F000000000220000002200000022000100215F
:101A00000000002100000021000000210000002152
:101A10000000002100000021000100200000002043
:101A20000000002000000020000000200000002036
:101A300000000020000000200001001F0000001F27
:101A40000000001F0000001F0000001F0000001F1A
:101A50000000001F0001001E0000001E0000001E0C
:101A60000000001E0000002042403A0020403A00E2
:101A7000202F00453120544845524D414C205255AD
:101A80004E415741590042454420544845524D412A
:101A90004C2052554E4157415900546865726D6152
:101AA0006C2052756E6177617900426564206865CB
:101AB0006174696E67206661696C65640048656180
:101AC00074696E67206661696C6564004531204801
:101AD000656174696E67206661696C65640048655C
:101AE0006174696E67206661696C656400453120C8
:101AF0004572723A204D494E54454D500045727220
:101B00003A204D494E54454D5020424544004D49E0
:101B10004E54454D50207472696767657265640064
:101B20004531204572723A204D415854454D500080
:101B30004572723A204D415854454D50204245441B
:101B4000004D415854454D50207472696767657265
:101B50006564006265640A002C2073797374656D96
:101B60002073746F707065642120486561746572BC
:101B70005F49443A200023646566696E65204445E8
:101B80004641554C545F4B64200023646566696E82
:101B9000652044454641554C545F4B692000236401
:101BA0006566696E652044454641554C545F4B70EF
:101BB0002000504944204175746F74756E6520662D
:101BC000696E697368656421205075742074686556
:101BD000206C617374204B702C204B6920616E6403
:101BE000204B6420636F6E7374616E747320667231
:101BF0006F6D2062656C6F7720696E746F20436F24
:101C00006E66696775726174696F6E2E680A00503E
:101C10004944204175746F74756E65206661696C06
:101C20006564212074696D656F75740A0045312003
:101C3000544845524D414C2052554E415741590050
:101C4000546865726D616C2052756E6177617900C0
:101C500045312048656174696E67206661696C650D
:101C6000640048656174696E67206661696C6564CB
:101C700000504944204175746F74756E652066612B
:101C8000696C6564212054656D706572617475724C
:101C90006520746F6F20686967680A00204B643A9A
:101CA0002000204B693A2000204B703A20000A2087
:101CB000436C617373696320504944200A002054C7
:101CC000753A2000204B753A2000206D61783A204B
:101CD00000206D696E3A200020643A20002062697D
:101CE00061733A2000504944204175746F74756ED9
:101CF000652073746172740A005049442041757400
:101D00006F74756E65206661696C65642120546529
:101D10006D706572617475726520746F6F2068698B
:101D200067680A00504944204175746F74756E6588
:101D3000206661696C656421204261642065787465
:101D40007275646572206E756D6265720A0070014D
:101D50002C0190012701B0012201C0011D01F001F9
:101D600018011002130130020E01600209019002F5
:101D70000401C002FF000003FA004003F5008003E5
:101D8000F000D003EB002004E6007004E100E00462
:101D9000DC004005D700C005D2004006CD00D006CB
:101DA000C8008007C3003008BE00F008B900C009B1
:101DB000B400B00AAF00B00BAA00D00CA500000E12
:101DC000A000500F9B00C01096005012910000140C
:101DD0008C00C0158700B0178200B0197D00D01BA1
:101DE0007800001E730040206E0090226900F024ED
:101DF000640040275F0090295A00E02B5500102E08
:101E0000500020304B0010324600E0334100903546
:101E10003C001037370070383200A0392D00B03A3E
:101E20002800A03B2300603C1E00103D1900903D9F
:101E30001400103E0F00703E0A00C03E0500003F37
:101E40000000403FFBFF803FF6FFC03FF1FF01294C
:101E50000229042908291029202940298029012C38
:101E6000022C0126022604260826102620264026BB
:101E70008026402C802C01230223042308231023D6
:101E8000202340238023012002200420082010204A
:101E9000202040208020102C202C012F022F042FE6
:101EA000082F102F202F402F802F7EFE7EFD7EFBDF
:101EB0007EF77EEF7EDF7EBF7E7F000100006B1F1E
:101EC0001200020000281F4300030000241F040129
:101ED0000309040A1F1802030904F21E160303096A
:101EE00004E41E0C0C0331003200330034003500D2
:101EF0000000160355005300420020005300650007
:101F00007200690061006C00000018035400650055
:101F100065006E00730079006400750069006E0052
:101F20006F0000000403090409024300020100C01D
:101F3000320904000001020201000524001001051D
:101F4000240100010424020605240600010705827D
:101F50000308004009040100020A0000000705030D
:101F60000240000007058402400000120100020246
:101F7000000020C01683047202010203010001C1A7
:101F80000201803601813600FA77FCA611241FBEBB
:101F9000CFEFD0E2DEBFCDBF12E0A0E0B1E0EAEECD
:101FA000F4E601E00BBF02C007900D92A431B10727
:101FB000D9F72DE0A4E1B2E001C01D92A235B2072D
:101FC000E1F71FE0C6ECDFE004C02197FE010E94AC
:101FD00065ABC43CD107C9F70E9415A50C9473B238
:101FE0000C9400004F925F926F927F928F929F921B
:101FF000AF92BF92CF92DF92EF92FF92CF934B01BD
:102000005C0169017A0120E030E040EA51E40E947D
:102010000FA72B013C0122E630E140E050EC0E948A
:10202000ECA987FD48C022E430E048E153E4C30155
:10203000B2010E94E9A718160CF43DC022E630E177
:1020400040E050ECC701B6010E94ECA987FD33C007
:1020500022E430E048E153E4C701B6010E94E9A759
:1020600018164CF124EF3DEF4FE851E4C501B401DF
:102070000E94ECA987FD1FC022E430E04EE053E44B
:10208000C501B4010E94E9A71816ACF027EE3BEF9A
:102090004FE151E4C701B6010E94ECA987FD0BC0D6
:1020A000C1E022E430E04EE053E4C701B6010E94F3
:1020B000E9A718160CF4C0E08C2FCF91FF90EF9099
:1020C000DF90CF90BF90AF909F908F907F906F9058
:1020D0005F904F9008950C9479A4CF93DF931F9253
:1020E000CDB7DEB76983DC01ED91FC910280F3810D
:1020F000E02D41E050E0BE016F5F7F4F09950F90EA
:10210000DF91CF910895FF920F931F93CF93DF93A9
:10211000082FF92E162FCAEFD5E0FE016491219603
:10212000611112C0C02FDF2DFE0164912196611153
:102130000FC0C8EFD5E0FE0164912196662361F0DF
:1021400086E49DE0CADFF7CF86E49DE0C6DFE5CFF9
:1021500086E49DE0C2DFE8CF412F50E070E060E010
:1021600086E49DE00E946DA46AE086E49DE0DF9134
:10217000CF911F910F91FF90B0CF0FB6F89480913F
:102180003B0D90913C0DA0913D0DB0913E0D0FBEC9
:102190008093930290939402A0939502B093960239
:1021A00008952F923F924F925F926F927F928F92FB
:1021B0009F92AF92BF92CF92DF92EF92FF920F93D6
:1021C0001F93CF93DF93EB01FC0180809180A2806D
:1021D000B380C501B40120E831E541E050E00E9440
:1021E00027ABC9016DE671E00E9400AB6B017C0179
:1021F000C501B40120E13EE040E050E00E9427AB81
:10220000CA01B90128E130E040E050E00E9427AB6C
:10221000362E272E062F172F8CE3482E512C612C9B
:10222000712CC501B401A30192010E9427ABB62E07
:10223000A72ECA01B901A30192010E9427ABCB01CD
:10224000C114D10469F1AF92BF927F936F932F9223
:102250003F92FF92EF92DF92CF928FE09BE09F93AD
:102260008F93DF93CF930E9491AF8DB79EB70E9659
:102270000FB6F8949EBF0FBE8DBFDF91CF911F9117
:102280000F91FF90EF90DF90CF90BF90AF909F9015
:102290008F907F906F905F904F903F902F90089518
:1022A000E114F104C9F0AF92BF927F936F932F9224
:1022B0003F92FF92EF928FEF9AE09F938F93DF937D
:1022C000CF930E9491AFEDB7FEB73C960FB6F8944E
:1022D000FEBF0FBEEDBFD1CF012BB9F0AF92BF92C1
:1022E0007F936F932F923F9283EF9AE09F938F9308
:1022F000DF93CF930E9491AF8DB79EB70A960FB62A
:10230000F8949EBF0FBE8DBFB8CF892BA9F0AF92B6
:10231000BF927F936F938BEE9AE09F938F93DF939F
:10232000CF930E9491AFEDB7FEB738960FB6F894F1
:10233000FEBF0FBEEDBFA1CFAF92BF9287EE9AE076
:102340009F938F93DF93CF930E9491AF0F900F9045
:102350000F900F900F900F9090CF2FEB280F2A31F6
:1023600008F044C0E22FF0E08091AB049091AC04FF
:10237000A091AD04B091AE0404C0B695A795979511
:1023800087952A95D2F780FD02C081700895EF5697
:10239000FB4FE081EE2339F18091B6049091B704B0
:1023A000E80FF92FF11D808190ED980F9A3030F0F1
:1023B0008E3251F4818180538A30A8F4F093B304B3
:1023C000E093B20481E008958D3211F08B3259F41C
:1023D000818190ED980F9A3088F38E3221F48281BA
:1023E00080538A3058F3F0E0E0E0E8CF80E00895D1
:1023F000B4DF882341F081E02091B2043091B3042E
:10240000232B09F480E008950F931F93CF938091BD
:10241000B2049091B304009709F1FC018F01C191BE
:102420002C2F2F7DA1F0C53411F0C536B9F7F80176
:10243000108270E060E08091B2049091B3040E9439
:1024400087ABF801C083CF911F910F91089570E081
:1024500060E0CF911F910F910C9487AB60E070E02A
:10246000CB01F1CF8091B2049091B304009731F089
:102470004AE050E070E060E00C94DCAC60E070E0BA
:10248000CB0108958091B2049091B304009731F08C
:102490004AE050E070E060E00C9407AE60E070E06D
:1024A000CB010895DFDF97FD0AC0DCDF6F3F7105C8
:1024B0008105910509F02CF4D5DF862F089580E081
:1024C00008958FEF08958091B2049091B304892B01
:1024D00039F0E8DF91E0811101C090E0892F089583
:1024E00091E0FCCF0F931F93CF93DF93CDB7DEB76F
:1024F0002C970FB6F894DEBF0FBECDBFE7E7F4E030
:1025000080859185A285B3854481558166817781D7
:10251000008111812281338109871A872B873C87AB
:102520004D835E836F83788789839A83AB83BC8373
:10253000AE014F5F5F4FBE016B5F7F4FCE010996CB
:102540000E94796723E834E0AE014F5F5F4FBE0120
:102550006B5F7F4FCE0109960E94BA752C960FB61D
:10256000F894DEBF0FBECDBFDF91CF911F910F91C9
:1025700008953F924F925F926F927F928F929F92B7
:10258000AF92BF92CF92DF92EF92FF920F931F9381
:10259000CF93DF93CDB7DEB764970FB6F894DEBF65
:1025A0000FBECDBF2A013B01C02E312ED22EF32EFD
:1025B000082F10E0F801E856F54FE491AA24A394FF
:1025C0001E160CF4A12CBB24B39420E030E0A9012A
:1025D000C301B2010E94ECA918160CF0B12C000F37
:1025E000111F000F111FC80189589B4F4C01FC019E
:1025F000108211821282138275DFF40140825182AF
:1026000062827382E0909B0220E030E0A9016C2D91
:10261000732D8D2D9F2D0E94E9A781110BC0F8010C
:10262000E952F54F85919591A591B491C82E392E17
:10263000DA2EFB2E8C2D932DAD2DBF2D898B9A8BF1
:10264000AB8BBC8B80917F0490918004A09181041E
:10265000B091820440917B0450917C0460917D0490
:1026600070917E0400917704109178042091790490
:1026700030917A040D871E872F87388B49875A87B8
:102680006B877C878D839E83AF83B88719821A827C
:102690001B821C82AE014B5F5F4FBE01675F7F4FA5
:1026A000CE010D960E947967CE0101966C018E01D4
:1026B0000F5E1F4F23E834E0AE014B5F5F4FBE015A
:1026C000675F7F4F0C960E94D7740E94FD68AB1025
:1026D0000E94335A64960FB6F894DEBF0FBECDBF8A
:1026E000DF91CF911F910F91FF90EF90DF90CF90EE
:1026F000BF90AF909F908F907F906F905F904F9022
:102700003F90089563E874E083E00C94E076CF9303
:10271000DF9300D0CDB7DEB72091380D3091390D61
:10272000CE0101962115310559F482559D409A83B9
:10273000898389819A810F900F90DF91CF910895BD
:10274000821B930B9A838983F4CF90915A04E92FCB
:10275000F0E0E658FD4F80839F5F943040F4909303
:102760005A0480915C048F5F80935C0408951092FA
:102770005A04F7CF0F931F93CF93DF93FC0120816F
:102780002B3389F120915C04243068F5EC018091B1
:102790005A04F0E68F9FC0011124BE0186529D4F5E
:1027A0000E9471AF80E0D1DF08E212E1F80164918C
:1027B0000F5F1F4F662321F086E49DE08EDCF6CF8D
:1027C000BE018BE89AE00E94C37D62E286E49DE050
:1027D00084DC6AE086E49DE080DC81E0DF91CF91DB
:1027E0001F910F91089580E0F9CFDF92EF92FF9251
:1027F0000F931F93CF93DF93CDB7DEB76E970FB6CE
:10280000F894DEBF0FBECDBF6091D8027091D9029F
:102810006115710561F14DE150E08E010F5F1F4FB1
:10282000C8010E9427AF1E8EF8017F01E01AF10A4D
:10283000D190DD2019F08AE0D812F7CFF801EE0D23
:10284000FF1D1082C80196DF882389F090E080E0A8
:10285000DD2049F08FEFE81AF80A8091D8029091B4
:10286000D9028E0D9F1D9093D9028093D80281E0EA
:102870002091D8023091D902232B09F480E06E9682
:102880000FB6F894DEBF0FBECDBFDF91CF911F9181
:102890000F91FF90EF90DF900895EF92FF920F93CA
:1028A0001F93CF93DF938C0184E5A2DDD82F88237B
:1028B000B1F1F8DDC82F181674F588E2E82E82E130
:1028C000F82EF7016491FFEFEF1AFF0A662321F05B
:1028D00086E49DE002DCF5CF6DE486E49DE0FDDB5F
:1028E000A80170E060E020E086E49DE00E940BA477
:1028F0006C2FCC0F770B87E799E00E94477D6AE049
:1029000086E49DE0EADB8D2FDF91CF911F910F913F
:10291000FF90EF90089580938E02D0E0F4CF8091E5
:102920009B0280938E02EFCF0F931F93CF93DF9381
:1029300094E0899FE00111248E0106551D4FFE0190
:10294000EA54FD4FDE01AE53BD4F2D913D914D91A7
:102950005C9160817181828193810E9410A7F8014E
:102960006083718382839383FE01E553F54F8591E4
:102970009591A591B491FE01E256FD4F808391831C
:10298000A283B383FE01E154F54F85919591A59102
:10299000B491C55FDE4F88839983AA83BB83DF919F
:1029A000CF911F910F910895CF92DF92EF920F93E5
:1029B0001F93CF93DF93CDB7DEB760970FB6F89430
:1029C000DEBF0FBECDBFE0909B02E7E7F4E080855D
:1029D0009185A285B3854481558166817781008187
:1029E0001181228133810D871E872F87388B49877C
:1029F0005A876B877C878D839E83AF83B8871982C4
:102A00001A821B821C82AE014B5F5F4FBE01675F63
:102A10007F4FCE010D960E947967CE0101966C0121
:102A200009E111E023E834E0AE014B5F5F4FBE01E6
:102A3000675F7F4F0C960E94D77460960FB6F8942C
:102A4000DEBF0FBECDBFDF91CF911F910F91EF90F1
:102A5000DF90CF9008958F929F92AF92BF92CF92C6
:102A6000DF92EF920F931F93CF93DF93CDB7DEB733
:102A700060970FB6F894DEBF0FBECDBF8C01E0901B
:102A80009B02E7E6F4E080859185A285B3854481C9
:102A900055816681778180809180A280B3808D8608
:102AA0009E86AF86B88A49875A876B877C878D83D5
:102AB0009E83AF83B88719821A821B821C82AE0163
:102AC0004B5F5F4FBE01675F7F4FCE010D960E9447
:102AD0007967CE0101966C0123E734E0AE014B5FCC
:102AE0005F4FBE01675F7F4F0C960E94D774609660
:102AF0000FB6F894DEBF0FBECDBFDF91CF911F910F
:102B00000F91EF90DF90CF90BF90AF909F908F90FC
:102B100008952F923F924F925F926F927F928F9281
:102B20009F92AF92BF92CF92DF92EF92FF920F935C
:102B30001F93CF93DF93CDB7DEB72A970FB6F894E4
:102B4000DEBF0FBECDBF2B013C012D833E834F83E3
:102B5000588747015801DA86C986809119019091FA
:102B60001A01A0911B01B0911C0189839A83AB8348
:102B7000BC83D6011C9111960C91119712963C9032
:102B8000129713962C9020E030E0A901612F702F4E
:102B9000832D922D0E94E9A781110AC0EFEDFAE082
:102BA00085919591A591B491182F092F3A2E2B2E2E
:102BB000A501940160917F0470918004809181044B
:102BC000909182040E94E9A787FF15C0812F902F62
:102BD000A32DB22D8093190190931A01A0931B018C
:102BE000B0931C0180927F0490928004A092810493
:102BF000B0928204D9DEE985FA85C080D180E28076
:102C0000F38020E030E0A901C701B6010E94E9A7E6
:102C1000811108C0C0900101D0900201E090030131
:102C2000F0900401C0921901D0921A01E0921B01A8
:102C3000F0921C01409277045092780460927904DB
:102C400070927A048D819E81AF81B88580937B04D8
:102C500090937C04A0937D04B0937E04A5DEA5012F
:102C6000940160917F04709180048091810490911F
:102C700082040E94ECA91816ACF4812F902FA32D8A
:102C8000B22D8093190190931A01A0931B01B09368
:102C90001C0180927F0490928004A0928104B092E3
:102CA000820482DE0E94FD6889819A81AB81BC81A9
:102CB0008093190190931A01A0931B01B0931C01FA
:102CC0002A960FB6F894DEBF0FBECDBFDF91CF912D
:102CD0001F910F91FF90EF90DF90CF90BF90AF903A
:102CE0009F908F907F906F905F904F903F902F902C
:102CF0000895CF92DF92EF92FF920F931F936B0193
:102D0000FC01E080F18002811381E7E7F4E0248197
:102D10003581468157816081718182819381F9DE9D
:102D20001F910F91FF90EF90DF90CF9008958091C9
:102D3000190190911A01A0911B01B0911C0180937F
:102D4000D4029093D502A093D602B093D70280917B
:102D50001701909118019093D3028093D20284E6D8
:102D600090E0909318018093170108958091D40208
:102D70009091D502A091D602B091D702809319010B
:102D800090931A01A0931B01B0931C018091D20271
:102D90009091D30290931801809317010895EF92B8
:102DA000FF920F931F93CF93DF93109166041095BA
:102DB0001170811101C010E0D0E0662331F0D09194
:102DC0006604D695D17081E0D827C0E0442339F05D
:102DD000C0916604C2FBCC27C0F981E0C82711234B
:102DE000D1F098E2E92E92E1F92EF7016491FFEF1C
:102DF000EF1AFF0A61111BC08CE4E82E89E0F82E5F
:102E0000F7016491FFEFEF1AFF0A6623A1F086E451
:102E10009DE063D9F5CFD111E4CFC111E2CF8C2F62
:102E2000DF91CF911F910F91FF90EF90089586E46D
:102E30009DE053D9DACF112361F00AE419E0F801DB
:102E400064910F5F1F4F662321F086E49DE045D912
:102E5000F6CFDD2361F008E419E0F80164910F5F1B
:102E60001F4F662321F086E49DE037D9F6CFCC23AF
:102E700059F0C6E4D9E0FE0164912196662321F061
:102E800086E49DE02AD9F7CFCEE3D9E0FE01649134
:102E90002196662321F086E49DE01FD9F7CFC1E09B
:102EA000BECFBF92CF92DF92EF92FF920F931F930C
:102EB000CF93DF93CDB7DEB728970FB6F894DEBF78
:102EC0000FBECDBF90918B04981709F47AC0B82E2D
:102ED000882309F453C080E090E0A0E8B0E48D833B
:102EE0009E83AF83B887C0908A02D0908B02E09017
:102EF0008C02F0908D0220E030E0A901C701B601FC
:102F00000E94E9A787FF0CC0A701960160E070E06E
:102F100080E890E40E940FA76D837E838F8398875B
:102F200020E030E048E153E46D817E818F81988517
:102F30000E94ECA9181644F480E090E0A8E1B3E404
:102F40008D839E83AF83B8872D813E814F815885C5
:102F500060917F047091800480918104909182043B
:102F60000E94E9A787FF0AC019821A821B821C826D
:102F7000BE016F5F7F4FCE010596BBDE6091770487
:102F8000709178048091790490917A0420917B0467
:102F900030917C0440917D0450917E0419821A8204
:102FA0001B821C82E0907F04F090800400918104D9
:102FB00010918204FE0131966F01ABDD8B2D0E94D2
:102FC0003E5A80E028960FB6F894DEBF0FBECDBF04
:102FD000DF91CF911F910F91FF90EF90DF90CF90F5
:102FE000BF9008954F925F926F927F928F929F92BF
:102FF000AF92BF92CF92DF92EF92FF920F931F9307
:10300000CF93C82FE82EF12CF701E856F54FB49076
:10301000823009F472C06701CC0CDD1CCC0CDD1CC5
:10302000F601E955F54F45905590659074906B2DDC
:10303000BB0C770B880B990B0E948BA84B015C0192
:1030400020E030E040EC5FE3C301B2010E9427AA18
:10305000A50194010E9427AAAB01BC0100E010E089
:1030600098018C2F86DAC23009F05CC0E0E070E095
:1030700060E480E42E2F372F462F582FC501B4016E
:103080000E9427AA4B015C0120E030E0A9010E94C8
:10309000E9A7882309F478C000E010E020E830E4D4
:1030A000C23019F000E010E09801B501A401705899
:1030B0008C2F5FDA412C512C612C80E4782EC230A9
:1030C00009F456C0F701EC58F64F649161113CC009
:1030D00008E212E1F80164910F5F1F4F61112EC0E9
:1030E00002E519E0F80164910F5F1F4F662359F163
:1030F00086E49DE00E946D10F5CF81E0D2DE88234A
:1031000009F489CFCF911F910F91FF90EF90DF903D
:10311000CF90BF90AF909F908F907F906F905F9077
:103120004F900895F601E556F54F85919591A5913B
:10313000B491E82F792F6A2F8B2F9CCF86E49DE0E6
:103140000E946D10C7CF6AE0F601E952F54F459035
:1031500055906590749070E090E080E00E948BA89C
:103160009B01AC01C301B2010E94F0A72B013C01FD
:10317000A5019401C501B4010E9410A7AB01BC01D7
:10318000930182018C2FF5D981E090E00C2E01C0D3
:10319000880F0A94EAF790916504982B9093650440
:1031A00090916604892B80936604F601EE53FD4FDF
:1031B00010821182128213828C2FB6DBF601ED543D
:1031C000F54F85919591A591B491F601E958FB4F82
:1031D00080839183A283B383C230D1F420918A0289
:1031E00030918B0240918C0250918D0260917F044E
:1031F0007091800480918104909182040E940FA7B5
:1032000060937F0470938004809381049093820480
:1032100069D9D601A959BB4FF601E958FB4F408146
:103220005181628173814D935D936D937C9313976C
:10323000C23009F067CF80E0CF911F910F91FF90CE
:10324000EF90DF90CF90BF90AF909F908F907F9046
:103250006F905F904F9025CECF92DF92EF92FF92CA
:103260000F931F93CF93DF9335EFC32E31E0D32E0F
:1032700047E6E42E44E0F42E07E714E0D0E0C0E097
:10328000F60181916F0169D8882309F454C0BCD834
:10329000FE01E253FD4F2081211104C020919A02CA
:1032A0002223C9F1F80120813181428153810E949A
:1032B00010A7F70160837183828393832196F4E0E2
:1032C000EF0EF11C0C5F1F4FC430D105C9F686E428
:1032D0008FD88823B9F098D820E030E0A9010E9467
:1032E000ECA918167CF490D820E030E040E752E4D6
:1032F0000E94F0A76093190170931A0180931B013B
:1033000090931C01DF91CF911F910F91FF90EF904F
:10331000DF90CF900895C33061F2FE01EE0FFF1FE2
:10332000EE0FFF1FE655FD4F208131814281538111
:103330000E940FA7BECFF80180819181A281B38145
:10334000F70180839183A283B383B8CFCF92DF92BA
:10335000EF92FF920F931F93CF93DF930FB6F894E2
:10336000C0903B0DD0903C0DE0903D0DF0903E0D97
:103370000FBE80919902811122C0809100018823A3
:10338000F1F0809179028823D1F04091750250913B
:103390007602609177027091780297018601041B92
:1033A000150B260B370BB901A80177FD1BC0833025
:1033B000B9F10CF5C8E2D2E181300CF049C020919E
:1033C000000130E0A8EEB3E00E946EABC60ED71E3F
:1033D000E81EF91EC0927502D0927602E092770242
:1033E000F0927802DF91CF911F910F91FF90EF90B3
:1033F000DF90CF900895C8E2D2E1843001F7FE015A
:103400006491219661113BC0CBEDD8E0FE0164913F
:1034100021966623A1F286E49DE00E946D10F6CF0E
:10342000C8E2D2E1FE0164912196611123C0C3EF8D
:10343000D8E0FE0164912196662309F4C0CF86E4AA
:103440009DE00E946D10F5CF86E49DE00E946D1016
:10345000FE01649121966111F7CFCAE0D9E0FE0127
:1034600064912196662309F4AACF86E49DE00E9428
:103470006D10F5CF86E49DE00E946D10D3CF86E4F9
:103480009DE00E946D10BBCF0F931F93CF93DF93EE
:10349000CDB7DEB769970FB6F894DEBF0FBECDBFCC
:1034A0000E94A58B6E8B7F8B888F998FBE016F5F7B
:1034B0007F4FCE0146960E94D11008E212E1F8013A
:1034C00064910F5F1F4F662329F086E49DE00E9400
:1034D0006D10F5CFBE016F5F7F4F80EA96E00E94CE
:1034E000C37D6AE086E49DE00E946D1069960FB688
:1034F000F894DEBF0FBECDBFDF91CF911F910F912A
:103500000895CF93DF93CEE2D2E1FE01649121963C
:1035100061110CC0C4E6D6E0FE01649121966623D9
:1035200051F086E49DE00E946D10F6CF86E49DE0A8
:103530000E946D10EACFDF91CF9108950F931F93F2
:10354000CF9383E50E94F8118823D1F10E94521293
:10355000082F80E50E94F811882391F10E945212F1
:10356000C82F87FD2DC089E40E94F811882381F0BF
:103570000E946312811111C0E3E7F6E080EA96E051
:103580002491C21709F131968E179F07C9F705C01C
:1035900089E40E94AD11882379F38C2F0E94D29E7A
:1035A000EC2FF0E0002E0E94919F10E0B8018C2FCC
:1035B0000E94E39EC03121F410939D0200939C026F
:1035C000CF911F910F910895CF911F910F9199CF96
:1035D000CF93DF9388E690E060D981112DC0809170
:1035E000870483FD29C083E50E94F811882301F137
:1035F0000E940412C0914401D09145012F970E946E
:1036000058A86C177D070CF4EB01D093300DC093D4
:103610002F0D80E00E944B8F0E94041220E030E0CA
:103620004AEA52E40E94E9A7181614F00E944E8B51
:10363000DF91CF910C94CA77DF91CF910895CF920B
:10364000DF92EF92FF9283E50E94F811882321F127
:103650000E9452128D3308F08CE38093BE0C0FB69B
:10366000F894C0903B0DD0903C0DE0903D0DF09053
:103670003E0D0FBE282F30E0A8EEB3E00E946EABE7
:10368000C60ED71EE81EF91EC092BA0CD092BB0C13
:10369000E092BC0CF092BD0CFF90EF90DF90CF90C9
:1036A000089580E50E94F811811111C083E50E9400
:1036B000F811882329F00E9432126F3F710510F033
:1036C0006FEF70E070939D0260939C0208950E94DA
:1036D0005212882359F30895FF920F931F93CF93AB
:1036E000DF9383E50E94AD11882349F083E50E94B2
:1036F000F8118823B9F00E94521280938704C8E21F
:10370000D2E1FE016491219661110EC0C9E1D6E0BB
:10371000FE0164912196662361F086E49DE00E949B
:103720006D10F6CF80E0E9CF86E49DE00E946D1039
:10373000E8CF80918704C5E1D6E0882309F438C03A
:10374000D0E0C0E08091870490E00C2E02C09595F7
:1037500087950A94E2F780FF1DC0FF24F394F60ECC
:10376000662329F06CE286E49DE00E946D10FE0164
:10377000EE0FFF1FE05EF94F05911491F80164917F
:103780000F5F1F4F662329F086E49DE00E946D10B5
:10379000F5CF6F2D2196C530D105A1F66AE086E4FC
:1037A0009DE0DF91CF911F910F91FF900C946D10D0
:1037B000FE0164912196662389F386E49DE00E94D0
:1037C0006D10F6CFCF93DF9383E50E94F81181113E
:1037D0001CC0C8E2D2E1FE0164912196662329F063
:1037E00086E49DE00E946D10F6CF4091000150E00C
:1037F00070E060E08EE096E00E94A37D6AE086E4DF
:103800009DE0DF91CF910C946D100E9452128D3388
:1038100028F480930001DF91CF9108958CE3F9CFD4
:103820004F925F926F927F92AF92BF92CF92DF9250
:10383000EF92FF920F931F93CF9385EFA82E81E015
:10384000B82E00E615E0C0E0F50181915F010E940D
:10385000AD11882309F465C0C33009F077C00E9418
:1038600004126B017C0120E030E040EA51E40E9448
:10387000E9A787FF4EC0A701960160916C05709182
:103880006D0580916E0590916F050E94F0A72B0148
:103890003C01AC019B016091380570913905809124
:1038A0003A0590913B050E9427AA609338057093D2
:1038B000390580933A0590933B05A30192016091ED
:1038C0007C0570917D0580917E0590917F050E9419
:1038D00027AA60937C0570937D0580937E05909365
:1038E0007F0560919005709191058091920590916E
:1038F00093050E9489A8A30192010E9427AA0E9411
:103900005DA86093900570939105809392059093C4
:103910009305C0926C05D0926D05E0926E05F09211
:103920006F05CF5F0C5F1F4FC43009F08DCFCF9173
:103930001F910F91FF90EF90DF90CF90BF90AF90CD
:103940007F906F905F904F900C94A6770E94041226
:10395000F8016083718382839383E3CF0F931F9376
:10396000CF93DF93C7E7D4E00AEA12E0F8012081A1
:10397000318142815381688179818A819B810E9452
:1039800010A7AB01BC018BE096E00E94837DF8019B
:1039900024813581468157816C817D818E819F8113
:1039A0000E9410A7AB01BC0187E096E00E94837DD6
:1039B000F8012085318542855385688579858A851A
:1039C0009B850E9410A7AB01BC0183E096E00E949A
:1039D000837D4C855D856E857F858FEF95E00E94A8
:1039E000837DDF91CF911F910F910C94B08A4F92FC
:1039F0005F926F927F929F92AF92BF92CF92DF922F
:103A0000EF92FF920F931F93CF93DF9385EFA82E32
:103A100081E0B82E10E000E0C0E0D0E0F501819137
:103A20005F010E94F811982E8823D9F10E94041298
:103A30006B017C01C33059F0F801E655FD4F208140
:103A40003181428153810E940FA76B017C01F801F3
:103A5000E958FB4F2081318142815381C701B60172
:103A60000E940FA72B013C012DEB37E346E855EBF5
:103A70000E94ECA987FD0AC02DEB37E346E855E329
:103A8000C301B2010E94E9A718165CF4C33011F516
:103A9000C0928304D0928404E0928504F09286045C
:103AA000D92DCF5F0C5F1F4FC43009F0B7CFD111B4
:103AB0000E948213DF91CF911F910F91FF90EF90A1
:103AC000DF90CF90BF90AF909F907F906F905F906E
:103AD0004F9044CFC8018E539D4F7C01A3019201AA
:103AE000FC0160817181828193810E9410A7F7019E
:103AF00060837183828393838C2F0E949414D1CF2F
:103B0000CF93DF93C0E2D5E0FE0164912196662356
:103B100029F086E49DE00E946D10F6CF60E080E120
:103B200095E00E94831061E089E095E00E94831097
:103B300061E08EEF94E00E94831061E08EEE94E0ED
:103B40000E94831060E085EE94E00E94831061E0A3
:103B50008BED94E00E94831061E081ED94E00E947F
:103B6000831061E089EC94E00E94831061E08BEBAC
:103B700094E00E94831060E08DEA94E00E9483103C
:103B800060E08EE994E00E94831060E080E994E0B8
:103B90000E94831060E08AE794E00E94831060E056
:103BA00089E694E00E94831060E084E594E00E943E
:103BB000831061E081E494E0DF91CF910C94831055
:103BC000CF92DF92EF92FF92CF9388EC90E00E9429
:103BD0004D14811148C084E40E94AD11882379F10D
:103BE0000E9404126B017C01C1E020E030E0A901D9
:103BF0000E94E9A7811101C0C0E0C093B80420E091
:103C000030E0A901C701B6010E94E9A78823B9F0F5
:103C10000E9404126B017C0120E030E0A9010E94A7
:103C2000E9A7882399F0E0918E0284E0E89FF001F3
:103C30001124E85DFA4FC082D182E282F382CF91F3
:103C4000FF90EF90DF90CF900C94126780E090E0AF
:103C5000A0EEBFE38093280590932905A0932A0541
:103C6000B0932B05ECCFCF91FF90EF90DF90CF90EA
:103C70000895CF9383E50E94F811C1E0882399F05D
:103C80000E940412609348057093490580934A0589
:103C900090934B05609340057093410580934205D6
:103CA00090934305C0E080E50E94F811882359F005
:103CB0000E940412609348057093490580934A0559
:103CC00090934B05C0E082E50E94F811882359F0DB
:103CD0000E94041260934405709345058093460545
:103CE00090934705C0E084E50E94F811882361F0B5
:103CF0000E94041260934005709341058093420531
:103D000090934305CF910895CC23E1F3409148056A
:103D10005091490560914A0570914B058DE294E000
:103D20000E94837D40914405509145056091460570
:103D3000709147058AE294E00E94837D409140059E
:103D400050914105609142057091430587E294E0EE
:103D50000E94837D6AE086E49DE0CF910C946D1013
:103D600081E50E94AD11882351F00E9442126093B8
:103D7000800570938105809382059093830583E588
:103D80000E94AD11882351F00E94041260934C05EB
:103D900070934D0580934E0590934F0584E50E94E6
:103DA000AD11882351F00E94041260933C0570937A
:103DB0003D0580933E0590933F0588E50E94AD1137
:103DC000882351F00E94041260932C0570932D05F6
:103DD00080932E0590932F0589E50E94AD118823CD
:103DE00051F00E9404126093300570933105809366
:103DF0003205909333058AE50E94AD11882351F076
:103E00000E94041260933405709335058093360543
:103E10009093370585E40E94AD11882351F00E94EC
:103E20000412609338057093390580933A05909396
:103E30003B050895CF93DF93C8E2D2E1FE01649180
:103E40002196662329F086E49DE00E946D10F6CF4E
:103E500083E50E94AD11882321F00E9463128093B4
:103E60000A01C7E1D4E0FE0164912196662329F09E
:103E700086E49DE00E946D10F6CF80910A01CFE0AC
:103E8000D4E0882311F0C3E1D4E0FE0164912196CF
:103E900061110CC0C7E0D4E0FE0164912196662355
:103EA00051F086E49DE00E946D10F6CF86E49DE01F
:103EB0000E946D10EACF2091AA023091AB0240918E
:103EC000AC025091AD0260919E0270919F02809170
:103ED000A0029091A1020E9410A7AB01BC0185E055
:103EE00094E00E94837D2091AE023091AF02409118
:103EF000B0025091B1026091A2027091A302809130
:103F0000A4029091A5020E9410A7AB01BC0182E01F
:103F100094E00E94837D2091B2023091B3024091DF
:103F2000B4025091B5026091A6027091A7028091EF
:103F3000A8029091A9020E9410A7AB01BC018FEFCB
:103F400093E00E94837DC7EFD3E0FE016491219648
:103F5000662329F086E49DE00E946D10F6CF209143
:103F6000AA023091AB024091AC025091AD02609137
:103F70000B0170910C0180910D0190910E010E9436
:103F800010A7AB01BC0185EF93E00E94837D2091D7
:103F9000AE023091AF024091B0025091B1026091F7
:103FA0000F017091100180911101909112010E94F6
:103FB00010A7AB01BC0182EF93E00E94837D2091AA
:103FC000B2023091B3024091B4025091B5026091B7
:103FD00013017091140180911501909116010E94B6
:103FE00010A7AB01BC018FEE93E00E94837D6AE0D5
:103FF00086E49DE0DF91CF910C946D100F931F9399
:10400000CF93DF938DED90E00E944D14811134C069
:1040100083E50E94F811C8E2D2E1882391F1C091B2
:104020008E02D0E00E943212CC0FDD1FC25DDE4F47
:1040300079836883C0918E0224E0C29FE00111243D
:104040008E01065D1E4F072E000C880B990B0E94F7
:104050008BA82AE037ED43E25CE30E9427AACC5DFF
:10406000DA4F288139814A815B810E9427AAF801B1
:104070006083718382839383DF91CF911F910F912E
:104080000895FE0164912196662329F086E49DE05F
:104090000E946D10F6CF65E486E49DE00E946D10ED
:1040A00060918E02605D86E49DE00E946D10E0915B
:1040B0008E02F0E0EE0FFF1FE25DFE4F6081718126
:1040C00087EE93E00E94477D65E286E49DE00E94D2
:1040D0006D106AE086E49DE0DF91CF911F910F9112
:1040E0000C946D10CF93DF938AE50E94F81188231A
:1040F00089F10E94041220E030E040E050EC0E9480
:10410000E9A787FD2FC00E94041220E030E040E0C4
:1041100050E40E94ECA9181654F10E940412209158
:10412000650422FF1CC0C0910A0DD0910B0D209197
:1041300068053091690540916A0550916B050E94B0
:1041400027AA0E9458A86C0F7D1F70930B0D6093D7
:104150000A0D05C083E50E94F8118111CACFDF91D5
:10416000CF91089560E070E080E090ECD8CF60E0FF
:1041700070E080E090E4D3CFCF93DF9385E40E949A
:10418000F8118823E9F00E9452128823C9F0CEE288
:10419000D2E1FE016491219661110DC0C9ECD3E01A
:1041A000FE0164912196662309F48AC086E49DE0AD
:1041B0000E946D10F5CF86E49DE00E946D10E9CF5E
:1041C00080E50E94AD11882351F00E940412609393
:1041D000140D7093150D8093160D9093170D89E4AF
:1041E0000E94AD11882381F00E9404122CEA35EC64
:1041F00047E25EE30E9427AA6093100D7093110DB1
:104200008093120D9093130D84E40E94AD118823C6
:1042100081F00E9404122CEA35EC47E25EE30E9432
:10422000F0A760930C0D70930D0D80930E0D90937D
:104230000F0DC8E2D2E1FE0164912196662329F0B8
:1042400086E49DE00E946D10F6CF4091140D5091D0
:10425000150D6091160D7091170D83EE93E00E947D
:10426000837D2CEA35EC47E25EE36091100D70919E
:10427000110D8091120D9091130D0E94F0A7AB01CA
:10428000BC018FED93E00E94837D2CEA35EC47E280
:104290005EE360910C0D70910D0D80910E0D90916B
:1042A0000F0D0E9427AAAB01BC018BED93E00E9489
:1042B000837D6AE086E49DE0DF91CF910C946D10E0
:1042C000DF91CF910895CF93DF9383E50E94AD11E5
:1042D000C82F882371F00E9404120E9458A870937E
:1042E00049016093480121E0672B09F020E0209309
:1042F000FF0C80E50E94AD11882369F020914801F0
:1043000030914901232B11F00E9463128093FF0C1E
:10431000DF91CF910895C111FBCFC8E2D2E1FE0138
:1043200064912196662329F086E49DE00E946D1039
:10433000F6CF8091FF0C6AED71E0882311F067EDF4
:1043400071E086EB93E00E94C37D6091480170911B
:10435000490185EA93E00E94477DC1EAD3E0FE016E
:10436000649121966623A1F286E49DE00E946D107F
:10437000F6CF8F929F92AF92BF92EF92FF920F93E0
:104380001F93CF93DF9300D000D0CDB7DEB785E485
:104390000E94F81110E000E0882319F00E94321208
:1043A0008B0183E40E94F81125E0F22E882319F096
:1043B0000E943212F62E85E50E94F811882309F436
:1043C00043C00E946312E82E812C912C96E1A92E05
:1043D00093E4B92E17FF06C0812C912C8CE8A82EEF
:1043E00082E4B82E83E50E94F811882321F00E9410
:1043F00004124B015C01C501B4010E9458A80115CB
:10440000110511F410928E02072E000C880B990BE7
:104410000E948BA869837A838B839C832E2D4F2DDA
:10442000602FCE0101960E9443950F900F900F9040
:104430000F90DF91CF911F910F91FF90EF90BF9060
:10444000AF909F908F90089585E50E94AD11E82E62
:10445000BBCF2F923F924F925F926F927F928F923B
:104460009F92AF92BF92CF92DF92EF92FF920F9303
:104470001F93CF93DF93CDB7DEB72E970FB6F89487
:10448000DEBF0FBECDBF41E061E081E00E94CF16EC
:104490008111B5C093EBC92E9AE0D92E87E794E03D
:1044A0009E878D87FE0131961F017F0110E000E09D
:1044B000F6016591759185919491ED85FE858190C8
:1044C0009190A190B190FE87ED87A50194010E9483
:1044D0000FA72B013C01F701408251826282738257
:1044E00020E030E040EA51EC0E94ECA987FD0AC0D0
:1044F00020E030E040EA51E4C301B2010E94E9A7A4
:1045000018167CF4F801E856F54FE4911E164CF4A9
:10451000B7FAB094B7F8B094F70180829182A28282
:10452000B382F70181909190A190B1907F0120E03A
:1045300030E040EA51ECC501B4010E94ECA987FFCC
:1045400016C00EE212E1F80164910F5F1F4F611176
:1045500051C009E313E0F80164910F5F1F4F662318
:1045600009F44DC086E49DE00E946D10F4CF20E078
:1045700030E040EA51E4C501B4010E94E9A71816F1
:1045800004F30F5F1F4FF4E0CF0ED11C0330110571
:1045900009F08ECF86EBE82E82E0F82E10E0F101D4
:1045A00081919191A191B1911F01F7018193919313
:1045B000A193B1937F01812F0E9494141F5F133048
:1045C00071F72E960FB6F894DEBF0FBECDBFDF9108
:1045D000CF911F910F91FF90EF90DF90CF90BF9000
:1045E000AF909F908F907F906F905F904F903F9093
:1045F0002F90B4C986E49DE00E946D10A4CF2E9642
:104600000FB6F894DEBF0FBECDBFDF91CF911F91E3
:104610000F91FF90EF90DF90CF90BF90AF909F9061
:104620008F907F906F905F904F903F902F90089564
:10463000CF93DF930E94DA598823C1F0C8E2D2E118
:10464000FE016491219661110CC0CEE2D3E0FE011F
:1046500064912196662351F086E49DE00E946D10DE
:10466000F6CF86E49DE00E946D10EACFDF91CF91F6
:104670000895CF92DF92EF92FF92CF93DF938AE576
:104680000E94F811C8E2D2E1882309F441C00E94D7
:1046900004126B017C0120E030E040E050EC0E940D
:1046A000ECA987FF13C0CEE2D2E1FE01649121960E
:1046B000611125C0C2E1D3E0FE0164912196662319
:1046C000B9F086E49DE00E946D10F6CF20E030E066
:1046D00040EA51E4C701B6010E94E9A718161CF38D
:1046E000C0928A02D0928B02E0928C02F0928D02EC
:1046F000DF91CF91FF90EF90DF90CF90089586E407
:104700009DE00E946D10D1CF86E49DE00E946D1067
:10471000FE01649121966111F7CFC3E0D3E0FE0161
:1047200064912196662329F086E49DE00E946D1035
:10473000F6CF40918A0250918B0260918C02709169
:104740008D0280E093E00E94837D6AE086E49DE034
:10475000DF91CF91FF90EF90DF90CF900C946D1090
:10476000CF92DF92EF92FF92CF93DF938BE40E9480
:10477000F811C8E2D2E18823D1F18BE40E94F8114C
:10478000C12CD12C7601882309F10E9404126B01FF
:104790007C0120E030E0A9010E94ECA987FF0CC059
:1047A000C1EED2E0FE01649121966623C9F086E451
:1047B0009DE00E946D10F6CF20E030E040E251E431
:1047C000C701B6010E94E9A7181654F30E94FD68BC
:1047D000C092D104D092D204E092D304F092D404D7
:1047E000DF91CF91FF90EF90DF90CF900895FE0181
:1047F00064912196662329F086E49DE00E946D1065
:10480000F6CF4091D1045091D2046091D3047091BD
:10481000D40486ED92E00E94837D6AE086E49DE008
:10482000DF91CF91FF90EF90DF90CF900C946D10BF
:104830000F931F93CF93DF93C82F08E212E1F80183
:1048400064910F5F1F4F662329F086E49DE00E946C
:104850006D10F5CF64E586E49DE00E946D104C2F4D
:1048600050E070E060E020E086E49DE00E940BA450
:1048700060E286E49DE00E946D10C5EBD2E0FE018F
:1048800064912196662329F086E49DE00E946D10D4
:10489000F6CFDF91CF911F910F910895CF93DF93C2
:1048A000E0915B04F0E0E658FD4F8081882399F0A9
:1048B000C7E9D2E0FE0164912196662329F086E4DF
:1048C0009DE00E946D10F6CF6AE086E49DE0DF91E6
:1048D000CF910C946D10DF91CF910895CF92DF921C
:1048E000EF92FF92CF93DF9320910A01222309F4E4
:1048F00085C0EC01C0909E02D0909F02E090A00283
:10490000F090A102A7019601688179818A819B813B
:104910000E94E9A787FF04C0C882D982EA82FB828D
:10492000C090A202D090A302E090A402F090A50251
:10493000A70196016C817D818E819F810E94E9A7EC
:1049400087FF04C0CC82DD82EE82FF82C0900B0123
:10495000D0900C01E0900D01F0900E01A70196019E
:10496000688179818A819B810E94ECA9181624F4C0
:10497000C882D982EA82FB82C0900F01D0901001D8
:10498000E0901101F0901201A70196016C817D81E8
:104990008E819F810E94ECA9181624F4CC82DD82BE
:1049A000EE82FF82C090A602D090A702E090A802FB
:1049B000F090A902A7019601688579858A859B8573
:1049C0000E94E9A787FF04C0C886D986EA86FB86CD
:1049D000C0901301D0901401E0901501F0901601E1
:1049E000A7019601688579858A859B850E94ECA937
:1049F000181624F4C886D986EA86FB86DF91CF9103
:104A0000FF90EF90DF90CF900895CF93DF9380E0F9
:104A10000E94E768CEE7D2E0688379838A839B832C
:104A200081E00E94E7686C837D838E839F8382E0B0
:104A30000E94E768688779878A879B87DF91CF9193
:104A40000895CF93DF93E1DF6BE586E49DE00E945C
:104A50006D10CEE7D2E0488159816A817B8122E0E6
:104A600030E086E49DE00E946B104C815D816E8198
:104A70007F8180EB96E00E94837D488559856A8519
:104A80007B858DEA96E00E94837D6DE586E49DE05E
:104A90000E946D106AE086E49DE0DF91CF910C9456
:104AA0006D10CF93DF93C82FB0DF8EE792E00E94A6
:104AB000FF67CE3F61F48CE0EEE7F2E0A7E7B4E0F9
:104AC00001900D928A95E1F7DF91CF91089524E04E
:104AD000C29FC0011124FC01E958FB4F82589D4F31
:104AE000EC0188819981AA81BB8180839183A28313
:104AF000B383EACFCF9390912305981789F0C82FFD
:104B00000E94FD68C0932305C11105C08EEFC9DF67
:104B1000CF910C94721287E794E00E94FF67F8CF60
:104B2000CF91089580E0E6DF8FEF94E00C94649CD1
:104B30008F929F92AF92BF92DF92EF92FF920F936C
:104B40001F93CF93DF9300D000D0CDB7DEB7182FDF
:104B5000809165048770873011F10E94FD68D090C4
:104B6000230580E0C7DF0E94971681E00E942B5A40
:104B7000111166C088E50E94AD11F82E89E50E94EA
:104B8000AD11082F8AE50E94AD11E82EF11027C063
:104B9000011103C0882309F45AC010E024C08FE437
:104BA0000E94F8118823A1F00E9463128823A9F2C1
:104BB0000F900F900F900F90DF91CF911F910F9159
:104BC000FF90EF90DF90BF90AF909F908F900895EF
:104BD0008FE40E94AD11882309F4BFCFE9CF0023F1
:104BE000E1F2F02E182F80E1E7E7F4E0A7E6B4E069
:104BF00001900D928A95E1F782E50E94F8118823D1
:104C000049F10E9404124B015C0120E030E0A9014F
:104C10000E94E9A7882309F444C0111121C0F110B2
:104C20001FC001111DC0E1104EC00E9472120E94EF
:104C30002E5A8D2D5FDF0E94B6160E94AE1CB8CF93
:104C400001E0FF24F394EE24E39411E0CCCFF02EA6
:104C500011E0C9CF812C912C80E4A82EBA2CDDCF95
:104C600080926F0490927004A0927104B0927204CA
:104C7000A501940160917F0470918004809181046A
:104C8000909182040E94E9A787FF0BC019821A82C3
:104C90001B821C82BE016F5F7F4F8FE694E00E94F3
:104CA0007916111102C0FF2029F080E00E94F2174E
:104CB000111103C0002309F4B6CF81E00E94F2175E
:104CC000112309F4B0CF82E00E94F217AECFCF9348
:104CD000DF93C82F0E94FD68D091230580E00ADF92
:104CE000CC2321F08C2FDF91CF91A2CD10929B028B
:104CF0008D2F00DFC8E2D2E1FE0164912196662388
:104D000029F086E49DE00E946D10F6CF60919B0231
:104D100070E083EA92E00E94477D6AE086E49DE0CD
:104D2000DF91CF910C946D100F931F93CF93DF936E
:104D3000CDB7DEB72C970FB6F894DEBF0FBECDBF50
:104D400083E50E94AD1110912305882339F00E945C
:104D50006312182F811102C080E0CCDE80917704AD
:104D600090917804A0917904B0917A0489839A8310
:104D7000AB83BC8380917B0490917C04A0917D04E3
:104D8000B0917E048D839E83AF83B88780917F042A
:104D900090918004A0918104B091820489879A87C0
:104DA000AB87BC8786E50E94AD11882331F064E8AB
:104DB00073E08FEF94E00E942D9E812F9BDE1111F6
:104DC0000DC008E212E1F80164910F5F1F4F6623E6
:104DD00019F186E49DE00E946D10F5CF80912305C6
:104DE0008111EFCF0EE212E1F80164910F5F1F4FC6
:104DF00061110DC005E613E0F80164910F5F1F4FCC
:104E00006623F9F286E49DE00E946D10F5CF86E4FA
:104E10009DE00E946D10E8CF8091230562EE71E065
:104E2000882311F06EED71E087E593E00E94C37D69
:104E30006AE086E49DE00E946D104CE050E067E778
:104E400074E0CE0101960E9450AF892B61F02C9640
:104E50000FB6F894DEBF0FBECDBFDF91CF911F918B
:104E60000F910C94AE1C2C960FB6F894DEBF0FBEBB
:104E7000CDBFDF91CF911F910F9108950E94976848
:104E80000E94FD688EEF0DDE0C9472122F923F92FD
:104E90004F925F926F927F928F929F92AF92BF924A
:104EA000CF92DF92EF92FF920F931F93CF93DF93F6
:104EB000CDB7DEB7A0970FB6F894DEBF0FBECDBF5B
:104EC0001C017F8F6E8F498F28A3DC018D909D90F0
:104ED000AD90BC90FB0140805180628073800023C4
:104EE00009F4D1C0A3019201C501B4010E94F20FDF
:104EF000882309F4F1C020E030E040EA51E4C50124
:104F0000B4010E940FA74B015C01E0907F04F09078
:104F10008004009181041091820480911901909184
:104F20001A01A0911B01B0911C018A8F9B8FAC8F3D
:104F3000BD8F8091010190910201A0910301B09178
:104F400004018093190190931A01A0931B01B0935F
:104F50001C0119821A821B821C82DE0111966D01CE
:104F6000A3019201C501B4010E94891581E00E944C
:104F7000511781113BC180916504412C512C40E2B5
:104F8000642E41EC742E82FF10C020918A02309171
:104F90008B0240918C0250918D0260E070E080E0C5
:104FA00090EC0E940FA72B013C014D865E866F8618
:104FB000788AC12CD12C30E8E32E30E4F32EC98658
:104FC000DA86EB86FC86BE01675F7F4FCE010D96C9
:104FD0000E94791610918D0410928D0482E061DD9B
:104FE0000E94721212FD99C060E070E080EC9FE7B1
:104FF00020918A0230918B0240918C0250918D0257
:105000000E9410A76B017C01898D8250823008F0CC
:10501000E3C080E090E0A0E8B0E4898B9A8BAB8B92
:10502000BC8B60917F047091800480918104909189
:105030008204B98D20E030E040E450E4B33021F444
:1050400020E030E048EC51E40E9410A76D8B7E8B8D
:105050008F8B988FBE016F5E7F4FCE0145960E9469
:105060007916F8A1F33008F434C106E319E0F80129
:1050700064910F5F1F4F662309F4D5C086E49DE05D
:105080000E946D10F4CF22E630E140E050ECC50103
:10509000B4010E94ECA987FD1FC022E430E048E182
:1050A00053E4C501B4010E94E9A71816ACF022E64A
:1050B00030E140E050ECC301B2010E94ECA987FD51
:1050C0000BC022E430E048E153E4C301B2010E9486
:1050D000E9A718160CF019CFC12CD12C90ECE92EB1
:1050E0009FE7F92EC701B601A0960FB6F894DEBF70
:1050F0000FBECDBFDF91CF911F910F91FF90EF9029
:10510000DF90CF90BF90AF909F908F907F906F90E7
:105110005F904F903F902F90089580907F049090E3
:105120008004A0908104B0908204C982DA82EB826C
:10513000FC8220E030E040E450E4C501B4010E946C
:1051400010A76D837E838F839887BE016F5F7F4F2B
:10515000CE0105960E9479164D825E826F82788616
:1051600080E090E0A0E0B0E489839A83AB83BC83C5
:10517000BE016F5F7F4FCE0105960E947916109198
:105180008D0410928D0482E08CDC0E94721212FF5A
:105190002BCF20E030E040E450E460917F04709138
:1051A000800480918104909182040E9427AA6B015F
:1051B0007C01A5019401C501B4010E9410A79B01C7
:1051C000AC01C701B6010E9410A72DEC3CEC4CE4E9
:1051D0005EE30E9427AA0CCFE98DE13009F041CFB0
:1051E00080E00E945117882309F43BCF98A1C12C7D
:1051F000D12C20ECE22E2FE7F22E933008F035CFA1
:105200008A8D9B8DAC8DBD8D8093190190931A0171
:10521000A0931B01B0931C01C12CD12C80ECE82E73
:105220008FE7F82E6BC02091AA023091AB0240911B
:10523000AC025091AD02D1016D917D918D919C9107
:105240000E9410A7AB01BC0123E030E086E49DE0A2
:105250000E946B1001E319E0F80164910F5F1F4F8A
:10526000662329F086E49DE00E946D10F5CF209121
:10527000AE023091AF024091B0025091B102AE8DBA
:10528000BF8D6D917D918D919C910E9410A7AB0176
:10529000BC0123E030E086E49DE00E946B100CE24C
:1052A00019E0F80164910F5F1F4F662329F086E42F
:1052B0009DE00E946D10F5CF23E030E0B701A6011C
:1052C00086E49DE00E946B106AE086E49DE00E9407
:1052D0006D108A8D9B8DAC8DBD8D8093190190933F
:1052E0001A01A0931B01B0931C01A7019601C701ED
:1052F000B6010E94D5AA882309F4F4CE0EE212E189
:10530000F80164910F5F1F4F61110EC00CE119E0AD
:10531000F80164910F5F1F4F662309F4E3CE86E422
:105320009DE00E946D10F4CF86E49DE00E946D1018
:10533000E7CF8F929F92AF92BF92CF92DF92EF9280
:10534000FF920F931F93CF93DF93CDB7DEB72897CC
:105350000FB6F894DEBF0FBECDBFC0907704D090DB
:105360007804E0907904F0907A0488E50E94F811BE
:105370008111C6C020E030E040EA51E4C701B60127
:105380000E9410A76D837E838F839887C0907B04D3
:10539000D0907C04E0907D04F0907E0489E50E942A
:1053A000F8118111B0C020E030E0A901C701B601B9
:1053B0000E9410A79B01AC0129833A834B835C8335
:1053C0006D817E818F8198850E94F20F882309F478
:1053D00084C080E08FDB0E94971685E40E94F8115C
:1053E000882309F495C00E946312182F86E50E9455
:1053F000F81121E0882319F00E943212262F01E0D3
:10540000412FBE016F5F7F4FCE0105963FDD6B01DF
:105410007C01AC019B010E94D5AA81115AC08D80EC
:105420009E80AF80B88420E030E0A901C501B401BE
:105430000E94E9A727E137EB41E558E387FF04C065
:1054400027E137EB41E558EBC501B4010E9410A7F5
:10545000AB01BC018DEB96E00E94837D89809A8030
:10546000AB80BC8020E030E0A901C501B4010E94FE
:10547000E9A727E137EB41E558E387FF04C027E1BF
:1054800037EB41E558EBC501B4010E9410A7AB0111
:10549000BC0188EB96E00E94837D20E030E0A9010A
:1054A000C701B6010E94E9A787FD37C067E177EB26
:1054B00081E598E3A70196010E9410A7AB01BC010A
:1054C00083EB96E00E94837D6AE086E49DE00E9483
:1054D0006D100E94B6160E94AE1C28960FB6F89466
:1054E000DEBF0FBECDBFDF91CF911F910F91FF9017
:1054F000EF90DF90CF90BF90AF909F908F900895E6
:105500000E9404123FCF0E9404129B01AC0154CFB1
:1055100085E40E94AD1111E069CF67E177EB81E589
:1055200098EBC8CF8F929F92AF92BF92CF92DF92AB
:10553000EF92FF920F931F93CF93DF9300D000D091
:10554000CDB7DEB787E694E0C9D98091870483FDA3
:10555000A9C0C0907304D0907404E0907504F090DA
:105560007604209183043091840440918504509105
:105570008604C701B6010E94E9A7882309F492C0F6
:105580008091FF0C811133C06091330D7091340D07
:105590008091350D9091360D0E9458A820914801B8
:1055A000309149016217730714F5C0928304D092B9
:1055B0008404E0928504F092860408E212E1F80186
:1055C00064910F5F1F4F61110DC00CE712E0F801ED
:1055D00064910F5F1F4F662351F086E49DE00E94A7
:1055E0006D10F5CF86E49DE00E946D10E8CF8090AD
:1055F000730490907404A0907504B0907604209188
:105600008304309184044091850450918604C5013F
:10561000B4010E940FA76B017C0120E030E0A901DA
:105620000E94ECA987FF04C0F7FAF094F7F8F09411
:10563000E0919B0284E0E89FF0011124E65DFE4FBB
:105640002081318142815381C701B6010E9427AA7E
:1056500020E030E048E453E40E94ECA9181614F569
:105660008092830490928404A0928504B092860470
:1056700008E212E1F80164910F5F1F4F61110DC044
:105680000DE512E0F80164910F5F1F4F662351F0A2
:1056900086E49DE00E946D10F5CF86E49DE00E94B7
:1056A0006D10E8CF6091170170911801072E000C62
:1056B000880B990B0E948BA82091190130911A0137
:1056C00040911B0150911C010E9427AA2AE037ED4E
:1056D00043E25CE30E9427AA69837A838B839C83DD
:1056E000CE0101960E942B1580E1E7E6F4E0A7E7E2
:1056F000B4E001900D928A95E1F70F900F900F9012
:105700000F90DF91CF911F910F91FF90EF90DF905D
:10571000CF90BF90AF909F908F900895CF92DF92DF
:10572000EF920F931F93CF93DF93EC016B01609186
:10573000170170911801072E000C880B990B0E941D
:105740008BA82091190130911A0140911B015091B1
:105750001C010E9427AA2AE037ED43E25CE30E9485
:1057600027AA8B019C01E0909B02A601BE0187E75E
:1057700094E00E94DB7880E1FE01A7E7B4E00190AD
:105780000D928A95E1F7DF91CF911F910F91EF90E4
:10579000DF90CF900895CF93DF93CDB7DEB76097BA
:1057A0000FB6F894DEBF0FBECDBF80911D018823D8
:1057B000A1F10E942C1989E40E94F8118823B1F10B
:1057C0000E94041269837A838B839C838AE40E94FB
:1057D000F811882379F10E9404126D837E838F83F0
:1057E000988780E50E94F811882341F10E940412F5
:1057F00069877A878B879C8781E50E94F8118823C7
:1058000009F10E9404126D877E878F87988BBE01F5
:105810006F5F7F4F87E694E081DF60960FB6F89464
:10582000DEBF0FBECDBFDF91CF91089560E070E085
:10583000CB01C8CF60E070E0CB01CFCF60E070E07B
:10584000CB01D6CF60E070E0CB01DDCF77987698C2
:10585000479843980895439A089583E50E94F81164
:10586000882399F00E94041220E030E04AE754E4D3
:105870000E9427AA0E945DA860930501709306010B
:105880008093070190930801089588E50E94AD1167
:10589000811111C089E50E94AD1181110CC08AE50A
:1058A0000E94AD11811107C085E40E94AD118111E4
:1058B00002C00C94D6680E94FD6888E50E94AD1174
:1058C000882331F0779A809165048E7F80936504F8
:1058D00089E50E94AD11882331F0769A80916504A4
:1058E0008D7F809365048AE50E94AD11882331F095
:1058F000479A809165048B7F8093650485E40E94BC
:10590000AD118111A8CF0895779A809165048E7F9B
:1059100080936504769A809165048D7F80936504F9
:10592000479A809165048B7F8093650494CFCEE283
:10593000D2E1FE016491219661110CC0CAEFD1E061
:10594000FE0164912196662351F086E49DE00E9459
:105950006D10F6CF86E49DE00E946D10EACF0E94A4
:10596000ED8FD2DFFFEF2BE48DE1F150204080403E
:10597000E1F700C00000F8949FEFE4E3FCE09150F1
:10598000E040F040E1F700C000000E94ED8FA895D4
:10599000FECFEF92FF920F931F93CF93DF9380E898
:1059A00085BF85BF40E950ED63E070E086E49DE08F
:1059B0000E9496A6C3EFD1E0FE0164912196611189
:1059C0000DC008E212E1E801FE0164912196662310
:1059D00051F086E49DE00E946D10F6CF86E49DE0D4
:1059E0000E946D10E9CFC4B7C0FF10C03AEEE32E9D
:1059F00031E0F32EF7016491FFEFEF1AFF0A6623FF
:105A000029F086E49DE00E946D10F4CFC1FF10C024
:105A100029EDE22E21E0F22EF7016491FFEFEF1A5B
:105A2000FF0A662329F086E49DE00E946D10F4CF02
:105A3000C2FF10C097ECE92E91E0F92EF7016491B6
:105A4000FFEFEF1AFF0A662329F086E49DE00E942B
:105A50006D10F4CFC3FF10C086EBE82E81E0F82E66
:105A6000F7016491FFEFEF1AFF0A662329F086E43D
:105A70009DE00E946D10F4CFC5FF0CC0C5EAD1E0D7
:105A8000FE0164912196662329F086E49DE00E9440
:105A90006D10F6CF14BECEE9D1E0FE0164912196DF
:105AA000662329F086E49DE00E946D10F6CF60E247
:105AB00086E49DE00E946D10C7E9D1E0FE0164918B
:105AC0002196662329F086E49DE00E946D10F6CFB2
:105AD0006AE086E49DE00E946D10C8E2D2E1FE011A
